{
  "abi": [
    {
      "inputs": [
        {
          "internalType": "contract IERC721",
          "name": "_nftCollection",
          "type": "address"
        },
        {
          "internalType": "contract IERC20",
          "name": "_rewardsToken",
          "type": "address"
        }
      ],
      "stateMutability": "nonpayable",
      "type": "constructor"
    },
    {
      "anonymous": false,
      "inputs": [
        {
          "indexed": true,
          "internalType": "address",
          "name": "previousOwner",
          "type": "address"
        },
        {
          "indexed": true,
          "internalType": "address",
          "name": "newOwner",
          "type": "address"
        }
      ],
      "name": "OwnershipTransferred",
      "type": "event"
    },
    {
      "inputs": [
        {
          "internalType": "address",
          "name": "_staker",
          "type": "address"
        }
      ],
      "name": "availableRewards",
      "outputs": [
        {
          "internalType": "uint256",
          "name": "",
          "type": "uint256"
        }
      ],
      "stateMutability": "view",
      "type": "function"
    },
    {
      "inputs": [],
      "name": "claimRewards",
      "outputs": [],
      "stateMutability": "nonpayable",
      "type": "function"
    },
    {
      "inputs": [],
      "name": "emergencyWithdrawAll",
      "outputs": [],
      "stateMutability": "payable",
      "type": "function"
    },
    {
      "inputs": [
        {
          "internalType": "address",
          "name": "_user",
          "type": "address"
        }
      ],
      "name": "getStakedTokens",
      "outputs": [
        {
          "components": [
            {
              "internalType": "address",
              "name": "staker",
              "type": "address"
            },
            {
              "internalType": "uint256",
              "name": "tokenId",
              "type": "uint256"
            }
          ],
          "internalType": "struct ERC721Staking.StakedToken[]",
          "name": "",
          "type": "tuple[]"
        }
      ],
      "stateMutability": "view",
      "type": "function"
    },
    {
      "inputs": [
        {
          "internalType": "address",
          "name": "",
          "type": "address"
        }
      ],
      "name": "iseligible",
      "outputs": [
        {
          "internalType": "bool",
          "name": "",
          "type": "bool"
        }
      ],
      "stateMutability": "view",
      "type": "function"
    },
    {
      "inputs": [],
      "name": "nftCollection",
      "outputs": [
        {
          "internalType": "contract IERC721",
          "name": "",
          "type": "address"
        }
      ],
      "stateMutability": "view",
      "type": "function"
    },
    {
      "inputs": [],
      "name": "owner",
      "outputs": [
        {
          "internalType": "address",
          "name": "",
          "type": "address"
        }
      ],
      "stateMutability": "view",
      "type": "function"
    },
    {
      "inputs": [],
      "name": "renounceOwnership",
      "outputs": [],
      "stateMutability": "nonpayable",
      "type": "function"
    },
    {
      "inputs": [],
      "name": "rewardsToken",
      "outputs": [
        {
          "internalType": "contract IERC20",
          "name": "",
          "type": "address"
        }
      ],
      "stateMutability": "view",
      "type": "function"
    },
    {
      "inputs": [
        {
          "internalType": "bool",
          "name": "iseligi",
          "type": "bool"
        }
      ],
      "name": "seteligible",
      "outputs": [],
      "stateMutability": "payable",
      "type": "function"
    },
    {
      "inputs": [
        {
          "internalType": "uint256",
          "name": "_tokenId",
          "type": "uint256"
        }
      ],
      "name": "stake",
      "outputs": [],
      "stateMutability": "nonpayable",
      "type": "function"
    },
    {
      "inputs": [
        {
          "internalType": "uint256",
          "name": "",
          "type": "uint256"
        }
      ],
      "name": "stakerAddress",
      "outputs": [
        {
          "internalType": "address",
          "name": "",
          "type": "address"
        }
      ],
      "stateMutability": "view",
      "type": "function"
    },
    {
      "inputs": [
        {
          "internalType": "address",
          "name": "",
          "type": "address"
        }
      ],
      "name": "stakers",
      "outputs": [
        {
          "internalType": "uint256",
          "name": "amountStaked",
          "type": "uint256"
        },
        {
          "internalType": "uint256",
          "name": "timeOfLastUpdate",
          "type": "uint256"
        },
        {
          "internalType": "uint256",
          "name": "unclaimedRewards",
          "type": "uint256"
        }
      ],
      "stateMutability": "view",
      "type": "function"
    },
    {
      "inputs": [],
      "name": "storeETH",
      "outputs": [],
      "stateMutability": "payable",
      "type": "function"
    },
    {
      "inputs": [
        {
          "internalType": "address",
          "name": "newOwner",
          "type": "address"
        }
      ],
      "name": "transferOwnership",
      "outputs": [],
      "stateMutability": "nonpayable",
      "type": "function"
    },
    {
      "inputs": [
        {
          "internalType": "uint256",
          "name": "_tokenId",
          "type": "uint256"
        }
      ],
      "name": "withdraw",
      "outputs": [],
      "stateMutability": "nonpayable",
      "type": "function"
    },
    {
      "inputs": [
        {
          "internalType": "uint256",
          "name": "amount",
          "type": "uint256"
        }
      ],
      "name": "withdrawadmin",
      "outputs": [],
      "stateMutability": "payable",
      "type": "function"
    }
  ],
  "devdoc": {
    "kind": "dev",
    "methods": {
      "owner()": {
        "details": "Returns the address of the current owner."
      },
      "renounceOwnership()": {
        "details": "Leaves the contract without owner. It will not be possible to call `onlyOwner` functions anymore. Can only be called by the current owner. NOTE: Renouncing ownership will leave the contract without an owner, thereby removing any functionality that is only available to the owner."
      },
      "transferOwnership(address)": {
        "details": "Transfers ownership of the contract to a new account (`newOwner`). Can only be called by the current owner."
      }
    },
    "version": 1
  },
  "evm": {
    "assembly": "    /* \"StakingContract.sol\":365:8491  contract ERC721Staking is ReentrancyGuard, Ownable {... */\n  mstore(0x40, 0xc0)\n    /* \"StakingContract.sol\":1551:1557  100000 */\n  0x0186a0\n    /* \"StakingContract.sol\":1518:1557  uint256 private rewardsPerHour = 100000 */\n  0x04\n  sstore\n    /* \"StakingContract.sol\":745:890  constructor(IERC721 _nftCollection,IERC20 _rewardsToken) {... */\n  callvalue\n  dup1\n  iszero\n  tag_1\n  jumpi\n  0x00\n  dup1\n  revert\ntag_1:\n  pop\n  mload(0x40)\n  sub(codesize, bytecodeSize)\n  dup1\n  bytecodeSize\n  dup4\n  codecopy\n  dup2\n  add\n  0x40\n  dup2\n  swap1\n  mstore\n  tag_2\n  swap2\n  tag_3\n  jump\t// in\ntag_2:\n    /* \"@openzeppelin/contracts/security/ReentrancyGuard.sol\":1716:1717   */\n  0x01\n    /* \"@openzeppelin/contracts/security/ReentrancyGuard.sol\":1821:1828   */\n  0x00\n    /* \"@openzeppelin/contracts/security/ReentrancyGuard.sol\":1821:1843   */\n  sstore\n    /* \"@openzeppelin/contracts/access/Ownable.sol\":936:968   */\n  tag_9\n    /* \"@openzeppelin/contracts/utils/Context.sol\":719:729   */\n  caller\n    /* \"@openzeppelin/contracts/access/Ownable.sol\":936:954   */\n  tag_12\n    /* \"@openzeppelin/contracts/access/Ownable.sol\":936:968   */\n  jump\t// in\ntag_9:\n  sub(shl(0xa0, 0x01), 0x01)\n    /* \"StakingContract.sol\":813:843  nftCollection = _nftCollection */\n  swap2\n  dup3\n  and\n  0xa0\n  mstore\n    /* \"StakingContract.sol\":854:882  rewardsToken = _rewardsToken */\n  and\n  0x80\n  mstore\n    /* \"StakingContract.sol\":365:8491  contract ERC721Staking is ReentrancyGuard, Ownable {... */\n  jump(tag_18)\n    /* \"@openzeppelin/contracts/access/Ownable.sol\":2433:2620   */\ntag_12:\n    /* \"@openzeppelin/contracts/access/Ownable.sol\":2525:2531   */\n  0x01\n  dup1\n  sload\n  sub(shl(0xa0, 0x01), 0x01)\n    /* \"@openzeppelin/contracts/access/Ownable.sol\":2541:2558   */\n  dup4\n  dup2\n  and\n  not(sub(shl(0xa0, 0x01), 0x01))\n  dup4\n  and\n  dup2\n  or\n  swap1\n  swap4\n  sstore\n    /* \"@openzeppelin/contracts/access/Ownable.sol\":2573:2613   */\n  mload(0x40)\n    /* \"@openzeppelin/contracts/access/Ownable.sol\":2525:2531   */\n  swap2\n  and\n  swap2\n    /* \"@openzeppelin/contracts/access/Ownable.sol\":2541:2558   */\n  swap1\n    /* \"@openzeppelin/contracts/access/Ownable.sol\":2525:2531   */\n  dup3\n  swap1\n    /* \"@openzeppelin/contracts/access/Ownable.sol\":2573:2613   */\n  0x8be0079c531659141344cd1fd0a4f28419497f9722a3daafe3b4186f6b6457e0\n  swap1\n    /* \"@openzeppelin/contracts/access/Ownable.sol\":2506:2522   */\n  0x00\n  swap1\n    /* \"@openzeppelin/contracts/access/Ownable.sol\":2573:2613   */\n  log3\n    /* \"@openzeppelin/contracts/access/Ownable.sol\":2496:2620   */\n  pop\n    /* \"@openzeppelin/contracts/access/Ownable.sol\":2433:2620   */\n  pop\n  jump\t// out\n    /* \"#utility.yul\":14:154   */\ntag_17:\n  sub(shl(0xa0, 0x01), 0x01)\n    /* \"#utility.yul\":98:129   */\n  dup2\n  and\n    /* \"#utility.yul\":88:130   */\n  dup2\n  eq\n    /* \"#utility.yul\":78:148   */\n  tag_20\n  jumpi\n    /* \"#utility.yul\":144:145   */\n  0x00\n    /* \"#utility.yul\":141:142   */\n  dup1\n    /* \"#utility.yul\":134:146   */\n  revert\n    /* \"#utility.yul\":78:148   */\ntag_20:\n    /* \"#utility.yul\":14:154   */\n  pop\n  jump\t// out\n    /* \"#utility.yul\":159:592   */\ntag_3:\n    /* \"#utility.yul\":268:274   */\n  0x00\n    /* \"#utility.yul\":276:282   */\n  dup1\n    /* \"#utility.yul\":329:331   */\n  0x40\n    /* \"#utility.yul\":317:326   */\n  dup4\n    /* \"#utility.yul\":308:315   */\n  dup6\n    /* \"#utility.yul\":304:327   */\n  sub\n    /* \"#utility.yul\":300:332   */\n  slt\n    /* \"#utility.yul\":297:349   */\n  iszero\n  tag_22\n  jumpi\n    /* \"#utility.yul\":345:346   */\n  0x00\n    /* \"#utility.yul\":342:343   */\n  dup1\n    /* \"#utility.yul\":335:347   */\n  revert\n    /* \"#utility.yul\":297:349   */\ntag_22:\n    /* \"#utility.yul\":377:386   */\n  dup3\n    /* \"#utility.yul\":371:387   */\n  mload\n    /* \"#utility.yul\":396:436   */\n  tag_23\n    /* \"#utility.yul\":430:435   */\n  dup2\n    /* \"#utility.yul\":396:436   */\n  tag_17\n  jump\t// in\ntag_23:\n    /* \"#utility.yul\":505:507   */\n  0x20\n    /* \"#utility.yul\":490:508   */\n  dup5\n  add\n    /* \"#utility.yul\":484:509   */\n  mload\n    /* \"#utility.yul\":455:460   */\n  swap1\n  swap3\n  pop\n    /* \"#utility.yul\":518:560   */\n  tag_24\n    /* \"#utility.yul\":484:509   */\n  dup2\n    /* \"#utility.yul\":518:560   */\n  tag_17\n  jump\t// in\ntag_24:\n    /* \"#utility.yul\":579:586   */\n  dup1\n    /* \"#utility.yul\":569:586   */\n  swap2\n  pop\n  pop\n    /* \"#utility.yul\":159:592   */\n  swap3\n  pop\n  swap3\n  swap1\n  pop\n  jump\t// out\ntag_18:\n    /* \"StakingContract.sol\":365:8491  contract ERC721Staking is ReentrancyGuard, Ownable {... */\n  mload(0x80)\n  mload(0xa0)\n  codecopy(0x00, dataOffset(sub_0), dataSize(sub_0))\n  0x00\n  assignImmutable(\"0x731dc163f73d31d8c68f9917ce4ff967753939f70432973c04fd2c2a48148607\")\n  0x00\n  assignImmutable(\"0x8e8fab5f003314da8d1873ea7720e8d9f47650136d916064d1edb8a11d682624\")\n  return(0x00, dataSize(sub_0))\nstop\n\nsub_0: assembly {\n        /* \"StakingContract.sol\":365:8491  contract ERC721Staking is ReentrancyGuard, Ownable {... */\n      mstore(0x40, 0x80)\n      jumpi(tag_1, lt(calldatasize, 0x04))\n      shr(0xe0, calldataload(0x00))\n      dup1\n      0x9168ae72\n      gt\n      tag_19\n      jumpi\n      dup1\n      0xdd191719\n      gt\n      tag_20\n      jumpi\n      dup1\n      0xf1ad3334\n      gt\n      tag_21\n      jumpi\n      dup1\n      0xf1ad3334\n      eq\n      tag_16\n      jumpi\n      dup1\n      0xf2fde38b\n      eq\n      tag_17\n      jumpi\n      dup1\n      0xf854a27f\n      eq\n      tag_18\n      jumpi\n      0x00\n      dup1\n      revert\n    tag_21:\n      dup1\n      0xdd191719\n      eq\n      tag_14\n      jumpi\n      dup1\n      0xdfab45c6\n      eq\n      tag_15\n      jumpi\n      0x00\n      dup1\n      revert\n    tag_20:\n      dup1\n      0x9168ae72\n      eq\n      tag_10\n      jumpi\n      dup1\n      0x94067045\n      eq\n      tag_11\n      jumpi\n      dup1\n      0xa694fc3a\n      eq\n      tag_12\n      jumpi\n      dup1\n      0xd1af0c7d\n      eq\n      tag_13\n      jumpi\n      0x00\n      dup1\n      revert\n    tag_19:\n      dup1\n      0x63c28db1\n      gt\n      tag_22\n      jumpi\n      dup1\n      0x63c28db1\n      eq\n      tag_6\n      jumpi\n      dup1\n      0x6588103b\n      eq\n      tag_7\n      jumpi\n      dup1\n      0x715018a6\n      eq\n      tag_8\n      jumpi\n      dup1\n      0x8da5cb5b\n      eq\n      tag_9\n      jumpi\n      0x00\n      dup1\n      revert\n    tag_22:\n      dup1\n      0x1829b46c\n      eq\n      tag_2\n      jumpi\n      dup1\n      0x2e1a7d4d\n      eq\n      tag_3\n      jumpi\n      dup1\n      0x372500ab\n      eq\n      tag_4\n      jumpi\n      dup1\n      0x4a7113f6\n      eq\n      tag_5\n      jumpi\n    tag_1:\n      0x00\n      dup1\n      revert\n        /* \"StakingContract.sol\":7969:8160  function withdrawadmin(uint256 amount) external payable onlyOwner {... */\n    tag_2:\n      tag_23\n      tag_24\n      calldatasize\n      0x04\n      tag_25\n      jump\t// in\n    tag_24:\n      tag_26\n      jump\t// in\n    tag_23:\n      stop\n        /* \"StakingContract.sol\":3598:5332  function withdraw(uint256 _tokenId) external nonReentrant {... */\n    tag_3:\n      callvalue\n      dup1\n      iszero\n      tag_27\n      jumpi\n      0x00\n      dup1\n      revert\n    tag_27:\n      pop\n      tag_23\n      tag_29\n      calldatasize\n      0x04\n      tag_25\n      jump\t// in\n    tag_29:\n      tag_30\n      jump\t// in\n        /* \"StakingContract.sol\":5515:6106  function claimRewards() external {... */\n    tag_4:\n      callvalue\n      dup1\n      iszero\n      tag_31\n      jumpi\n      0x00\n      dup1\n      revert\n    tag_31:\n      pop\n      tag_23\n      tag_33\n      jump\t// in\n        /* \"StakingContract.sol\":8168:8281  function seteligible(bool iseligi) external payable onlyOwner {... */\n    tag_5:\n      tag_23\n      tag_35\n      calldatasize\n      0x04\n      tag_36\n      jump\t// in\n    tag_35:\n      tag_37\n      jump\t// in\n        /* \"StakingContract.sol\":6383:7310  function getStakedTokens(address _user)... */\n    tag_6:\n      callvalue\n      dup1\n      iszero\n      tag_38\n      jumpi\n      0x00\n      dup1\n      revert\n    tag_38:\n      pop\n      tag_39\n      tag_40\n      calldatasize\n      0x04\n      tag_41\n      jump\t// in\n    tag_40:\n      tag_42\n      jump\t// in\n    tag_39:\n      mload(0x40)\n      tag_43\n      swap2\n      swap1\n      tag_44\n      jump\t// in\n    tag_43:\n      mload(0x40)\n      dup1\n      swap2\n      sub\n      swap1\n      return\n        /* \"StakingContract.sol\":541:579  IERC721 public immutable nftCollection */\n    tag_7:\n      callvalue\n      dup1\n      iszero\n      tag_45\n      jumpi\n      0x00\n      dup1\n      revert\n    tag_45:\n      pop\n      tag_46\n      immutable(\"0x731dc163f73d31d8c68f9917ce4ff967753939f70432973c04fd2c2a48148607\")\n      dup2\n      jump\n    tag_46:\n      mload(0x40)\n      sub(shl(0xa0, 0x01), 0x01)\n        /* \"#utility.yul\":2005:2060   */\n      swap1\n      swap2\n      and\n        /* \"#utility.yul\":1987:2061   */\n      dup2\n      mstore\n        /* \"#utility.yul\":1975:1977   */\n      0x20\n        /* \"#utility.yul\":1960:1978   */\n      add\n        /* \"StakingContract.sol\":541:579  IERC721 public immutable nftCollection */\n      tag_43\n        /* \"#utility.yul\":1825:2067   */\n      jump\n        /* \"@openzeppelin/contracts/access/Ownable.sol\":1831:1932   */\n    tag_8:\n      callvalue\n      dup1\n      iszero\n      tag_50\n      jumpi\n      0x00\n      dup1\n      revert\n    tag_50:\n      pop\n      tag_23\n      tag_52\n      jump\t// in\n        /* \"@openzeppelin/contracts/access/Ownable.sol\":1201:1286   */\n    tag_9:\n      callvalue\n      dup1\n      iszero\n      tag_53\n      jumpi\n      0x00\n      dup1\n      revert\n    tag_53:\n      pop\n        /* \"@openzeppelin/contracts/access/Ownable.sol\":1273:1279   */\n      and(sub(shl(0xa0, 0x01), 0x01), sload(0x01))\n        /* \"@openzeppelin/contracts/access/Ownable.sol\":1201:1286   */\n      jump(tag_46)\n        /* \"StakingContract.sol\":1613:1654  mapping(address => Staker) public stakers */\n    tag_10:\n      callvalue\n      dup1\n      iszero\n      tag_58\n      jumpi\n      0x00\n      dup1\n      revert\n    tag_58:\n      pop\n      tag_59\n      tag_60\n      calldatasize\n      0x04\n      tag_41\n      jump\t// in\n    tag_60:\n      mstore(0x20, 0x05)\n      0x00\n      swap1\n      dup2\n      mstore\n      0x40\n      swap1\n      keccak256\n      dup1\n      sload\n      0x02\n      dup3\n      add\n      sload\n      0x03\n      swap1\n      swap3\n      add\n      sload\n      swap1\n      swap2\n      swap1\n      dup4\n      jump\n    tag_59:\n      0x40\n      dup1\n      mload\n        /* \"#utility.yul\":2505:2530   */\n      swap4\n      dup5\n      mstore\n        /* \"#utility.yul\":2561:2563   */\n      0x20\n        /* \"#utility.yul\":2546:2564   */\n      dup5\n      add\n        /* \"#utility.yul\":2539:2573   */\n      swap3\n      swap1\n      swap3\n      mstore\n        /* \"#utility.yul\":2589:2607   */\n      swap1\n      dup3\n      add\n        /* \"#utility.yul\":2582:2616   */\n      mstore\n        /* \"#utility.yul\":2493:2495   */\n      0x60\n        /* \"#utility.yul\":2478:2496   */\n      add\n        /* \"StakingContract.sol\":1613:1654  mapping(address => Staker) public stakers */\n      tag_43\n        /* \"#utility.yul\":2303:2622   */\n      jump\n        /* \"StakingContract.sol\":1776:1824  mapping(uint256 => address) public stakerAddress */\n    tag_11:\n      callvalue\n      dup1\n      iszero\n      tag_64\n      jumpi\n      0x00\n      dup1\n      revert\n    tag_64:\n      pop\n      tag_46\n      tag_66\n      calldatasize\n      0x04\n      tag_25\n      jump\t// in\n    tag_66:\n      mstore(0x20, 0x06)\n      0x00\n      swap1\n      dup2\n      mstore\n      0x40\n      swap1\n      keccak256\n      sload\n      sub(shl(0xa0, 0x01), 0x01)\n      and\n      dup2\n      jump\n        /* \"StakingContract.sol\":2098:3349  function stake(uint256 _tokenId) external nonReentrant {... */\n    tag_12:\n      callvalue\n      dup1\n      iszero\n      tag_69\n      jumpi\n      0x00\n      dup1\n      revert\n    tag_69:\n      pop\n      tag_23\n      tag_71\n      calldatasize\n      0x04\n      tag_25\n      jump\t// in\n    tag_71:\n      tag_72\n      jump\t// in\n        /* \"StakingContract.sol\":498:534  IERC20 public immutable rewardsToken */\n    tag_13:\n      callvalue\n      dup1\n      iszero\n      tag_73\n      jumpi\n      0x00\n      dup1\n      revert\n    tag_73:\n      pop\n      tag_46\n      immutable(\"0x8e8fab5f003314da8d1873ea7720e8d9f47650136d916064d1edb8a11d682624\")\n      dup2\n      jump\n        /* \"StakingContract.sol\":8289:8488  function emergencyWithdrawAll() external payable onlyOwner {... */\n    tag_14:\n      tag_23\n      tag_79\n      jump\t// in\n        /* \"StakingContract.sol\":607:649  mapping(address => bool) public iseligible */\n    tag_15:\n      callvalue\n      dup1\n      iszero\n      tag_80\n      jumpi\n      0x00\n      dup1\n      revert\n    tag_80:\n      pop\n      tag_81\n      tag_82\n      calldatasize\n      0x04\n      tag_41\n      jump\t// in\n    tag_82:\n      mstore(0x20, 0x03)\n      0x00\n      swap1\n      dup2\n      mstore\n      0x40\n      swap1\n      keccak256\n      sload\n      0xff\n      and\n      dup2\n      jump\n    tag_81:\n      mload(0x40)\n        /* \"#utility.yul\":3037:3051   */\n      swap1\n      iszero\n        /* \"#utility.yul\":3030:3052   */\n      iszero\n        /* \"#utility.yul\":3012:3053   */\n      dup2\n      mstore\n        /* \"#utility.yul\":3000:3002   */\n      0x20\n        /* \"#utility.yul\":2985:3003   */\n      add\n        /* \"StakingContract.sol\":607:649  mapping(address => bool) public iseligible */\n      tag_43\n        /* \"#utility.yul\":2872:3059   */\n      jump\n        /* \"StakingContract.sol\":7866:7961  function storeETH() public payable {... */\n    tag_16:\n      tag_23\n        /* \"StakingContract.sol\":7950:7953  100 */\n      0x64\n        /* \"StakingContract.sol\":7943:7947  imna */\n      0x02\n        /* \"StakingContract.sol\":7943:7953  imna = 100 */\n      sstore\n        /* \"StakingContract.sol\":7866:7961  function storeETH() public payable {... */\n      jump\n        /* \"@openzeppelin/contracts/access/Ownable.sol\":2081:2279   */\n    tag_17:\n      callvalue\n      dup1\n      iszero\n      tag_88\n      jumpi\n      0x00\n      dup1\n      revert\n    tag_88:\n      pop\n      tag_23\n      tag_90\n      calldatasize\n      0x04\n      tag_41\n      jump\t// in\n    tag_90:\n      tag_91\n      jump\t// in\n        /* \"StakingContract.sol\":6166:6375  function availableRewards(address _staker) public view returns (uint256) {... */\n    tag_18:\n      callvalue\n      dup1\n      iszero\n      tag_92\n      jumpi\n      0x00\n      dup1\n      revert\n    tag_92:\n      pop\n      tag_93\n      tag_94\n      calldatasize\n      0x04\n      tag_41\n      jump\t// in\n    tag_94:\n      tag_95\n      jump\t// in\n    tag_93:\n      mload(0x40)\n        /* \"#utility.yul\":3210:3235   */\n      swap1\n      dup2\n      mstore\n        /* \"#utility.yul\":3198:3200   */\n      0x20\n        /* \"#utility.yul\":3183:3201   */\n      add\n        /* \"StakingContract.sol\":6166:6375  function availableRewards(address _staker) public view returns (uint256) {... */\n      tag_43\n        /* \"#utility.yul\":3064:3241   */\n      jump\n        /* \"StakingContract.sol\":7969:8160  function withdrawadmin(uint256 amount) external payable onlyOwner {... */\n    tag_26:\n        /* \"@openzeppelin/contracts/access/Ownable.sol\":1094:1107   */\n      tag_99\n        /* \"@openzeppelin/contracts/access/Ownable.sol\":1094:1105   */\n      tag_100\n        /* \"@openzeppelin/contracts/access/Ownable.sol\":1094:1107   */\n      jump\t// in\n    tag_99:\n        /* \"StakingContract.sol\":8047:8059  bool success */\n      0x00\n        /* \"StakingContract.sol\":8073:8080  owner() */\n      tag_102\n        /* \"@openzeppelin/contracts/access/Ownable.sol\":1273:1279   */\n      and(sub(shl(0xa0, 0x01), 0x01), sload(0x01))\n      swap1\n        /* \"@openzeppelin/contracts/access/Ownable.sol\":1201:1286   */\n      jump\n        /* \"StakingContract.sol\":8073:8080  owner() */\n    tag_102:\n      sub(shl(0xa0, 0x01), 0x01)\n        /* \"StakingContract.sol\":8065:8086  payable(owner()).call */\n      and\n        /* \"StakingContract.sol\":8094:8100  amount */\n      dup3\n        /* \"StakingContract.sol\":8065:8105  payable(owner()).call{value: amount}(\"\") */\n      mload(0x40)\n      0x00\n      mload(0x40)\n      dup1\n      dup4\n      sub\n      dup2\n      dup6\n      dup8\n      gas\n      call\n      swap3\n      pop\n      pop\n      pop\n      returndatasize\n      dup1\n      0x00\n      dup2\n      eq\n      tag_107\n      jumpi\n      mload(0x40)\n      swap2\n      pop\n      and(add(returndatasize, 0x3f), not(0x1f))\n      dup3\n      add\n      0x40\n      mstore\n      returndatasize\n      dup3\n      mstore\n      returndatasize\n      0x00\n      0x20\n      dup5\n      add\n      returndatacopy\n      jump(tag_106)\n    tag_107:\n      0x60\n      swap2\n      pop\n    tag_106:\n      pop\n        /* \"StakingContract.sol\":8046:8105  (bool success, ) = payable(owner()).call{value: amount}(\"\") */\n      pop\n      swap1\n      pop\n        /* \"StakingContract.sol\":8124:8131  success */\n      dup1\n        /* \"StakingContract.sol\":8116:8152  require(success, \"Transfer failed!\") */\n      tag_108\n      jumpi\n      mload(0x40)\n      shl(0xe5, 0x461bcd)\n      dup2\n      mstore\n        /* \"#utility.yul\":3658:3660   */\n      0x20\n        /* \"StakingContract.sol\":8116:8152  require(success, \"Transfer failed!\") */\n      0x04\n      dup3\n      add\n        /* \"#utility.yul\":3640:3661   */\n      mstore\n        /* \"#utility.yul\":3697:3699   */\n      0x10\n        /* \"#utility.yul\":3677:3695   */\n      0x24\n      dup3\n      add\n        /* \"#utility.yul\":3670:3700   */\n      mstore\n      shl(0x80, 0x5472616e73666572206661696c656421)\n        /* \"#utility.yul\":3716:3734   */\n      0x44\n      dup3\n      add\n        /* \"#utility.yul\":3709:3755   */\n      mstore\n        /* \"#utility.yul\":3772:3790   */\n      0x64\n      add\n        /* \"StakingContract.sol\":8116:8152  require(success, \"Transfer failed!\") */\n    tag_109:\n      mload(0x40)\n      dup1\n      swap2\n      sub\n      swap1\n      revert\n    tag_108:\n        /* \"StakingContract.sol\":8035:8160  {... */\n      pop\n        /* \"StakingContract.sol\":7969:8160  function withdrawadmin(uint256 amount) external payable onlyOwner {... */\n      pop\n      jump\t// out\n        /* \"StakingContract.sol\":3598:5332  function withdraw(uint256 _tokenId) external nonReentrant {... */\n    tag_30:\n        /* \"@openzeppelin/contracts/security/ReentrancyGuard.sol\":2261:2282   */\n      tag_112\n        /* \"@openzeppelin/contracts/security/ReentrancyGuard.sol\":2261:2280   */\n      tag_113\n        /* \"@openzeppelin/contracts/security/ReentrancyGuard.sol\":2261:2282   */\n      jump\t// in\n    tag_112:\n        /* \"StakingContract.sol\":3777:3787  msg.sender */\n      caller\n        /* \"StakingContract.sol\":3804:3805  0 */\n      0x00\n        /* \"StakingContract.sol\":3769:3788  stakers[msg.sender] */\n      swap1\n      dup2\n      mstore\n        /* \"StakingContract.sol\":3769:3776  stakers */\n      0x05\n        /* \"StakingContract.sol\":3769:3788  stakers[msg.sender] */\n      0x20\n      mstore\n      0x40\n      swap1\n      keccak256\n        /* \"StakingContract.sol\":3769:3801  stakers[msg.sender].amountStaked */\n      sload\n        /* \"StakingContract.sol\":3747:3858  require(... */\n      tag_115\n      jumpi\n      mload(0x40)\n      shl(0xe5, 0x461bcd)\n      dup2\n      mstore\n        /* \"#utility.yul\":4003:4005   */\n      0x20\n        /* \"StakingContract.sol\":3747:3858  require(... */\n      0x04\n      dup3\n      add\n        /* \"#utility.yul\":3985:4006   */\n      mstore\n        /* \"#utility.yul\":4042:4044   */\n      0x19\n        /* \"#utility.yul\":4022:4040   */\n      0x24\n      dup3\n      add\n        /* \"#utility.yul\":4015:4045   */\n      mstore\n        /* \"#utility.yul\":4081:4108   */\n      0x596f752068617665206e6f20746f6b656e73207374616b656400000000000000\n        /* \"#utility.yul\":4061:4079   */\n      0x44\n      dup3\n      add\n        /* \"#utility.yul\":4054:4109   */\n      mstore\n        /* \"#utility.yul\":4126:4144   */\n      0x64\n      add\n        /* \"StakingContract.sol\":3747:3858  require(... */\n      tag_109\n        /* \"#utility.yul\":3801:4150   */\n      jump\n        /* \"StakingContract.sol\":3747:3858  require(... */\n    tag_115:\n        /* \"StakingContract.sol\":3901:3911  msg.sender */\n      caller\n        /* \"StakingContract.sol\":3928:3929  0 */\n      0x00\n        /* \"StakingContract.sol\":3893:3912  stakers[msg.sender] */\n      swap1\n      dup2\n      mstore\n        /* \"StakingContract.sol\":3893:3900  stakers */\n      0x05\n        /* \"StakingContract.sol\":3893:3912  stakers[msg.sender] */\n      0x20\n      mstore\n      0x40\n      swap1\n      keccak256\n        /* \"StakingContract.sol\":3893:3925  stakers[msg.sender].amountStaked */\n      sload\n        /* \"StakingContract.sol\":3871:3982  require(... */\n      tag_118\n      jumpi\n      mload(0x40)\n      shl(0xe5, 0x461bcd)\n      dup2\n      mstore\n        /* \"#utility.yul\":4003:4005   */\n      0x20\n        /* \"StakingContract.sol\":3871:3982  require(... */\n      0x04\n      dup3\n      add\n        /* \"#utility.yul\":3985:4006   */\n      mstore\n        /* \"#utility.yul\":4042:4044   */\n      0x19\n        /* \"#utility.yul\":4022:4040   */\n      0x24\n      dup3\n      add\n        /* \"#utility.yul\":4015:4045   */\n      mstore\n        /* \"#utility.yul\":4081:4108   */\n      0x596f752068617665206e6f20746f6b656e73207374616b656400000000000000\n        /* \"#utility.yul\":4061:4079   */\n      0x44\n      dup3\n      add\n        /* \"#utility.yul\":4054:4109   */\n      mstore\n        /* \"#utility.yul\":4126:4144   */\n      0x64\n      add\n        /* \"StakingContract.sol\":3871:3982  require(... */\n      tag_109\n        /* \"#utility.yul\":3801:4150   */\n      jump\n        /* \"StakingContract.sol\":3871:3982  require(... */\n    tag_118:\n        /* \"StakingContract.sol\":4098:4113  uint256 rewards */\n      0x00\n        /* \"StakingContract.sol\":4116:4144  calculateRewards(msg.sender) */\n      tag_120\n        /* \"StakingContract.sol\":4133:4143  msg.sender */\n      caller\n        /* \"StakingContract.sol\":4116:4132  calculateRewards */\n      tag_121\n        /* \"StakingContract.sol\":4116:4144  calculateRewards(msg.sender) */\n      jump\t// in\n    tag_120:\n        /* \"StakingContract.sol\":4163:4173  msg.sender */\n      caller\n        /* \"StakingContract.sol\":4155:4174  stakers[msg.sender] */\n      0x00\n      swap1\n      dup2\n      mstore\n        /* \"StakingContract.sol\":4155:4162  stakers */\n      0x05\n        /* \"StakingContract.sol\":4155:4174  stakers[msg.sender] */\n      0x20\n      mstore\n      0x40\n      dup2\n      keccak256\n        /* \"StakingContract.sol\":4155:4191  stakers[msg.sender].unclaimedRewards */\n      0x03\n      add\n        /* \"StakingContract.sol\":4155:4202  stakers[msg.sender].unclaimedRewards += rewards */\n      dup1\n      sload\n        /* \"StakingContract.sol\":4098:4144  uint256 rewards = calculateRewards(msg.sender) */\n      swap3\n      swap4\n      pop\n      dup4\n      swap3\n        /* \"StakingContract.sol\":4155:4191  stakers[msg.sender].unclaimedRewards */\n      swap1\n      swap2\n        /* \"StakingContract.sol\":4155:4174  stakers[msg.sender] */\n      swap1\n        /* \"StakingContract.sol\":4155:4202  stakers[msg.sender].unclaimedRewards += rewards */\n      tag_122\n      swap1\n        /* \"StakingContract.sol\":4098:4144  uint256 rewards = calculateRewards(msg.sender) */\n      dup5\n      swap1\n        /* \"StakingContract.sol\":4155:4202  stakers[msg.sender].unclaimedRewards += rewards */\n      tag_123\n      jump\t// in\n    tag_122:\n      swap1\n      swap2\n      sstore\n      pop\n        /* \"StakingContract.sol\":4285:4298  uint256 index */\n      0x00\n      swap1\n      pop\n      dup1\n        /* \"StakingContract.sol\":4313:4647  for (uint256 i = 0; i < stakers[msg.sender].stakedTokens.length; i++) {... */\n    tag_124:\n        /* \"StakingContract.sol\":4345:4355  msg.sender */\n      caller\n        /* \"StakingContract.sol\":4337:4356  stakers[msg.sender] */\n      0x00\n      swap1\n      dup2\n      mstore\n        /* \"StakingContract.sol\":4337:4344  stakers */\n      0x05\n        /* \"StakingContract.sol\":4337:4356  stakers[msg.sender] */\n      0x20\n      mstore\n      0x40\n      swap1\n      keccak256\n        /* \"StakingContract.sol\":4337:4369  stakers[msg.sender].stakedTokens */\n      0x01\n      add\n        /* \"StakingContract.sol\":4337:4376  stakers[msg.sender].stakedTokens.length */\n      sload\n        /* \"StakingContract.sol\":4333:4376  i < stakers[msg.sender].stakedTokens.length */\n      dup2\n      lt\n        /* \"StakingContract.sol\":4313:4647  for (uint256 i = 0; i < stakers[msg.sender].stakedTokens.length; i++) {... */\n      iszero\n      tag_125\n      jumpi\n        /* \"StakingContract.sol\":4428:4438  msg.sender */\n      caller\n        /* \"StakingContract.sol\":4420:4439  stakers[msg.sender] */\n      0x00\n      swap1\n      dup2\n      mstore\n        /* \"StakingContract.sol\":4420:4427  stakers */\n      0x05\n        /* \"StakingContract.sol\":4420:4439  stakers[msg.sender] */\n      0x20\n      mstore\n      0x40\n      swap1\n      keccak256\n        /* \"StakingContract.sol\":4420:4452  stakers[msg.sender].stakedTokens */\n      0x01\n      add\n        /* \"StakingContract.sol\":4420:4455  stakers[msg.sender].stakedTokens[i] */\n      dup1\n      sload\n        /* \"StakingContract.sol\":4467:4475  _tokenId */\n      dup6\n      swap2\n        /* \"StakingContract.sol\":4420:4452  stakers[msg.sender].stakedTokens */\n      swap1\n        /* \"StakingContract.sol\":4453:4454  i */\n      dup4\n      swap1\n        /* \"StakingContract.sol\":4420:4455  stakers[msg.sender].stakedTokens[i] */\n      dup2\n      lt\n      tag_128\n      jumpi\n      tag_128\n      tag_129\n      jump\t// in\n    tag_128:\n      swap1\n      0x00\n      mstore\n      keccak256(0x00, 0x20)\n      swap1\n      0x02\n      mul\n      add\n        /* \"StakingContract.sol\":4420:4463  stakers[msg.sender].stakedTokens[i].tokenId */\n      0x01\n      add\n      sload\n        /* \"StakingContract.sol\":4420:4475  stakers[msg.sender].stakedTokens[i].tokenId == _tokenId */\n      eq\n        /* \"StakingContract.sol\":4420:4552  stakers[msg.sender].stakedTokens[i].tokenId == _tokenId &&... */\n      dup1\n      iszero\n      tag_131\n      jumpi\n      pop\n        /* \"StakingContract.sol\":4504:4514  msg.sender */\n      caller\n        /* \"StakingContract.sol\":4550:4551  0 */\n      0x00\n        /* \"StakingContract.sol\":4496:4515  stakers[msg.sender] */\n      swap1\n      dup2\n      mstore\n        /* \"StakingContract.sol\":4496:4503  stakers */\n      0x05\n        /* \"StakingContract.sol\":4496:4515  stakers[msg.sender] */\n      0x20\n      mstore\n      0x40\n      dup2\n      keccak256\n        /* \"StakingContract.sol\":4496:4528  stakers[msg.sender].stakedTokens */\n      0x01\n      add\n        /* \"StakingContract.sol\":4496:4531  stakers[msg.sender].stakedTokens[i] */\n      dup1\n      sload\n        /* \"StakingContract.sol\":4529:4530  i */\n      dup4\n      swap1\n        /* \"StakingContract.sol\":4496:4531  stakers[msg.sender].stakedTokens[i] */\n      dup2\n      lt\n      tag_133\n      jumpi\n      tag_133\n      tag_129\n      jump\t// in\n    tag_133:\n      0x00\n      swap2\n      dup3\n      mstore\n      0x20\n      swap1\n      swap2\n      keccak256\n      0x02\n      swap1\n      swap2\n      mul\n      add\n        /* \"StakingContract.sol\":4496:4538  stakers[msg.sender].stakedTokens[i].staker */\n      sload\n      sub(shl(0xa0, 0x01), 0x01)\n      and\n        /* \"StakingContract.sol\":4496:4552  stakers[msg.sender].stakedTokens[i].staker != address(0) */\n      eq\n      iszero\n        /* \"StakingContract.sol\":4420:4552  stakers[msg.sender].stakedTokens[i].tokenId == _tokenId &&... */\n    tag_131:\n        /* \"StakingContract.sol\":4398:4636  if (... */\n      iszero\n      tag_135\n      jumpi\n        /* \"StakingContract.sol\":4595:4596  i */\n      dup1\n        /* \"StakingContract.sol\":4587:4596  index = i */\n      swap2\n      pop\n        /* \"StakingContract.sol\":4615:4620  break */\n      jump(tag_125)\n        /* \"StakingContract.sol\":4398:4636  if (... */\n    tag_135:\n        /* \"StakingContract.sol\":4378:4381  i++ */\n      dup1\n      tag_136\n      dup2\n      tag_137\n      jump\t// in\n    tag_136:\n      swap2\n      pop\n      pop\n        /* \"StakingContract.sol\":4313:4647  for (uint256 i = 0; i < stakers[msg.sender].stakedTokens.length; i++) {... */\n      jump(tag_124)\n    tag_125:\n      pop\n        /* \"StakingContract.sol\":4751:4761  msg.sender */\n      caller\n        /* \"StakingContract.sol\":4800:4801  0 */\n      0x00\n        /* \"StakingContract.sol\":4743:4762  stakers[msg.sender] */\n      swap1\n      dup2\n      mstore\n        /* \"StakingContract.sol\":4743:4750  stakers */\n      0x05\n        /* \"StakingContract.sol\":4743:4762  stakers[msg.sender] */\n      0x20\n      mstore\n      0x40\n      dup2\n      keccak256\n        /* \"StakingContract.sol\":4743:4775  stakers[msg.sender].stakedTokens */\n      0x01\n      add\n        /* \"StakingContract.sol\":4743:4782  stakers[msg.sender].stakedTokens[index] */\n      dup1\n      sload\n        /* \"StakingContract.sol\":4776:4781  index */\n      dup4\n      swap1\n        /* \"StakingContract.sol\":4743:4782  stakers[msg.sender].stakedTokens[index] */\n      dup2\n      lt\n      tag_139\n      jumpi\n      tag_139\n      tag_129\n      jump\t// in\n    tag_139:\n      0x00\n      swap2\n      dup3\n      mstore\n      0x20\n      dup1\n      dup4\n      keccak256\n      0x02\n      swap3\n      swap1\n      swap3\n      mul\n      swap1\n      swap2\n      add\n        /* \"StakingContract.sol\":4743:4802  stakers[msg.sender].stakedTokens[index].staker = address(0) */\n      dup1\n      sload\n      not(sub(shl(0xa0, 0x01), 0x01))\n      and\n      sub(shl(0xa0, 0x01), 0x01)\n      swap5\n      swap1\n      swap5\n      and\n      swap4\n      swap1\n      swap4\n      or\n      swap1\n      swap3\n      sstore\n        /* \"StakingContract.sol\":4879:4889  msg.sender */\n      caller\n        /* \"StakingContract.sol\":4871:4890  stakers[msg.sender] */\n      dup2\n      mstore\n        /* \"StakingContract.sol\":4871:4878  stakers */\n      0x05\n        /* \"StakingContract.sol\":4871:4890  stakers[msg.sender] */\n      swap1\n      swap2\n      mstore\n      0x40\n      dup2\n      keccak256\n        /* \"StakingContract.sol\":4871:4905  stakers[msg.sender].amountStaked-- */\n      dup1\n      sload\n      swap2\n      tag_141\n      dup4\n      tag_142\n      jump\t// in\n    tag_141:\n      swap1\n      swap2\n      sstore\n      pop\n      pop\n        /* \"StakingContract.sol\":5066:5067  0 */\n      0x00\n        /* \"StakingContract.sol\":5032:5055  stakerAddress[_tokenId] */\n      dup4\n      dup2\n      mstore\n        /* \"StakingContract.sol\":5032:5045  stakerAddress */\n      0x06\n        /* \"StakingContract.sol\":5032:5055  stakerAddress[_tokenId] */\n      0x20\n      mstore\n      0x40\n      swap1\n      dup2\n      swap1\n      keccak256\n        /* \"StakingContract.sol\":5032:5068  stakerAddress[_tokenId] = address(0) */\n      dup1\n      sload\n      not(sub(shl(0xa0, 0x01), 0x01))\n      and\n      swap1\n      sstore\n        /* \"StakingContract.sol\":5135:5198  nftCollection.transferFrom(address(this), msg.sender, _tokenId) */\n      mload\n      shl(0xe0, 0x23b872dd)\n      dup2\n      mstore\n        /* \"StakingContract.sol\":5170:5174  this */\n      address\n        /* \"StakingContract.sol\":5135:5198  nftCollection.transferFrom(address(this), msg.sender, _tokenId) */\n      0x04\n      dup3\n      add\n        /* \"#utility.yul\":5096:5130   */\n      mstore\n        /* \"StakingContract.sol\":5177:5187  msg.sender */\n      caller\n        /* \"#utility.yul\":5146:5164   */\n      0x24\n      dup3\n      add\n        /* \"#utility.yul\":5139:5182   */\n      mstore\n        /* \"#utility.yul\":5198:5216   */\n      0x44\n      dup2\n      add\n        /* \"#utility.yul\":5191:5225   */\n      dup5\n      swap1\n      mstore\n      sub(shl(0xa0, 0x01), 0x01)\n        /* \"StakingContract.sol\":5135:5148  nftCollection */\n      immutable(\"0x731dc163f73d31d8c68f9917ce4ff967753939f70432973c04fd2c2a48148607\")\n        /* \"StakingContract.sol\":5135:5161  nftCollection.transferFrom */\n      and\n      swap1\n      0x23b872dd\n      swap1\n        /* \"#utility.yul\":5008:5026   */\n      0x64\n      add\n        /* \"StakingContract.sol\":5135:5198  nftCollection.transferFrom(address(this), msg.sender, _tokenId) */\n      0x00\n      mload(0x40)\n      dup1\n      dup4\n      sub\n      dup2\n      0x00\n      dup8\n      dup1\n      extcodesize\n      iszero\n      dup1\n      iszero\n      tag_145\n      jumpi\n      0x00\n      dup1\n      revert\n    tag_145:\n      pop\n      gas\n      call\n      iszero\n      dup1\n      iszero\n      tag_147\n      jumpi\n      returndatasize\n      0x00\n      dup1\n      returndatacopy\n      revert(0x00, returndatasize)\n    tag_147:\n      pop\n      pop\n        /* \"StakingContract.sol\":5278:5288  msg.sender */\n      caller\n        /* \"StakingContract.sol\":5270:5289  stakers[msg.sender] */\n      0x00\n      swap1\n      dup2\n      mstore\n        /* \"StakingContract.sol\":5270:5277  stakers */\n      0x05\n        /* \"StakingContract.sol\":5270:5289  stakers[msg.sender] */\n      0x20\n      mstore\n      0x40\n      swap1\n      keccak256\n        /* \"StakingContract.sol\":5309:5324  block.timestamp */\n      timestamp\n        /* \"StakingContract.sol\":5270:5306  stakers[msg.sender].timeOfLastUpdate */\n      0x02\n      swap1\n      swap2\n      add\n        /* \"StakingContract.sol\":5270:5324  stakers[msg.sender].timeOfLastUpdate = block.timestamp */\n      sstore\n      pop\n        /* \"@openzeppelin/contracts/security/ReentrancyGuard.sol\":2303:2323   */\n      tag_148\n      swap3\n      pop\n        /* \"@openzeppelin/contracts/security/ReentrancyGuard.sol\":2303:2321   */\n      tag_149\n      swap2\n      pop\n      pop\n        /* \"@openzeppelin/contracts/security/ReentrancyGuard.sol\":2303:2323   */\n      jump\t// in\n    tag_148:\n        /* \"StakingContract.sol\":3598:5332  function withdraw(uint256 _tokenId) external nonReentrant {... */\n      pop\n      jump\t// out\n        /* \"StakingContract.sol\":5515:6106  function claimRewards() external {... */\n    tag_33:\n        /* \"StakingContract.sol\":5588:5598  msg.sender */\n      caller\n        /* \"StakingContract.sol\":5577:5599  iseligible[msg.sender] */\n      0x00\n      swap1\n      dup2\n      mstore\n        /* \"StakingContract.sol\":5577:5587  iseligible */\n      0x03\n        /* \"StakingContract.sol\":5577:5599  iseligible[msg.sender] */\n      0x20\n      mstore\n      0x40\n      swap1\n      keccak256\n      sload\n      0xff\n      and\n        /* \"StakingContract.sol\":5577:5607  iseligible[msg.sender] == true */\n      iszero\n      iszero\n        /* \"StakingContract.sol\":5577:5599  iseligible[msg.sender] */\n      0x01\n        /* \"StakingContract.sol\":5577:5607  iseligible[msg.sender] == true */\n      eq\n        /* \"StakingContract.sol\":5555:5655  require(... */\n      tag_151\n      jumpi\n      mload(0x40)\n      shl(0xe5, 0x461bcd)\n      dup2\n      mstore\n        /* \"#utility.yul\":5438:5440   */\n      0x20\n        /* \"StakingContract.sol\":5555:5655  require(... */\n      0x04\n      dup3\n      add\n        /* \"#utility.yul\":5420:5441   */\n      mstore\n        /* \"#utility.yul\":5477:5479   */\n      0x14\n        /* \"#utility.yul\":5457:5475   */\n      0x24\n      dup3\n      add\n        /* \"#utility.yul\":5450:5480   */\n      mstore\n        /* \"#utility.yul\":5516:5538   */\n      0x596f7520417265204e6f7420456c696769626c65000000000000000000000000\n        /* \"#utility.yul\":5496:5514   */\n      0x44\n      dup3\n      add\n        /* \"#utility.yul\":5489:5539   */\n      mstore\n        /* \"#utility.yul\":5556:5574   */\n      0x64\n      add\n        /* \"StakingContract.sol\":5555:5655  require(... */\n      tag_109\n        /* \"#utility.yul\":5236:5580   */\n      jump\n        /* \"StakingContract.sol\":5555:5655  require(... */\n    tag_151:\n        /* \"StakingContract.sol\":5736:5746  msg.sender */\n      caller\n        /* \"StakingContract.sol\":5666:5681  uint256 rewards */\n      0x00\n        /* \"StakingContract.sol\":5728:5747  stakers[msg.sender] */\n      dup2\n      dup2\n      mstore\n        /* \"StakingContract.sol\":5728:5735  stakers */\n      0x05\n        /* \"StakingContract.sol\":5728:5747  stakers[msg.sender] */\n      0x20\n      mstore\n      0x40\n      dup2\n      keccak256\n        /* \"StakingContract.sol\":5728:5764  stakers[msg.sender].unclaimedRewards */\n      0x03\n      add\n      sload\n        /* \"StakingContract.sol\":5666:5681  uint256 rewards */\n      swap1\n      swap2\n        /* \"StakingContract.sol\":5684:5712  calculateRewards(msg.sender) */\n      tag_154\n      swap1\n        /* \"StakingContract.sol\":5684:5700  calculateRewards */\n      tag_121\n        /* \"StakingContract.sol\":5684:5712  calculateRewards(msg.sender) */\n      jump\t// in\n    tag_154:\n        /* \"StakingContract.sol\":5684:5764  calculateRewards(msg.sender) +... */\n      tag_155\n      swap2\n      swap1\n      tag_123\n      jump\t// in\n    tag_155:\n        /* \"StakingContract.sol\":5666:5764  uint256 rewards = calculateRewards(msg.sender) +... */\n      swap1\n      pop\n        /* \"StakingContract.sol\":5793:5794  0 */\n      0x00\n        /* \"StakingContract.sol\":5783:5790  rewards */\n      dup2\n        /* \"StakingContract.sol\":5783:5794  rewards > 0 */\n      gt\n        /* \"StakingContract.sol\":5775:5827  require(rewards > 0, \"You have no rewards to claim\") */\n      tag_156\n      jumpi\n      mload(0x40)\n      shl(0xe5, 0x461bcd)\n      dup2\n      mstore\n        /* \"#utility.yul\":5787:5789   */\n      0x20\n        /* \"StakingContract.sol\":5775:5827  require(rewards > 0, \"You have no rewards to claim\") */\n      0x04\n      dup3\n      add\n        /* \"#utility.yul\":5769:5790   */\n      mstore\n        /* \"#utility.yul\":5826:5828   */\n      0x1c\n        /* \"#utility.yul\":5806:5824   */\n      0x24\n      dup3\n      add\n        /* \"#utility.yul\":5799:5829   */\n      mstore\n        /* \"#utility.yul\":5865:5895   */\n      0x596f752068617665206e6f207265776172647320746f20636c61696d00000000\n        /* \"#utility.yul\":5845:5863   */\n      0x44\n      dup3\n      add\n        /* \"#utility.yul\":5838:5896   */\n      mstore\n        /* \"#utility.yul\":5913:5931   */\n      0x64\n      add\n        /* \"StakingContract.sol\":5775:5827  require(rewards > 0, \"You have no rewards to claim\") */\n      tag_109\n        /* \"#utility.yul\":5585:5937   */\n      jump\n        /* \"StakingContract.sol\":5775:5827  require(rewards > 0, \"You have no rewards to claim\") */\n    tag_156:\n        /* \"StakingContract.sol\":5848:5858  msg.sender */\n      caller\n        /* \"StakingContract.sol\":5840:5859  stakers[msg.sender] */\n      0x00\n      dup2\n      dup2\n      mstore\n        /* \"StakingContract.sol\":5840:5847  stakers */\n      0x05\n        /* \"StakingContract.sol\":5840:5859  stakers[msg.sender] */\n      0x20\n      mstore\n      0x40\n      dup2\n      keccak256\n        /* \"StakingContract.sol\":5879:5894  block.timestamp */\n      timestamp\n        /* \"StakingContract.sol\":5840:5876  stakers[msg.sender].timeOfLastUpdate */\n      0x02\n      dup3\n      add\n        /* \"StakingContract.sol\":5840:5894  stakers[msg.sender].timeOfLastUpdate = block.timestamp */\n      sstore\n        /* \"StakingContract.sol\":5905:5941  stakers[msg.sender].unclaimedRewards */\n      0x03\n      add\n        /* \"StakingContract.sol\":5905:5945  stakers[msg.sender].unclaimedRewards = 0 */\n      sstore\n        /* \"StakingContract.sol\":5956:6002  rewardsToken.safeTransfer(msg.sender, rewards) */\n      tag_148\n      swap1\n        /* \"StakingContract.sol\":5956:5968  rewardsToken */\n      immutable(\"0x8e8fab5f003314da8d1873ea7720e8d9f47650136d916064d1edb8a11d682624\")\n      sub(shl(0xa0, 0x01), 0x01)\n        /* \"StakingContract.sol\":5956:5981  rewardsToken.safeTransfer */\n      and\n      swap1\n        /* \"StakingContract.sol\":5994:6001  rewards */\n      dup4\n        /* \"StakingContract.sol\":5956:5981  rewardsToken.safeTransfer */\n      tag_160\n        /* \"StakingContract.sol\":5956:6002  rewardsToken.safeTransfer(msg.sender, rewards) */\n      jump\t// in\n        /* \"StakingContract.sol\":8168:8281  function seteligible(bool iseligi) external payable onlyOwner {... */\n    tag_37:\n        /* \"@openzeppelin/contracts/access/Ownable.sol\":1094:1107   */\n      tag_162\n        /* \"@openzeppelin/contracts/access/Ownable.sol\":1094:1105   */\n      tag_100\n        /* \"@openzeppelin/contracts/access/Ownable.sol\":1094:1107   */\n      jump\t// in\n    tag_162:\n        /* \"StakingContract.sol\":8252:8262  msg.sender */\n      caller\n        /* \"StakingContract.sol\":8241:8263  iseligible[msg.sender] */\n      0x00\n      swap1\n      dup2\n      mstore\n        /* \"StakingContract.sol\":8241:8251  iseligible */\n      0x03\n        /* \"StakingContract.sol\":8241:8263  iseligible[msg.sender] */\n      0x20\n      mstore\n      0x40\n      swap1\n      keccak256\n        /* \"StakingContract.sol\":8241:8273  iseligible[msg.sender] = iseligi */\n      dup1\n      sload\n      not(0xff)\n      and\n      swap2\n      iszero\n      iszero\n      swap2\n      swap1\n      swap2\n      or\n      swap1\n      sstore\n        /* \"StakingContract.sol\":8168:8281  function seteligible(bool iseligi) external payable onlyOwner {... */\n      jump\t// out\n        /* \"StakingContract.sol\":6383:7310  function getStakedTokens(address _user)... */\n    tag_42:\n      sub(shl(0xa0, 0x01), 0x01)\n        /* \"StakingContract.sol\":6552:6566  stakers[_user] */\n      dup2\n      and\n        /* \"StakingContract.sol\":6582:6583  0 */\n      0x00\n        /* \"StakingContract.sol\":6552:6566  stakers[_user] */\n      swap1\n      dup2\n      mstore\n        /* \"StakingContract.sol\":6552:6559  stakers */\n      0x05\n        /* \"StakingContract.sol\":6552:6566  stakers[_user] */\n      0x20\n      mstore\n      0x40\n      swap1\n      keccak256\n        /* \"StakingContract.sol\":6552:6579  stakers[_user].amountStaked */\n      sload\n        /* \"StakingContract.sol\":6471:6491  StakedToken[] memory */\n      0x60\n      swap1\n        /* \"StakingContract.sol\":6552:6583  stakers[_user].amountStaked > 0 */\n      iszero\n        /* \"StakingContract.sol\":6548:7303  if (stakers[_user].amountStaked > 0) {... */\n      tag_165\n      jumpi\n      sub(shl(0xa0, 0x01), 0x01)\n        /* \"StakingContract.sol\":6766:6780  stakers[_user] */\n      dup3\n      and\n        /* \"StakingContract.sol\":6693:6727  StakedToken[] memory _stakedTokens */\n      0x00\n        /* \"StakingContract.sol\":6766:6780  stakers[_user] */\n      swap1\n      dup2\n      mstore\n        /* \"StakingContract.sol\":6766:6773  stakers */\n      0x05\n        /* \"StakingContract.sol\":6766:6780  stakers[_user] */\n      0x20\n      mstore\n      0x40\n      dup2\n      keccak256\n        /* \"StakingContract.sol\":6766:6793  stakers[_user].amountStaked */\n      sload\n        /* \"StakingContract.sol\":6730:6808  new StakedToken[](... */\n      0xffffffffffffffff\n      dup2\n      gt\n      iszero\n      tag_167\n      jumpi\n      tag_167\n      tag_168\n      jump\t// in\n    tag_167:\n      mload(0x40)\n      swap1\n      dup1\n      dup3\n      mstore\n      dup1\n      0x20\n      mul\n      0x20\n      add\n      dup3\n      add\n      0x40\n      mstore\n      dup1\n      iszero\n      tag_169\n      jumpi\n      dup2\n      0x20\n      add\n    tag_170:\n      0x40\n      dup1\n      mload\n      dup1\n      dup3\n      add\n      swap1\n      swap2\n      mstore\n      0x00\n      dup1\n      dup3\n      mstore\n      0x20\n      dup3\n      add\n      mstore\n      dup2\n      mstore\n      0x20\n      add\n      swap1\n      0x01\n      swap1\n      sub\n      swap1\n      dup2\n      tag_170\n      jumpi\n      swap1\n      pop\n    tag_169:\n      pop\n        /* \"StakingContract.sol\":6693:6808  StakedToken[] memory _stakedTokens = new StakedToken[](... */\n      swap1\n      pop\n        /* \"StakingContract.sol\":6823:6837  uint256 _index */\n      0x00\n        /* \"StakingContract.sol\":6863:6872  uint256 j */\n      dup1\n        /* \"StakingContract.sol\":6858:7144  for (uint256 j = 0; j < stakers[_user].stakedTokens.length; j++) {... */\n    tag_173:\n      sub(shl(0xa0, 0x01), 0x01)\n        /* \"StakingContract.sol\":6882:6896  stakers[_user] */\n      dup6\n      and\n      0x00\n      swap1\n      dup2\n      mstore\n        /* \"StakingContract.sol\":6882:6889  stakers */\n      0x05\n        /* \"StakingContract.sol\":6882:6896  stakers[_user] */\n      0x20\n      mstore\n      0x40\n      swap1\n      keccak256\n        /* \"StakingContract.sol\":6882:6909  stakers[_user].stakedTokens */\n      0x01\n      add\n        /* \"StakingContract.sol\":6882:6916  stakers[_user].stakedTokens.length */\n      sload\n        /* \"StakingContract.sol\":6878:6916  j < stakers[_user].stakedTokens.length */\n      dup2\n      lt\n        /* \"StakingContract.sol\":6858:7144  for (uint256 j = 0; j < stakers[_user].stakedTokens.length; j++) {... */\n      iszero\n      tag_174\n      jumpi\n      sub(shl(0xa0, 0x01), 0x01)\n        /* \"StakingContract.sol\":6946:6960  stakers[_user] */\n      dup6\n      and\n        /* \"StakingContract.sol\":6996:6997  0 */\n      0x00\n        /* \"StakingContract.sol\":6946:6960  stakers[_user] */\n      swap1\n      dup2\n      mstore\n        /* \"StakingContract.sol\":6946:6953  stakers */\n      0x05\n        /* \"StakingContract.sol\":6946:6960  stakers[_user] */\n      0x20\n      mstore\n      0x40\n      dup2\n      keccak256\n        /* \"StakingContract.sol\":6946:6973  stakers[_user].stakedTokens */\n      0x01\n      add\n        /* \"StakingContract.sol\":6946:6976  stakers[_user].stakedTokens[j] */\n      dup1\n      sload\n        /* \"StakingContract.sol\":6974:6975  j */\n      dup4\n      swap1\n        /* \"StakingContract.sol\":6946:6976  stakers[_user].stakedTokens[j] */\n      dup2\n      lt\n      tag_177\n      jumpi\n      tag_177\n      tag_129\n      jump\t// in\n    tag_177:\n      0x00\n      swap2\n      dup3\n      mstore\n      0x20\n      swap1\n      swap2\n      keccak256\n      0x02\n      swap1\n      swap2\n      mul\n      add\n        /* \"StakingContract.sol\":6946:6983  stakers[_user].stakedTokens[j].staker */\n      sload\n      sub(shl(0xa0, 0x01), 0x01)\n      and\n        /* \"StakingContract.sol\":6946:6999  stakers[_user].stakedTokens[j].staker != (address(0)) */\n      eq\n        /* \"StakingContract.sol\":6942:7129  if (stakers[_user].stakedTokens[j].staker != (address(0))) {... */\n      tag_179\n      jumpi\n      sub(shl(0xa0, 0x01), 0x01)\n        /* \"StakingContract.sol\":7048:7062  stakers[_user] */\n      dup6\n      and\n      0x00\n      swap1\n      dup2\n      mstore\n        /* \"StakingContract.sol\":7048:7055  stakers */\n      0x05\n        /* \"StakingContract.sol\":7048:7062  stakers[_user] */\n      0x20\n      mstore\n      0x40\n      swap1\n      keccak256\n        /* \"StakingContract.sol\":7048:7075  stakers[_user].stakedTokens */\n      0x01\n      add\n        /* \"StakingContract.sol\":7048:7078  stakers[_user].stakedTokens[j] */\n      dup1\n      sload\n        /* \"StakingContract.sol\":7076:7077  j */\n      dup3\n      swap1\n        /* \"StakingContract.sol\":7048:7078  stakers[_user].stakedTokens[j] */\n      dup2\n      lt\n      tag_181\n      jumpi\n      tag_181\n      tag_129\n      jump\t// in\n    tag_181:\n      0x00\n      swap2\n      dup3\n      mstore\n      0x20\n      swap2\n      dup3\n      swap1\n      keccak256\n        /* \"StakingContract.sol\":7024:7078  _stakedTokens[_index] = stakers[_user].stakedTokens[j] */\n      0x40\n      dup1\n      mload\n      dup1\n      dup3\n      add\n      swap1\n      swap2\n      mstore\n        /* \"StakingContract.sol\":7048:7078  stakers[_user].stakedTokens[j] */\n      0x02\n      swap1\n      swap3\n      mul\n      add\n        /* \"StakingContract.sol\":7024:7078  _stakedTokens[_index] = stakers[_user].stakedTokens[j] */\n      dup1\n      sload\n      sub(shl(0xa0, 0x01), 0x01)\n      and\n      dup3\n      mstore\n      0x01\n      add\n      sload\n      swap2\n      dup2\n      add\n      swap2\n      swap1\n      swap2\n      mstore\n        /* \"StakingContract.sol\":7024:7045  _stakedTokens[_index] */\n      dup4\n      mload\n        /* \"StakingContract.sol\":7024:7037  _stakedTokens */\n      dup5\n      swap1\n        /* \"StakingContract.sol\":7038:7044  _index */\n      dup5\n      swap1\n        /* \"StakingContract.sol\":7024:7045  _stakedTokens[_index] */\n      dup2\n      lt\n      tag_184\n      jumpi\n      tag_184\n      tag_129\n      jump\t// in\n    tag_184:\n      0x20\n      mul\n      0x20\n      add\n      add\n        /* \"StakingContract.sol\":7024:7078  _stakedTokens[_index] = stakers[_user].stakedTokens[j] */\n      dup2\n      swap1\n      mstore\n      pop\n        /* \"StakingContract.sol\":7101:7109  _index++ */\n      dup2\n      dup1\n      tag_185\n      swap1\n      tag_137\n      jump\t// in\n    tag_185:\n      swap3\n      pop\n      pop\n        /* \"StakingContract.sol\":6942:7129  if (stakers[_user].stakedTokens[j].staker != (address(0))) {... */\n    tag_179:\n        /* \"StakingContract.sol\":6918:6921  j++ */\n      dup1\n      tag_186\n      dup2\n      tag_137\n      jump\t// in\n    tag_186:\n      swap2\n      pop\n      pop\n        /* \"StakingContract.sol\":6858:7144  for (uint256 j = 0; j < stakers[_user].stakedTokens.length; j++) {... */\n      jump(tag_173)\n    tag_174:\n      pop\n        /* \"StakingContract.sol\":7167:7180  _stakedTokens */\n      swap1\n      swap4\n        /* \"StakingContract.sol\":6383:7310  function getStakedTokens(address _user)... */\n      swap3\n      pop\n      pop\n      pop\n      jump\t// out\n        /* \"StakingContract.sol\":6548:7303  if (stakers[_user].amountStaked > 0) {... */\n    tag_165:\n        /* \"StakingContract.sol\":7271:7291  new StakedToken[](0) */\n      0x40\n      dup1\n      mload\n        /* \"StakingContract.sol\":7289:7290  0 */\n      0x00\n        /* \"StakingContract.sol\":7271:7291  new StakedToken[](0) */\n      dup1\n      dup3\n      mstore\n      0x20\n      dup3\n      add\n      swap1\n      swap3\n      mstore\n      swap1\n      jump(tag_190)\n    tag_191:\n      0x40\n      dup1\n      mload\n      dup1\n      dup3\n      add\n      swap1\n      swap2\n      mstore\n      0x00\n      dup1\n      dup3\n      mstore\n      0x20\n      dup3\n      add\n      mstore\n      dup2\n      mstore\n      0x20\n      add\n      swap1\n      0x01\n      swap1\n      sub\n      swap1\n      dup2\n      tag_191\n      jumpi\n      swap1\n      pop\n    tag_190:\n      pop\n        /* \"StakingContract.sol\":7264:7291  return new StakedToken[](0) */\n      swap3\n        /* \"StakingContract.sol\":6383:7310  function getStakedTokens(address _user)... */\n      swap2\n      pop\n      pop\n      jump\t// out\n        /* \"@openzeppelin/contracts/access/Ownable.sol\":1831:1932   */\n    tag_52:\n        /* \"@openzeppelin/contracts/access/Ownable.sol\":1094:1107   */\n      tag_194\n        /* \"@openzeppelin/contracts/access/Ownable.sol\":1094:1105   */\n      tag_100\n        /* \"@openzeppelin/contracts/access/Ownable.sol\":1094:1107   */\n      jump\t// in\n    tag_194:\n        /* \"@openzeppelin/contracts/access/Ownable.sol\":1895:1925   */\n      tag_196\n        /* \"@openzeppelin/contracts/access/Ownable.sol\":1922:1923   */\n      0x00\n        /* \"@openzeppelin/contracts/access/Ownable.sol\":1895:1913   */\n      tag_197\n        /* \"@openzeppelin/contracts/access/Ownable.sol\":1895:1925   */\n      jump\t// in\n    tag_196:\n        /* \"@openzeppelin/contracts/access/Ownable.sol\":1831:1932   */\n      jump\t// out\n        /* \"StakingContract.sol\":2098:3349  function stake(uint256 _tokenId) external nonReentrant {... */\n    tag_72:\n        /* \"@openzeppelin/contracts/security/ReentrancyGuard.sol\":2261:2282   */\n      tag_200\n        /* \"@openzeppelin/contracts/security/ReentrancyGuard.sol\":2261:2280   */\n      tag_113\n        /* \"@openzeppelin/contracts/security/ReentrancyGuard.sol\":2261:2282   */\n      jump\t// in\n    tag_200:\n        /* \"StakingContract.sol\":2267:2277  msg.sender */\n      caller\n        /* \"StakingContract.sol\":2294:2295  0 */\n      0x00\n        /* \"StakingContract.sol\":2259:2278  stakers[msg.sender] */\n      swap1\n      dup2\n      mstore\n        /* \"StakingContract.sol\":2259:2266  stakers */\n      0x05\n        /* \"StakingContract.sol\":2259:2278  stakers[msg.sender] */\n      0x20\n      mstore\n      0x40\n      swap1\n      keccak256\n        /* \"StakingContract.sol\":2259:2291  stakers[msg.sender].amountStaked */\n      sload\n        /* \"StakingContract.sol\":2259:2295  stakers[msg.sender].amountStaked > 0 */\n      iszero\n        /* \"StakingContract.sol\":2255:2432  if (stakers[msg.sender].amountStaked > 0) {... */\n      tag_202\n      jumpi\n        /* \"StakingContract.sol\":2312:2327  uint256 rewards */\n      0x00\n        /* \"StakingContract.sol\":2330:2358  calculateRewards(msg.sender) */\n      tag_203\n        /* \"StakingContract.sol\":2347:2357  msg.sender */\n      caller\n        /* \"StakingContract.sol\":2330:2346  calculateRewards */\n      tag_121\n        /* \"StakingContract.sol\":2330:2358  calculateRewards(msg.sender) */\n      jump\t// in\n    tag_203:\n        /* \"StakingContract.sol\":2381:2391  msg.sender */\n      caller\n        /* \"StakingContract.sol\":2373:2392  stakers[msg.sender] */\n      0x00\n      swap1\n      dup2\n      mstore\n        /* \"StakingContract.sol\":2373:2380  stakers */\n      0x05\n        /* \"StakingContract.sol\":2373:2392  stakers[msg.sender] */\n      0x20\n      mstore\n      0x40\n      dup2\n      keccak256\n        /* \"StakingContract.sol\":2373:2409  stakers[msg.sender].unclaimedRewards */\n      0x03\n      add\n        /* \"StakingContract.sol\":2373:2420  stakers[msg.sender].unclaimedRewards += rewards */\n      dup1\n      sload\n        /* \"StakingContract.sol\":2312:2358  uint256 rewards = calculateRewards(msg.sender) */\n      swap3\n      swap4\n      pop\n      dup4\n      swap3\n        /* \"StakingContract.sol\":2373:2409  stakers[msg.sender].unclaimedRewards */\n      swap1\n      swap2\n        /* \"StakingContract.sol\":2373:2392  stakers[msg.sender] */\n      swap1\n        /* \"StakingContract.sol\":2373:2420  stakers[msg.sender].unclaimedRewards += rewards */\n      tag_204\n      swap1\n        /* \"StakingContract.sol\":2312:2358  uint256 rewards = calculateRewards(msg.sender) */\n      dup5\n      swap1\n        /* \"StakingContract.sol\":2373:2420  stakers[msg.sender].unclaimedRewards += rewards */\n      tag_123\n      jump\t// in\n    tag_204:\n      swap1\n      swap2\n      sstore\n      pop\n      pop\n      pop\n        /* \"StakingContract.sol\":2255:2432  if (stakers[msg.sender].amountStaked > 0) {... */\n    tag_202:\n        /* \"StakingContract.sol\":2529:2560  nftCollection.ownerOf(_tokenId) */\n      mload(0x40)\n      shl(0xe1, 0x31a9108f)\n      dup2\n      mstore\n      0x04\n      dup2\n      add\n        /* \"#utility.yul\":3210:3235   */\n      dup3\n      swap1\n      mstore\n        /* \"StakingContract.sol\":2564:2574  msg.sender */\n      caller\n      swap1\n      sub(shl(0xa0, 0x01), 0x01)\n        /* \"StakingContract.sol\":2529:2542  nftCollection */\n      immutable(\"0x731dc163f73d31d8c68f9917ce4ff967753939f70432973c04fd2c2a48148607\")\n        /* \"StakingContract.sol\":2529:2550  nftCollection.ownerOf */\n      and\n      swap1\n      0x6352211e\n      swap1\n        /* \"#utility.yul\":3183:3201   */\n      0x24\n      add\n        /* \"StakingContract.sol\":2529:2560  nftCollection.ownerOf(_tokenId) */\n      0x20\n      mload(0x40)\n      dup1\n      dup4\n      sub\n      dup2\n      dup7\n      gas\n      staticcall\n      iszero\n      dup1\n      iszero\n      tag_207\n      jumpi\n      returndatasize\n      0x00\n      dup1\n      returndatacopy\n      revert(0x00, returndatasize)\n    tag_207:\n      pop\n      pop\n      pop\n      pop\n      mload(0x40)\n      returndatasize\n      not(0x1f)\n      0x1f\n      dup3\n      add\n      and\n      dup3\n      add\n      dup1\n      0x40\n      mstore\n      pop\n      dup2\n      add\n      swap1\n      tag_208\n      swap2\n      swap1\n      tag_209\n      jump\t// in\n    tag_208:\n      sub(shl(0xa0, 0x01), 0x01)\n        /* \"StakingContract.sol\":2529:2574  nftCollection.ownerOf(_tokenId) == msg.sender */\n      and\n      eq\n        /* \"StakingContract.sol\":2507:2627  require(... */\n      tag_210\n      jumpi\n      mload(0x40)\n      shl(0xe5, 0x461bcd)\n      dup2\n      mstore\n        /* \"#utility.yul\":6532:6534   */\n      0x20\n        /* \"StakingContract.sol\":2507:2627  require(... */\n      0x04\n      dup3\n      add\n        /* \"#utility.yul\":6514:6535   */\n      mstore\n        /* \"#utility.yul\":6571:6573   */\n      0x19\n        /* \"#utility.yul\":6551:6569   */\n      0x24\n      dup3\n      add\n        /* \"#utility.yul\":6544:6574   */\n      mstore\n        /* \"#utility.yul\":6610:6637   */\n      0x596f7520646f6e2774206f776e207468697320746f6b656e2100000000000000\n        /* \"#utility.yul\":6590:6608   */\n      0x44\n      dup3\n      add\n        /* \"#utility.yul\":6583:6638   */\n      mstore\n        /* \"#utility.yul\":6655:6673   */\n      0x64\n      add\n        /* \"StakingContract.sol\":2507:2627  require(... */\n      tag_109\n        /* \"#utility.yul\":6330:6679   */\n      jump\n        /* \"StakingContract.sol\":2507:2627  require(... */\n    tag_210:\n        /* \"StakingContract.sol\":2709:2772  nftCollection.transferFrom(msg.sender, address(this), _tokenId) */\n      mload(0x40)\n      shl(0xe0, 0x23b872dd)\n      dup2\n      mstore\n        /* \"StakingContract.sol\":2736:2746  msg.sender */\n      caller\n        /* \"StakingContract.sol\":2709:2772  nftCollection.transferFrom(msg.sender, address(this), _tokenId) */\n      0x04\n      dup3\n      add\n        /* \"#utility.yul\":5096:5130   */\n      mstore\n        /* \"StakingContract.sol\":2756:2760  this */\n      address\n        /* \"#utility.yul\":5146:5164   */\n      0x24\n      dup3\n      add\n        /* \"#utility.yul\":5139:5182   */\n      mstore\n        /* \"#utility.yul\":5198:5216   */\n      0x44\n      dup2\n      add\n        /* \"#utility.yul\":5191:5225   */\n      dup3\n      swap1\n      mstore\n        /* \"StakingContract.sol\":2709:2722  nftCollection */\n      immutable(\"0x731dc163f73d31d8c68f9917ce4ff967753939f70432973c04fd2c2a48148607\")\n      sub(shl(0xa0, 0x01), 0x01)\n        /* \"StakingContract.sol\":2709:2735  nftCollection.transferFrom */\n      and\n      swap1\n      0x23b872dd\n      swap1\n        /* \"#utility.yul\":5008:5026   */\n      0x64\n      add\n        /* \"StakingContract.sol\":2709:2772  nftCollection.transferFrom(msg.sender, address(this), _tokenId) */\n      0x00\n      mload(0x40)\n      dup1\n      dup4\n      sub\n      dup2\n      0x00\n      dup8\n      dup1\n      extcodesize\n      iszero\n      dup1\n      iszero\n      tag_214\n      jumpi\n      0x00\n      dup1\n      revert\n    tag_214:\n      pop\n      gas\n      call\n      iszero\n      dup1\n      iszero\n      tag_216\n      jumpi\n      returndatasize\n      0x00\n      dup1\n      returndatacopy\n      revert(0x00, returndatasize)\n    tag_216:\n      pop\n      pop\n        /* \"StakingContract.sol\":2849:2882  StakedToken(msg.sender, _tokenId) */\n      0x40\n      dup1\n      mload\n      dup1\n      dup3\n      add\n      dup3\n      mstore\n        /* \"StakingContract.sol\":2861:2871  msg.sender */\n      caller\n        /* \"StakingContract.sol\":2849:2882  StakedToken(msg.sender, _tokenId) */\n      dup1\n      dup3\n      mstore\n      0x20\n      dup1\n      dup4\n      add\n      dup8\n      dup2\n      mstore\n      0x00\n        /* \"StakingContract.sol\":2947:2966  stakers[msg.sender] */\n      dup4\n      dup2\n      mstore\n        /* \"StakingContract.sol\":2947:2954  stakers */\n      0x05\n        /* \"StakingContract.sol\":2947:2966  stakers[msg.sender] */\n      dup4\n      mstore\n      swap5\n      dup6\n      keccak256\n        /* \"StakingContract.sol\":2947:2979  stakers[msg.sender].stakedTokens */\n      0x01\n      dup1\n      dup3\n      add\n        /* \"StakingContract.sol\":2947:2997  stakers[msg.sender].stakedTokens.push(stakedToken) */\n      dup1\n      sload\n      dup1\n      dup4\n      add\n      dup3\n      sstore\n      swap1\n      dup9\n      mstore\n      swap4\n      dup8\n      keccak256\n      dup7\n      mload\n      0x02\n      swap1\n      swap6\n      mul\n      add\n      dup1\n      sload\n      not(sub(shl(0xa0, 0x01), 0x01))\n      and\n      sub(shl(0xa0, 0x01), 0x01)\n      swap1\n      swap6\n      and\n      swap5\n      swap1\n      swap5\n      or\n      dup5\n      sstore\n      swap2\n      mload\n      swap3\n      swap1\n      swap2\n      add\n      swap2\n      swap1\n      swap2\n      sstore\n        /* \"StakingContract.sol\":3066:3085  stakers[msg.sender] */\n      swap1\n      dup4\n      mstore\n        /* \"StakingContract.sol\":3066:3100  stakers[msg.sender].amountStaked++ */\n      dup1\n      sload\n        /* \"StakingContract.sol\":2849:2882  StakedToken(msg.sender, _tokenId) */\n      swap2\n      swap5\n      pop\n        /* \"StakingContract.sol\":3066:3100  stakers[msg.sender].amountStaked++ */\n      swap1\n      swap3\n      pop\n        /* \"StakingContract.sol\":2947:2966  stakers[msg.sender] */\n      swap1\n        /* \"StakingContract.sol\":3066:3100  stakers[msg.sender].amountStaked++ */\n      tag_218\n      dup4\n      tag_137\n      jump\t// in\n    tag_218:\n      swap1\n      swap2\n      sstore\n      pop\n      pop\n      pop\n        /* \"StakingContract.sol\":3183:3206  stakerAddress[_tokenId] */\n      0x00\n      dup2\n      dup2\n      mstore\n        /* \"StakingContract.sol\":3183:3196  stakerAddress */\n      0x06\n        /* \"StakingContract.sol\":3183:3206  stakerAddress[_tokenId] */\n      0x20\n      swap1\n      dup2\n      mstore\n      0x40\n      dup1\n      dup4\n      keccak256\n        /* \"StakingContract.sol\":3183:3219  stakerAddress[_tokenId] = msg.sender */\n      dup1\n      sload\n      not(sub(shl(0xa0, 0x01), 0x01))\n      and\n        /* \"StakingContract.sol\":3209:3219  msg.sender */\n      caller\n        /* \"StakingContract.sol\":3183:3219  stakerAddress[_tokenId] = msg.sender */\n      swap1\n      dup2\n      or\n      swap1\n      swap2\n      sstore\n        /* \"StakingContract.sol\":3287:3306  stakers[msg.sender] */\n      dup4\n      mstore\n        /* \"StakingContract.sol\":3287:3294  stakers */\n      0x05\n        /* \"StakingContract.sol\":3287:3306  stakers[msg.sender] */\n      swap1\n      swap2\n      mstore\n      swap1\n      keccak256\n        /* \"StakingContract.sol\":3326:3341  block.timestamp */\n      timestamp\n        /* \"StakingContract.sol\":3287:3323  stakers[msg.sender].timeOfLastUpdate */\n      0x02\n      swap1\n      swap2\n      add\n        /* \"StakingContract.sol\":3287:3341  stakers[msg.sender].timeOfLastUpdate = block.timestamp */\n      sstore\n        /* \"@openzeppelin/contracts/security/ReentrancyGuard.sol\":2303:2323   */\n      tag_148\n        /* \"@openzeppelin/contracts/security/ReentrancyGuard.sol\":1716:1717   */\n      0x01\n        /* \"@openzeppelin/contracts/security/ReentrancyGuard.sol\":2809:2816   */\n      0x00\n        /* \"@openzeppelin/contracts/security/ReentrancyGuard.sol\":2809:2831   */\n      sstore\n        /* \"@openzeppelin/contracts/security/ReentrancyGuard.sol\":2629:2838   */\n      jump\n        /* \"StakingContract.sol\":8289:8488  function emergencyWithdrawAll() external payable onlyOwner {... */\n    tag_79:\n        /* \"@openzeppelin/contracts/access/Ownable.sol\":1094:1107   */\n      tag_221\n        /* \"@openzeppelin/contracts/access/Ownable.sol\":1094:1105   */\n      tag_100\n        /* \"@openzeppelin/contracts/access/Ownable.sol\":1094:1107   */\n      jump\t// in\n    tag_221:\n        /* \"StakingContract.sol\":8360:8372  bool success */\n      0x00\n        /* \"StakingContract.sol\":8386:8393  owner() */\n      tag_223\n        /* \"@openzeppelin/contracts/access/Ownable.sol\":1273:1279   */\n      and(sub(shl(0xa0, 0x01), 0x01), sload(0x01))\n      swap1\n        /* \"@openzeppelin/contracts/access/Ownable.sol\":1201:1286   */\n      jump\n        /* \"StakingContract.sol\":8386:8393  owner() */\n    tag_223:\n      sub(shl(0xa0, 0x01), 0x01)\n        /* \"StakingContract.sol\":8378:8399  payable(owner()).call */\n      and\n        /* \"StakingContract.sol\":8407:8428  address(this).balance */\n      selfbalance\n        /* \"StakingContract.sol\":8378:8433  payable(owner()).call{value: address(this).balance}(\"\") */\n      mload(0x40)\n      0x00\n      mload(0x40)\n      dup1\n      dup4\n      sub\n      dup2\n      dup6\n      dup8\n      gas\n      call\n      swap3\n      pop\n      pop\n      pop\n      returndatasize\n      dup1\n      0x00\n      dup2\n      eq\n      tag_227\n      jumpi\n      mload(0x40)\n      swap2\n      pop\n      and(add(returndatasize, 0x3f), not(0x1f))\n      dup3\n      add\n      0x40\n      mstore\n      returndatasize\n      dup3\n      mstore\n      returndatasize\n      0x00\n      0x20\n      dup5\n      add\n      returndatacopy\n      jump(tag_226)\n    tag_227:\n      0x60\n      swap2\n      pop\n    tag_226:\n      pop\n        /* \"StakingContract.sol\":8359:8433  (bool success, ) = payable(owner()).call{value: address(this).balance}(\"\") */\n      pop\n      swap1\n      pop\n        /* \"StakingContract.sol\":8452:8459  success */\n      dup1\n        /* \"StakingContract.sol\":8444:8480  require(success, \"Transfer failed!\") */\n      tag_148\n      jumpi\n      mload(0x40)\n      shl(0xe5, 0x461bcd)\n      dup2\n      mstore\n        /* \"#utility.yul\":3658:3660   */\n      0x20\n        /* \"StakingContract.sol\":8444:8480  require(success, \"Transfer failed!\") */\n      0x04\n      dup3\n      add\n        /* \"#utility.yul\":3640:3661   */\n      mstore\n        /* \"#utility.yul\":3697:3699   */\n      0x10\n        /* \"#utility.yul\":3677:3695   */\n      0x24\n      dup3\n      add\n        /* \"#utility.yul\":3670:3700   */\n      mstore\n      shl(0x80, 0x5472616e73666572206661696c656421)\n        /* \"#utility.yul\":3716:3734   */\n      0x44\n      dup3\n      add\n        /* \"#utility.yul\":3709:3755   */\n      mstore\n        /* \"#utility.yul\":3772:3790   */\n      0x64\n      add\n        /* \"StakingContract.sol\":8444:8480  require(success, \"Transfer failed!\") */\n      tag_109\n        /* \"#utility.yul\":3456:3796   */\n      jump\n        /* \"@openzeppelin/contracts/access/Ownable.sol\":2081:2279   */\n    tag_91:\n        /* \"@openzeppelin/contracts/access/Ownable.sol\":1094:1107   */\n      tag_232\n        /* \"@openzeppelin/contracts/access/Ownable.sol\":1094:1105   */\n      tag_100\n        /* \"@openzeppelin/contracts/access/Ownable.sol\":1094:1107   */\n      jump\t// in\n    tag_232:\n      sub(shl(0xa0, 0x01), 0x01)\n        /* \"@openzeppelin/contracts/access/Ownable.sol\":2169:2191   */\n      dup2\n      and\n        /* \"@openzeppelin/contracts/access/Ownable.sol\":2161:2234   */\n      tag_234\n      jumpi\n      mload(0x40)\n      shl(0xe5, 0x461bcd)\n      dup2\n      mstore\n        /* \"#utility.yul\":6886:6888   */\n      0x20\n        /* \"@openzeppelin/contracts/access/Ownable.sol\":2161:2234   */\n      0x04\n      dup3\n      add\n        /* \"#utility.yul\":6868:6889   */\n      mstore\n        /* \"#utility.yul\":6925:6927   */\n      0x26\n        /* \"#utility.yul\":6905:6923   */\n      0x24\n      dup3\n      add\n        /* \"#utility.yul\":6898:6928   */\n      mstore\n        /* \"#utility.yul\":6964:6998   */\n      0x4f776e61626c653a206e6577206f776e657220697320746865207a65726f2061\n        /* \"#utility.yul\":6944:6962   */\n      0x44\n      dup3\n      add\n        /* \"#utility.yul\":6937:6999   */\n      mstore\n        /* \"#utility.yul\":7035:7043   */\n      0x6464726573730000000000000000000000000000000000000000000000000000\n        /* \"#utility.yul\":7015:7033   */\n      0x64\n      dup3\n      add\n        /* \"#utility.yul\":7008:7044   */\n      mstore\n        /* \"#utility.yul\":7061:7080   */\n      0x84\n      add\n        /* \"@openzeppelin/contracts/access/Ownable.sol\":2161:2234   */\n      tag_109\n        /* \"#utility.yul\":6684:7086   */\n      jump\n        /* \"@openzeppelin/contracts/access/Ownable.sol\":2161:2234   */\n    tag_234:\n        /* \"@openzeppelin/contracts/access/Ownable.sol\":2244:2272   */\n      tag_148\n        /* \"@openzeppelin/contracts/access/Ownable.sol\":2263:2271   */\n      dup2\n        /* \"@openzeppelin/contracts/access/Ownable.sol\":2244:2262   */\n      tag_197\n        /* \"@openzeppelin/contracts/access/Ownable.sol\":2244:2272   */\n      jump\t// in\n        /* \"StakingContract.sol\":6166:6375  function availableRewards(address _staker) public view returns (uint256) {... */\n    tag_95:\n      sub(shl(0xa0, 0x01), 0x01)\n        /* \"StakingContract.sol\":6309:6325  stakers[_staker] */\n      dup2\n      and\n        /* \"StakingContract.sol\":6230:6237  uint256 */\n      0x00\n        /* \"StakingContract.sol\":6309:6325  stakers[_staker] */\n      swap1\n      dup2\n      mstore\n        /* \"StakingContract.sol\":6309:6316  stakers */\n      0x05\n        /* \"StakingContract.sol\":6309:6325  stakers[_staker] */\n      0x20\n      mstore\n      0x40\n      dup2\n      keccak256\n        /* \"StakingContract.sol\":6309:6342  stakers[_staker].unclaimedRewards */\n      0x03\n      add\n      sload\n        /* \"StakingContract.sol\":6230:6237  uint256 */\n      dup2\n      swap1\n        /* \"StakingContract.sol\":6268:6293  calculateRewards(_staker) */\n      tag_239\n        /* \"StakingContract.sol\":6317:6324  _staker */\n      dup5\n        /* \"StakingContract.sol\":6268:6284  calculateRewards */\n      tag_121\n        /* \"StakingContract.sol\":6268:6293  calculateRewards(_staker) */\n      jump\t// in\n    tag_239:\n        /* \"StakingContract.sol\":6268:6342  calculateRewards(_staker) +... */\n      tag_240\n      swap2\n      swap1\n      tag_123\n      jump\t// in\n    tag_240:\n        /* \"StakingContract.sol\":6250:6342  uint256 rewards = calculateRewards(_staker) +... */\n      swap4\n        /* \"StakingContract.sol\":6166:6375  function availableRewards(address _staker) public view returns (uint256) {... */\n      swap3\n      pop\n      pop\n      pop\n      jump\t// out\n        /* \"@openzeppelin/contracts/access/Ownable.sol\":1359:1489   */\n    tag_100:\n        /* \"@openzeppelin/contracts/access/Ownable.sol\":1273:1279   */\n      and(sub(shl(0xa0, 0x01), 0x01), sload(0x01))\n        /* \"@openzeppelin/contracts/utils/Context.sol\":719:729   */\n      caller\n        /* \"@openzeppelin/contracts/access/Ownable.sol\":1422:1445   */\n      eq\n        /* \"@openzeppelin/contracts/access/Ownable.sol\":1414:1482   */\n      tag_196\n      jumpi\n      mload(0x40)\n      shl(0xe5, 0x461bcd)\n      dup2\n      mstore\n        /* \"#utility.yul\":7293:7295   */\n      0x20\n        /* \"@openzeppelin/contracts/access/Ownable.sol\":1414:1482   */\n      0x04\n      dup3\n      add\n        /* \"#utility.yul\":7275:7296   */\n      dup2\n      swap1\n      mstore\n        /* \"#utility.yul\":7312:7330   */\n      0x24\n      dup3\n      add\n        /* \"#utility.yul\":7305:7335   */\n      mstore\n        /* \"#utility.yul\":7371:7405   */\n      0x4f776e61626c653a2063616c6c6572206973206e6f7420746865206f776e6572\n        /* \"#utility.yul\":7351:7369   */\n      0x44\n      dup3\n      add\n        /* \"#utility.yul\":7344:7406   */\n      mstore\n        /* \"#utility.yul\":7423:7441   */\n      0x64\n      add\n        /* \"@openzeppelin/contracts/access/Ownable.sol\":1414:1482   */\n      tag_109\n        /* \"#utility.yul\":7091:7447   */\n      jump\n        /* \"@openzeppelin/contracts/security/ReentrancyGuard.sol\":2336:2623   */\n    tag_113:\n        /* \"@openzeppelin/contracts/security/ReentrancyGuard.sol\":1759:1760   */\n      0x02\n        /* \"@openzeppelin/contracts/security/ReentrancyGuard.sol\":2468:2475   */\n      sload(0x00)\n        /* \"@openzeppelin/contracts/security/ReentrancyGuard.sol\":2468:2487   */\n      sub\n        /* \"@openzeppelin/contracts/security/ReentrancyGuard.sol\":2460:2523   */\n      tag_249\n      jumpi\n      mload(0x40)\n      shl(0xe5, 0x461bcd)\n      dup2\n      mstore\n        /* \"#utility.yul\":7654:7656   */\n      0x20\n        /* \"@openzeppelin/contracts/security/ReentrancyGuard.sol\":2460:2523   */\n      0x04\n      dup3\n      add\n        /* \"#utility.yul\":7636:7657   */\n      mstore\n        /* \"#utility.yul\":7693:7695   */\n      0x1f\n        /* \"#utility.yul\":7673:7691   */\n      0x24\n      dup3\n      add\n        /* \"#utility.yul\":7666:7696   */\n      mstore\n        /* \"#utility.yul\":7732:7765   */\n      0x5265656e7472616e637947756172643a207265656e7472616e742063616c6c00\n        /* \"#utility.yul\":7712:7730   */\n      0x44\n      dup3\n      add\n        /* \"#utility.yul\":7705:7766   */\n      mstore\n        /* \"#utility.yul\":7783:7801   */\n      0x64\n      add\n        /* \"@openzeppelin/contracts/security/ReentrancyGuard.sol\":2460:2523   */\n      tag_109\n        /* \"#utility.yul\":7452:7807   */\n      jump\n        /* \"@openzeppelin/contracts/security/ReentrancyGuard.sol\":2460:2523   */\n    tag_249:\n        /* \"@openzeppelin/contracts/security/ReentrancyGuard.sol\":1759:1760   */\n      0x02\n        /* \"@openzeppelin/contracts/security/ReentrancyGuard.sol\":2598:2605   */\n      0x00\n        /* \"@openzeppelin/contracts/security/ReentrancyGuard.sol\":2598:2616   */\n      sstore\n        /* \"@openzeppelin/contracts/security/ReentrancyGuard.sol\":2336:2623   */\n      jump\t// out\n        /* \"StakingContract.sol\":7558:7858  function calculateRewards(address _staker)... */\n    tag_121:\n        /* \"StakingContract.sol\":7827:7841  rewardsPerHour */\n      sload(0x04)\n      sub(shl(0xa0, 0x01), 0x01)\n        /* \"StakingContract.sol\":7783:7799  stakers[_staker] */\n      dup3\n      and\n        /* \"StakingContract.sol\":7651:7667  uint256 _rewards */\n      0x00\n        /* \"StakingContract.sol\":7783:7799  stakers[_staker] */\n      swap1\n      dup2\n      mstore\n        /* \"StakingContract.sol\":7783:7790  stakers */\n      0x05\n        /* \"StakingContract.sol\":7783:7799  stakers[_staker] */\n      0x20\n      mstore\n      0x40\n      dup2\n      keccak256\n        /* \"StakingContract.sol\":7783:7812  stakers[_staker].amountStaked */\n      dup1\n      sload\n        /* \"StakingContract.sol\":7729:7762  stakers[_staker].timeOfLastUpdate */\n      0x02\n      swap1\n      swap2\n      add\n      sload\n        /* \"StakingContract.sol\":7651:7667  uint256 _rewards */\n      swap2\n      swap3\n        /* \"StakingContract.sol\":7845:7849  3600 */\n      0x0e10\n      swap3\n        /* \"StakingContract.sol\":7827:7841  rewardsPerHour */\n      swap1\n      swap2\n        /* \"StakingContract.sol\":7783:7812  stakers[_staker].amountStaked */\n      swap1\n        /* \"StakingContract.sol\":7711:7762  block.timestamp - stakers[_staker].timeOfLastUpdate */\n      tag_253\n      swap1\n        /* \"StakingContract.sol\":7711:7726  block.timestamp */\n      timestamp\n        /* \"StakingContract.sol\":7711:7762  block.timestamp - stakers[_staker].timeOfLastUpdate */\n      tag_254\n      jump\t// in\n    tag_253:\n        /* \"StakingContract.sol\":7710:7812  (block.timestamp - stakers[_staker].timeOfLastUpdate) *... */\n      tag_255\n      swap2\n      swap1\n      tag_256\n      jump\t// in\n    tag_255:\n        /* \"StakingContract.sol\":7694:7841  (... */\n      tag_257\n      swap2\n      swap1\n      tag_256\n      jump\t// in\n    tag_257:\n        /* \"StakingContract.sol\":7693:7849  ((... */\n      tag_258\n      swap2\n      swap1\n      tag_259\n      jump\t// in\n    tag_258:\n        /* \"StakingContract.sol\":7685:7850  return (((... */\n      swap3\n        /* \"StakingContract.sol\":7558:7858  function calculateRewards(address _staker)... */\n      swap2\n      pop\n      pop\n      jump\t// out\n        /* \"@openzeppelin/contracts/security/ReentrancyGuard.sol\":2629:2838   */\n    tag_149:\n        /* \"@openzeppelin/contracts/security/ReentrancyGuard.sol\":1716:1717   */\n      0x01\n        /* \"@openzeppelin/contracts/security/ReentrancyGuard.sol\":2809:2816   */\n      0x00\n        /* \"@openzeppelin/contracts/security/ReentrancyGuard.sol\":2809:2831   */\n      sstore\n        /* \"@openzeppelin/contracts/security/ReentrancyGuard.sol\":2629:2838   */\n      jump\t// out\n        /* \"@openzeppelin/contracts/token/ERC20/utils/SafeERC20.sol\":763:968   */\n    tag_160:\n        /* \"@openzeppelin/contracts/token/ERC20/utils/SafeERC20.sol\":902:960   */\n      0x40\n      dup1\n      mload\n      sub(shl(0xa0, 0x01), 0x01)\n        /* \"#utility.yul\":8529:8584   */\n      dup5\n      and\n        /* \"@openzeppelin/contracts/token/ERC20/utils/SafeERC20.sol\":902:960   */\n      0x24\n      dup3\n      add\n        /* \"#utility.yul\":8511:8585   */\n      mstore\n        /* \"#utility.yul\":8601:8619   */\n      0x44\n      dup1\n      dup3\n      add\n        /* \"#utility.yul\":8594:8628   */\n      dup5\n      swap1\n      mstore\n        /* \"@openzeppelin/contracts/token/ERC20/utils/SafeERC20.sol\":902:960   */\n      dup3\n      mload\n      dup1\n      dup4\n      sub\n      swap1\n      swap2\n      add\n      dup2\n      mstore\n        /* \"#utility.yul\":8484:8502   */\n      0x64\n      swap1\n      swap2\n      add\n        /* \"@openzeppelin/contracts/token/ERC20/utils/SafeERC20.sol\":902:960   */\n      swap1\n      swap2\n      mstore\n      0x20\n      dup2\n      add\n      dup1\n      mload\n      0xffffffffffffffffffffffffffffffffffffffffffffffffffffffff\n      and\n      shl(0xe0, 0xa9059cbb)\n      or\n      swap1\n      mstore\n        /* \"@openzeppelin/contracts/token/ERC20/utils/SafeERC20.sol\":875:961   */\n      tag_262\n      swap1\n        /* \"@openzeppelin/contracts/token/ERC20/utils/SafeERC20.sol\":895:900   */\n      dup5\n      swap1\n        /* \"@openzeppelin/contracts/token/ERC20/utils/SafeERC20.sol\":875:894   */\n      tag_265\n        /* \"@openzeppelin/contracts/token/ERC20/utils/SafeERC20.sol\":875:961   */\n      jump\t// in\n    tag_262:\n        /* \"@openzeppelin/contracts/token/ERC20/utils/SafeERC20.sol\":763:968   */\n      pop\n      pop\n      pop\n      jump\t// out\n        /* \"@openzeppelin/contracts/access/Ownable.sol\":2433:2620   */\n    tag_197:\n        /* \"@openzeppelin/contracts/access/Ownable.sol\":2525:2531   */\n      0x01\n      dup1\n      sload\n      sub(shl(0xa0, 0x01), 0x01)\n        /* \"@openzeppelin/contracts/access/Ownable.sol\":2541:2558   */\n      dup4\n      dup2\n      and\n      not(sub(shl(0xa0, 0x01), 0x01))\n      dup4\n      and\n      dup2\n      or\n      swap1\n      swap4\n      sstore\n        /* \"@openzeppelin/contracts/access/Ownable.sol\":2573:2613   */\n      mload(0x40)\n        /* \"@openzeppelin/contracts/access/Ownable.sol\":2525:2531   */\n      swap2\n      and\n      swap2\n        /* \"@openzeppelin/contracts/access/Ownable.sol\":2541:2558   */\n      swap1\n        /* \"@openzeppelin/contracts/access/Ownable.sol\":2525:2531   */\n      dup3\n      swap1\n        /* \"@openzeppelin/contracts/access/Ownable.sol\":2573:2613   */\n      0x8be0079c531659141344cd1fd0a4f28419497f9722a3daafe3b4186f6b6457e0\n      swap1\n        /* \"@openzeppelin/contracts/access/Ownable.sol\":2506:2522   */\n      0x00\n      swap1\n        /* \"@openzeppelin/contracts/access/Ownable.sol\":2573:2613   */\n      log3\n        /* \"@openzeppelin/contracts/access/Ownable.sol\":2496:2620   */\n      pop\n        /* \"@openzeppelin/contracts/access/Ownable.sol\":2433:2620   */\n      pop\n      jump\t// out\n        /* \"@openzeppelin/contracts/token/ERC20/utils/SafeERC20.sol\":3747:4453   */\n    tag_265:\n        /* \"@openzeppelin/contracts/token/ERC20/utils/SafeERC20.sol\":4166:4189   */\n      0x00\n        /* \"@openzeppelin/contracts/token/ERC20/utils/SafeERC20.sol\":4192:4261   */\n      tag_269\n        /* \"@openzeppelin/contracts/token/ERC20/utils/SafeERC20.sol\":4220:4224   */\n      dup3\n        /* \"@openzeppelin/contracts/token/ERC20/utils/SafeERC20.sol\":4192:4261   */\n      mload(0x40)\n      dup1\n      0x40\n      add\n      0x40\n      mstore\n      dup1\n      0x20\n      dup2\n      mstore\n      0x20\n      add\n      0x5361666545524332303a206c6f772d6c6576656c2063616c6c206661696c6564\n      dup2\n      mstore\n      pop\n        /* \"@openzeppelin/contracts/token/ERC20/utils/SafeERC20.sol\":4200:4205   */\n      dup6\n      sub(shl(0xa0, 0x01), 0x01)\n        /* \"@openzeppelin/contracts/token/ERC20/utils/SafeERC20.sol\":4192:4219   */\n      and\n      tag_270\n      swap1\n        /* \"@openzeppelin/contracts/token/ERC20/utils/SafeERC20.sol\":4192:4261   */\n      swap3\n      swap2\n      swap1\n      0xffffffff\n      and\n      jump\t// in\n    tag_269:\n        /* \"@openzeppelin/contracts/token/ERC20/utils/SafeERC20.sol\":4275:4292   */\n      dup1\n      mload\n        /* \"@openzeppelin/contracts/token/ERC20/utils/SafeERC20.sol\":4166:4261   */\n      swap1\n      swap2\n      pop\n        /* \"@openzeppelin/contracts/token/ERC20/utils/SafeERC20.sol\":4275:4296   */\n      iszero\n        /* \"@openzeppelin/contracts/token/ERC20/utils/SafeERC20.sol\":4271:4447   */\n      tag_262\n      jumpi\n        /* \"@openzeppelin/contracts/token/ERC20/utils/SafeERC20.sol\":4370:4380   */\n      dup1\n        /* \"@openzeppelin/contracts/token/ERC20/utils/SafeERC20.sol\":4359:4389   */\n      dup1\n      0x20\n      add\n      swap1\n      mload\n      dup2\n      add\n      swap1\n      tag_272\n      swap2\n      swap1\n      tag_273\n      jump\t// in\n    tag_272:\n        /* \"@openzeppelin/contracts/token/ERC20/utils/SafeERC20.sol\":4351:4436   */\n      tag_262\n      jumpi\n      mload(0x40)\n      shl(0xe5, 0x461bcd)\n      dup2\n      mstore\n        /* \"#utility.yul\":9091:9093   */\n      0x20\n        /* \"@openzeppelin/contracts/token/ERC20/utils/SafeERC20.sol\":4351:4436   */\n      0x04\n      dup3\n      add\n        /* \"#utility.yul\":9073:9094   */\n      mstore\n        /* \"#utility.yul\":9130:9132   */\n      0x2a\n        /* \"#utility.yul\":9110:9128   */\n      0x24\n      dup3\n      add\n        /* \"#utility.yul\":9103:9133   */\n      mstore\n        /* \"#utility.yul\":9169:9203   */\n      0x5361666545524332303a204552433230206f7065726174696f6e20646964206e\n        /* \"#utility.yul\":9149:9167   */\n      0x44\n      dup3\n      add\n        /* \"#utility.yul\":9142:9204   */\n      mstore\n        /* \"#utility.yul\":9240:9252   */\n      0x6f74207375636365656400000000000000000000000000000000000000000000\n        /* \"#utility.yul\":9220:9238   */\n      0x64\n      dup3\n      add\n        /* \"#utility.yul\":9213:9253   */\n      mstore\n        /* \"#utility.yul\":9270:9289   */\n      0x84\n      add\n        /* \"@openzeppelin/contracts/token/ERC20/utils/SafeERC20.sol\":4351:4436   */\n      tag_109\n        /* \"#utility.yul\":8889:9295   */\n      jump\n        /* \"@openzeppelin/contracts/utils/Address.sol\":3873:4096   */\n    tag_270:\n        /* \"@openzeppelin/contracts/utils/Address.sol\":4006:4018   */\n      0x60\n        /* \"@openzeppelin/contracts/utils/Address.sol\":4037:4089   */\n      tag_278\n        /* \"@openzeppelin/contracts/utils/Address.sol\":4059:4065   */\n      dup5\n        /* \"@openzeppelin/contracts/utils/Address.sol\":4067:4071   */\n      dup5\n        /* \"@openzeppelin/contracts/utils/Address.sol\":4073:4074   */\n      0x00\n        /* \"@openzeppelin/contracts/utils/Address.sol\":4076:4088   */\n      dup6\n        /* \"@openzeppelin/contracts/utils/Address.sol\":4037:4058   */\n      tag_279\n        /* \"@openzeppelin/contracts/utils/Address.sol\":4037:4089   */\n      jump\t// in\n    tag_278:\n        /* \"@openzeppelin/contracts/utils/Address.sol\":4030:4089   */\n      swap5\n        /* \"@openzeppelin/contracts/utils/Address.sol\":3873:4096   */\n      swap4\n      pop\n      pop\n      pop\n      pop\n      jump\t// out\n        /* \"@openzeppelin/contracts/utils/Address.sol\":4960:5406   */\n    tag_279:\n        /* \"@openzeppelin/contracts/utils/Address.sol\":5125:5137   */\n      0x60\n        /* \"@openzeppelin/contracts/utils/Address.sol\":5182:5187   */\n      dup3\n        /* \"@openzeppelin/contracts/utils/Address.sol\":5157:5178   */\n      selfbalance\n        /* \"@openzeppelin/contracts/utils/Address.sol\":5157:5187   */\n      lt\n      iszero\n        /* \"@openzeppelin/contracts/utils/Address.sol\":5149:5230   */\n      tag_281\n      jumpi\n      mload(0x40)\n      shl(0xe5, 0x461bcd)\n      dup2\n      mstore\n        /* \"#utility.yul\":9502:9504   */\n      0x20\n        /* \"@openzeppelin/contracts/utils/Address.sol\":5149:5230   */\n      0x04\n      dup3\n      add\n        /* \"#utility.yul\":9484:9505   */\n      mstore\n        /* \"#utility.yul\":9541:9543   */\n      0x26\n        /* \"#utility.yul\":9521:9539   */\n      0x24\n      dup3\n      add\n        /* \"#utility.yul\":9514:9544   */\n      mstore\n        /* \"#utility.yul\":9580:9614   */\n      0x416464726573733a20696e73756666696369656e742062616c616e636520666f\n        /* \"#utility.yul\":9560:9578   */\n      0x44\n      dup3\n      add\n        /* \"#utility.yul\":9553:9615   */\n      mstore\n        /* \"#utility.yul\":9651:9659   */\n      0x722063616c6c0000000000000000000000000000000000000000000000000000\n        /* \"#utility.yul\":9631:9649   */\n      0x64\n      dup3\n      add\n        /* \"#utility.yul\":9624:9660   */\n      mstore\n        /* \"#utility.yul\":9677:9696   */\n      0x84\n      add\n        /* \"@openzeppelin/contracts/utils/Address.sol\":5149:5230   */\n      tag_109\n        /* \"#utility.yul\":9300:9702   */\n      jump\n        /* \"@openzeppelin/contracts/utils/Address.sol\":5149:5230   */\n    tag_281:\n        /* \"@openzeppelin/contracts/utils/Address.sol\":5241:5253   */\n      0x00\n        /* \"@openzeppelin/contracts/utils/Address.sol\":5255:5278   */\n      dup1\n        /* \"@openzeppelin/contracts/utils/Address.sol\":5282:5288   */\n      dup7\n      sub(shl(0xa0, 0x01), 0x01)\n        /* \"@openzeppelin/contracts/utils/Address.sol\":5282:5293   */\n      and\n        /* \"@openzeppelin/contracts/utils/Address.sol\":5301:5306   */\n      dup6\n        /* \"@openzeppelin/contracts/utils/Address.sol\":5308:5312   */\n      dup8\n        /* \"@openzeppelin/contracts/utils/Address.sol\":5282:5313   */\n      mload(0x40)\n      tag_284\n      swap2\n      swap1\n      tag_285\n      jump\t// in\n    tag_284:\n      0x00\n      mload(0x40)\n      dup1\n      dup4\n      sub\n      dup2\n      dup6\n      dup8\n      gas\n      call\n      swap3\n      pop\n      pop\n      pop\n      returndatasize\n      dup1\n      0x00\n      dup2\n      eq\n      tag_288\n      jumpi\n      mload(0x40)\n      swap2\n      pop\n      and(add(returndatasize, 0x3f), not(0x1f))\n      dup3\n      add\n      0x40\n      mstore\n      returndatasize\n      dup3\n      mstore\n      returndatasize\n      0x00\n      0x20\n      dup5\n      add\n      returndatacopy\n      jump(tag_287)\n    tag_288:\n      0x60\n      swap2\n      pop\n    tag_287:\n      pop\n        /* \"@openzeppelin/contracts/utils/Address.sol\":5240:5313   */\n      swap2\n      pop\n      swap2\n      pop\n        /* \"@openzeppelin/contracts/utils/Address.sol\":5330:5399   */\n      tag_289\n        /* \"@openzeppelin/contracts/utils/Address.sol\":5357:5363   */\n      dup8\n        /* \"@openzeppelin/contracts/utils/Address.sol\":5365:5372   */\n      dup4\n        /* \"@openzeppelin/contracts/utils/Address.sol\":5374:5384   */\n      dup4\n        /* \"@openzeppelin/contracts/utils/Address.sol\":5386:5398   */\n      dup8\n        /* \"@openzeppelin/contracts/utils/Address.sol\":5330:5356   */\n      tag_290\n        /* \"@openzeppelin/contracts/utils/Address.sol\":5330:5399   */\n      jump\t// in\n    tag_289:\n        /* \"@openzeppelin/contracts/utils/Address.sol\":5323:5399   */\n      swap8\n        /* \"@openzeppelin/contracts/utils/Address.sol\":4960:5406   */\n      swap7\n      pop\n      pop\n      pop\n      pop\n      pop\n      pop\n      pop\n      jump\t// out\n        /* \"@openzeppelin/contracts/utils/Address.sol\":7466:8094   */\n    tag_290:\n        /* \"@openzeppelin/contracts/utils/Address.sol\":7646:7658   */\n      0x60\n        /* \"@openzeppelin/contracts/utils/Address.sol\":7674:7681   */\n      dup4\n        /* \"@openzeppelin/contracts/utils/Address.sol\":7670:8088   */\n      iszero\n      tag_292\n      jumpi\n        /* \"@openzeppelin/contracts/utils/Address.sol\":7701:7711   */\n      dup3\n        /* \"@openzeppelin/contracts/utils/Address.sol\":7701:7718   */\n      mload\n        /* \"@openzeppelin/contracts/utils/Address.sol\":7722:7723   */\n      0x00\n        /* \"@openzeppelin/contracts/utils/Address.sol\":7701:7723   */\n      sub\n        /* \"@openzeppelin/contracts/utils/Address.sol\":7697:7983   */\n      tag_296\n      jumpi\n      sub(shl(0xa0, 0x01), 0x01)\n        /* \"@openzeppelin/contracts/utils/Address.sol\":1465:1484   */\n      dup6\n      and\n      extcodesize\n        /* \"@openzeppelin/contracts/utils/Address.sol\":7908:7968   */\n      tag_296\n      jumpi\n      mload(0x40)\n      shl(0xe5, 0x461bcd)\n      dup2\n      mstore\n        /* \"#utility.yul\":10451:10453   */\n      0x20\n        /* \"@openzeppelin/contracts/utils/Address.sol\":7908:7968   */\n      0x04\n      dup3\n      add\n        /* \"#utility.yul\":10433:10454   */\n      mstore\n        /* \"#utility.yul\":10490:10492   */\n      0x1d\n        /* \"#utility.yul\":10470:10488   */\n      0x24\n      dup3\n      add\n        /* \"#utility.yul\":10463:10493   */\n      mstore\n        /* \"#utility.yul\":10529:10560   */\n      0x416464726573733a2063616c6c20746f206e6f6e2d636f6e7472616374000000\n        /* \"#utility.yul\":10509:10527   */\n      0x44\n      dup3\n      add\n        /* \"#utility.yul\":10502:10561   */\n      mstore\n        /* \"#utility.yul\":10578:10596   */\n      0x64\n      add\n        /* \"@openzeppelin/contracts/utils/Address.sol\":7908:7968   */\n      tag_109\n        /* \"#utility.yul\":10249:10602   */\n      jump\n        /* \"@openzeppelin/contracts/utils/Address.sol\":7908:7968   */\n    tag_296:\n      pop\n        /* \"@openzeppelin/contracts/utils/Address.sol\":8003:8013   */\n      dup2\n        /* \"@openzeppelin/contracts/utils/Address.sol\":7996:8013   */\n      jump(tag_278)\n        /* \"@openzeppelin/contracts/utils/Address.sol\":7670:8088   */\n    tag_292:\n        /* \"@openzeppelin/contracts/utils/Address.sol\":8044:8077   */\n      tag_278\n        /* \"@openzeppelin/contracts/utils/Address.sol\":8052:8062   */\n      dup4\n        /* \"@openzeppelin/contracts/utils/Address.sol\":8064:8076   */\n      dup4\n        /* \"@openzeppelin/contracts/utils/Address.sol\":8775:8792   */\n      dup2\n      mload\n        /* \"@openzeppelin/contracts/utils/Address.sol\":8775:8796   */\n      iszero\n        /* \"@openzeppelin/contracts/utils/Address.sol\":8771:9150   */\n      tag_304\n      jumpi\n        /* \"@openzeppelin/contracts/utils/Address.sol\":9003:9013   */\n      dup2\n        /* \"@openzeppelin/contracts/utils/Address.sol\":8997:9014   */\n      mload\n        /* \"@openzeppelin/contracts/utils/Address.sol\":9059:9074   */\n      dup1\n        /* \"@openzeppelin/contracts/utils/Address.sol\":9046:9056   */\n      dup4\n        /* \"@openzeppelin/contracts/utils/Address.sol\":9042:9044   */\n      0x20\n        /* \"@openzeppelin/contracts/utils/Address.sol\":9038:9057   */\n      add\n        /* \"@openzeppelin/contracts/utils/Address.sol\":9031:9075   */\n      revert\n        /* \"@openzeppelin/contracts/utils/Address.sol\":8771:9150   */\n    tag_304:\n        /* \"@openzeppelin/contracts/utils/Address.sol\":9126:9138   */\n      dup1\n        /* \"@openzeppelin/contracts/utils/Address.sol\":9119:9139   */\n      mload(0x40)\n      shl(0xe5, 0x461bcd)\n      dup2\n      mstore\n      0x04\n      add\n      tag_109\n      swap2\n      swap1\n      tag_307\n      jump\t// in\n        /* \"#utility.yul\":14:194   */\n    tag_25:\n        /* \"#utility.yul\":73:79   */\n      0x00\n        /* \"#utility.yul\":126:128   */\n      0x20\n        /* \"#utility.yul\":114:123   */\n      dup3\n        /* \"#utility.yul\":105:112   */\n      dup5\n        /* \"#utility.yul\":101:124   */\n      sub\n        /* \"#utility.yul\":97:129   */\n      slt\n        /* \"#utility.yul\":94:146   */\n      iszero\n      tag_314\n      jumpi\n        /* \"#utility.yul\":142:143   */\n      0x00\n        /* \"#utility.yul\":139:140   */\n      dup1\n        /* \"#utility.yul\":132:144   */\n      revert\n        /* \"#utility.yul\":94:146   */\n    tag_314:\n      pop\n        /* \"#utility.yul\":165:188   */\n      calldataload\n      swap2\n        /* \"#utility.yul\":14:194   */\n      swap1\n      pop\n      jump\t// out\n        /* \"#utility.yul\":199:317   */\n    tag_308:\n        /* \"#utility.yul\":285:290   */\n      dup1\n        /* \"#utility.yul\":278:291   */\n      iszero\n        /* \"#utility.yul\":271:292   */\n      iszero\n        /* \"#utility.yul\":264:269   */\n      dup2\n        /* \"#utility.yul\":261:293   */\n      eq\n        /* \"#utility.yul\":251:311   */\n      tag_148\n      jumpi\n        /* \"#utility.yul\":307:308   */\n      0x00\n        /* \"#utility.yul\":304:305   */\n      dup1\n        /* \"#utility.yul\":297:309   */\n      revert\n        /* \"#utility.yul\":322:563   */\n    tag_36:\n        /* \"#utility.yul\":378:384   */\n      0x00\n        /* \"#utility.yul\":431:433   */\n      0x20\n        /* \"#utility.yul\":419:428   */\n      dup3\n        /* \"#utility.yul\":410:417   */\n      dup5\n        /* \"#utility.yul\":406:429   */\n      sub\n        /* \"#utility.yul\":402:434   */\n      slt\n        /* \"#utility.yul\":399:451   */\n      iszero\n      tag_318\n      jumpi\n        /* \"#utility.yul\":447:448   */\n      0x00\n        /* \"#utility.yul\":444:445   */\n      dup1\n        /* \"#utility.yul\":437:449   */\n      revert\n        /* \"#utility.yul\":399:451   */\n    tag_318:\n        /* \"#utility.yul\":486:495   */\n      dup2\n        /* \"#utility.yul\":473:496   */\n      calldataload\n        /* \"#utility.yul\":505:533   */\n      tag_240\n        /* \"#utility.yul\":527:532   */\n      dup2\n        /* \"#utility.yul\":505:533   */\n      tag_308\n      jump\t// in\n        /* \"#utility.yul\":568:722   */\n    tag_309:\n      sub(shl(0xa0, 0x01), 0x01)\n        /* \"#utility.yul\":647:652   */\n      dup2\n        /* \"#utility.yul\":643:697   */\n      and\n        /* \"#utility.yul\":636:641   */\n      dup2\n        /* \"#utility.yul\":633:698   */\n      eq\n        /* \"#utility.yul\":623:716   */\n      tag_148\n      jumpi\n        /* \"#utility.yul\":712:713   */\n      0x00\n        /* \"#utility.yul\":709:710   */\n      dup1\n        /* \"#utility.yul\":702:714   */\n      revert\n        /* \"#utility.yul\":727:974   */\n    tag_41:\n        /* \"#utility.yul\":786:792   */\n      0x00\n        /* \"#utility.yul\":839:841   */\n      0x20\n        /* \"#utility.yul\":827:836   */\n      dup3\n        /* \"#utility.yul\":818:825   */\n      dup5\n        /* \"#utility.yul\":814:837   */\n      sub\n        /* \"#utility.yul\":810:842   */\n      slt\n        /* \"#utility.yul\":807:859   */\n      iszero\n      tag_323\n      jumpi\n        /* \"#utility.yul\":855:856   */\n      0x00\n        /* \"#utility.yul\":852:853   */\n      dup1\n        /* \"#utility.yul\":845:857   */\n      revert\n        /* \"#utility.yul\":807:859   */\n    tag_323:\n        /* \"#utility.yul\":894:903   */\n      dup2\n        /* \"#utility.yul\":881:904   */\n      calldataload\n        /* \"#utility.yul\":913:944   */\n      tag_240\n        /* \"#utility.yul\":938:943   */\n      dup2\n        /* \"#utility.yul\":913:944   */\n      tag_309\n      jump\t// in\n        /* \"#utility.yul\":979:1820   */\n    tag_44:\n        /* \"#utility.yul\":1204:1206   */\n      0x20\n        /* \"#utility.yul\":1256:1277   */\n      dup1\n      dup3\n      mstore\n        /* \"#utility.yul\":1326:1339   */\n      dup3\n      mload\n        /* \"#utility.yul\":1229:1247   */\n      dup3\n      dup3\n      add\n        /* \"#utility.yul\":1348:1370   */\n      dup2\n      swap1\n      mstore\n        /* \"#utility.yul\":1175:1179   */\n      0x00\n      swap2\n        /* \"#utility.yul\":1204:1206   */\n      swap1\n        /* \"#utility.yul\":1389:1391   */\n      0x40\n      swap1\n        /* \"#utility.yul\":1407:1425   */\n      dup2\n      dup6\n      add\n      swap1\n        /* \"#utility.yul\":1448:1463   */\n      dup7\n      dup5\n      add\n        /* \"#utility.yul\":1175:1179   */\n      dup6\n        /* \"#utility.yul\":1491:1794   */\n    tag_326:\n        /* \"#utility.yul\":1505:1511   */\n      dup3\n        /* \"#utility.yul\":1502:1503   */\n      dup2\n        /* \"#utility.yul\":1499:1512   */\n      lt\n        /* \"#utility.yul\":1491:1794   */\n      iszero\n      tag_328\n      jumpi\n        /* \"#utility.yul\":1564:1577   */\n      dup2\n      mload\n        /* \"#utility.yul\":1606:1615   */\n      dup1\n      mload\n      sub(shl(0xa0, 0x01), 0x01)\n        /* \"#utility.yul\":1602:1660   */\n      and\n        /* \"#utility.yul\":1590:1661   */\n      dup6\n      mstore\n        /* \"#utility.yul\":1701:1712   */\n      dup7\n      add\n        /* \"#utility.yul\":1695:1713   */\n      mload\n        /* \"#utility.yul\":1681:1693   */\n      dup7\n      dup6\n      add\n        /* \"#utility.yul\":1674:1714   */\n      mstore\n        /* \"#utility.yul\":1734:1746   */\n      swap3\n      dup5\n      add\n      swap3\n        /* \"#utility.yul\":1769:1784   */\n      swap1\n      dup6\n      add\n      swap1\n        /* \"#utility.yul\":1527:1528   */\n      0x01\n        /* \"#utility.yul\":1520:1529   */\n      add\n        /* \"#utility.yul\":1491:1794   */\n      jump(tag_326)\n    tag_328:\n      pop\n        /* \"#utility.yul\":1811:1814   */\n      swap2\n      swap8\n        /* \"#utility.yul\":979:1820   */\n      swap7\n      pop\n      pop\n      pop\n      pop\n      pop\n      pop\n      pop\n      jump\t// out\n        /* \"#utility.yul\":4155:4282   */\n    tag_310:\n        /* \"#utility.yul\":4216:4226   */\n      0x4e487b71\n        /* \"#utility.yul\":4211:4214   */\n      0xe0\n        /* \"#utility.yul\":4207:4227   */\n      shl\n        /* \"#utility.yul\":4204:4205   */\n      0x00\n        /* \"#utility.yul\":4197:4228   */\n      mstore\n        /* \"#utility.yul\":4247:4251   */\n      0x11\n        /* \"#utility.yul\":4244:4245   */\n      0x04\n        /* \"#utility.yul\":4237:4252   */\n      mstore\n        /* \"#utility.yul\":4271:4275   */\n      0x24\n        /* \"#utility.yul\":4268:4269   */\n      0x00\n        /* \"#utility.yul\":4261:4276   */\n      revert\n        /* \"#utility.yul\":4287:4415   */\n    tag_123:\n        /* \"#utility.yul\":4327:4330   */\n      0x00\n        /* \"#utility.yul\":4358:4359   */\n      dup3\n        /* \"#utility.yul\":4354:4360   */\n      not\n        /* \"#utility.yul\":4351:4352   */\n      dup3\n        /* \"#utility.yul\":4348:4361   */\n      gt\n        /* \"#utility.yul\":4345:4384   */\n      iszero\n      tag_341\n      jumpi\n        /* \"#utility.yul\":4364:4382   */\n      tag_341\n      tag_310\n      jump\t// in\n    tag_341:\n      pop\n        /* \"#utility.yul\":4400:4409   */\n      add\n      swap1\n        /* \"#utility.yul\":4287:4415   */\n      jump\t// out\n        /* \"#utility.yul\":4420:4547   */\n    tag_129:\n        /* \"#utility.yul\":4481:4491   */\n      0x4e487b71\n        /* \"#utility.yul\":4476:4479   */\n      0xe0\n        /* \"#utility.yul\":4472:4492   */\n      shl\n        /* \"#utility.yul\":4469:4470   */\n      0x00\n        /* \"#utility.yul\":4462:4493   */\n      mstore\n        /* \"#utility.yul\":4512:4516   */\n      0x32\n        /* \"#utility.yul\":4509:4510   */\n      0x04\n        /* \"#utility.yul\":4502:4517   */\n      mstore\n        /* \"#utility.yul\":4536:4540   */\n      0x24\n        /* \"#utility.yul\":4533:4534   */\n      0x00\n        /* \"#utility.yul\":4526:4541   */\n      revert\n        /* \"#utility.yul\":4552:4687   */\n    tag_137:\n        /* \"#utility.yul\":4591:4594   */\n      0x00\n        /* \"#utility.yul\":4612:4629   */\n      0x01\n      dup3\n      add\n        /* \"#utility.yul\":4609:4652   */\n      tag_345\n      jumpi\n        /* \"#utility.yul\":4632:4650   */\n      tag_345\n      tag_310\n      jump\t// in\n    tag_345:\n      pop\n        /* \"#utility.yul\":4679:4680   */\n      0x01\n        /* \"#utility.yul\":4668:4681   */\n      add\n      swap1\n        /* \"#utility.yul\":4552:4687   */\n      jump\t// out\n        /* \"#utility.yul\":4692:4828   */\n    tag_142:\n        /* \"#utility.yul\":4731:4734   */\n      0x00\n        /* \"#utility.yul\":4759:4764   */\n      dup2\n        /* \"#utility.yul\":4749:4788   */\n      tag_348\n      jumpi\n        /* \"#utility.yul\":4768:4786   */\n      tag_348\n      tag_310\n      jump\t// in\n    tag_348:\n      pop\n      not(0x00)\n        /* \"#utility.yul\":4804:4822   */\n      add\n      swap1\n        /* \"#utility.yul\":4692:4828   */\n      jump\t// out\n        /* \"#utility.yul\":5942:6069   */\n    tag_168:\n        /* \"#utility.yul\":6003:6013   */\n      0x4e487b71\n        /* \"#utility.yul\":5998:6001   */\n      0xe0\n        /* \"#utility.yul\":5994:6014   */\n      shl\n        /* \"#utility.yul\":5991:5992   */\n      0x00\n        /* \"#utility.yul\":5984:6015   */\n      mstore\n        /* \"#utility.yul\":6034:6038   */\n      0x41\n        /* \"#utility.yul\":6031:6032   */\n      0x04\n        /* \"#utility.yul\":6024:6039   */\n      mstore\n        /* \"#utility.yul\":6058:6062   */\n      0x24\n        /* \"#utility.yul\":6055:6056   */\n      0x00\n        /* \"#utility.yul\":6048:6063   */\n      revert\n        /* \"#utility.yul\":6074:6325   */\n    tag_209:\n        /* \"#utility.yul\":6144:6150   */\n      0x00\n        /* \"#utility.yul\":6197:6199   */\n      0x20\n        /* \"#utility.yul\":6185:6194   */\n      dup3\n        /* \"#utility.yul\":6176:6183   */\n      dup5\n        /* \"#utility.yul\":6172:6195   */\n      sub\n        /* \"#utility.yul\":6168:6200   */\n      slt\n        /* \"#utility.yul\":6165:6217   */\n      iszero\n      tag_354\n      jumpi\n        /* \"#utility.yul\":6213:6214   */\n      0x00\n        /* \"#utility.yul\":6210:6211   */\n      dup1\n        /* \"#utility.yul\":6203:6215   */\n      revert\n        /* \"#utility.yul\":6165:6217   */\n    tag_354:\n        /* \"#utility.yul\":6245:6254   */\n      dup2\n        /* \"#utility.yul\":6239:6255   */\n      mload\n        /* \"#utility.yul\":6264:6295   */\n      tag_240\n        /* \"#utility.yul\":6289:6294   */\n      dup2\n        /* \"#utility.yul\":6264:6295   */\n      tag_309\n      jump\t// in\n        /* \"#utility.yul\":7812:7937   */\n    tag_254:\n        /* \"#utility.yul\":7852:7856   */\n      0x00\n        /* \"#utility.yul\":7880:7881   */\n      dup3\n        /* \"#utility.yul\":7877:7878   */\n      dup3\n        /* \"#utility.yul\":7874:7882   */\n      lt\n        /* \"#utility.yul\":7871:7905   */\n      iszero\n      tag_362\n      jumpi\n        /* \"#utility.yul\":7885:7903   */\n      tag_362\n      tag_310\n      jump\t// in\n    tag_362:\n      pop\n        /* \"#utility.yul\":7922:7931   */\n      sub\n      swap1\n        /* \"#utility.yul\":7812:7937   */\n      jump\t// out\n        /* \"#utility.yul\":7942:8110   */\n    tag_256:\n        /* \"#utility.yul\":7982:7989   */\n      0x00\n        /* \"#utility.yul\":8048:8049   */\n      dup2\n        /* \"#utility.yul\":8044:8045   */\n      0x00\n        /* \"#utility.yul\":8040:8046   */\n      not\n        /* \"#utility.yul\":8036:8050   */\n      div\n        /* \"#utility.yul\":8033:8034   */\n      dup4\n        /* \"#utility.yul\":8030:8051   */\n      gt\n        /* \"#utility.yul\":8025:8026   */\n      dup3\n        /* \"#utility.yul\":8018:8027   */\n      iszero\n        /* \"#utility.yul\":8011:8028   */\n      iszero\n        /* \"#utility.yul\":8007:8052   */\n      and\n        /* \"#utility.yul\":8004:8075   */\n      iszero\n      tag_365\n      jumpi\n        /* \"#utility.yul\":8055:8073   */\n      tag_365\n      tag_310\n      jump\t// in\n    tag_365:\n      pop\n        /* \"#utility.yul\":8095:8104   */\n      mul\n      swap1\n        /* \"#utility.yul\":7942:8110   */\n      jump\t// out\n        /* \"#utility.yul\":8115:8332   */\n    tag_259:\n        /* \"#utility.yul\":8155:8156   */\n      0x00\n        /* \"#utility.yul\":8181:8182   */\n      dup3\n        /* \"#utility.yul\":8171:8303   */\n      tag_367\n      jumpi\n        /* \"#utility.yul\":8225:8235   */\n      0x4e487b71\n        /* \"#utility.yul\":8220:8223   */\n      0xe0\n        /* \"#utility.yul\":8216:8236   */\n      shl\n        /* \"#utility.yul\":8213:8214   */\n      0x00\n        /* \"#utility.yul\":8206:8237   */\n      mstore\n        /* \"#utility.yul\":8260:8264   */\n      0x12\n        /* \"#utility.yul\":8257:8258   */\n      0x04\n        /* \"#utility.yul\":8250:8265   */\n      mstore\n        /* \"#utility.yul\":8288:8292   */\n      0x24\n        /* \"#utility.yul\":8285:8286   */\n      0x00\n        /* \"#utility.yul\":8278:8293   */\n      revert\n        /* \"#utility.yul\":8171:8303   */\n    tag_367:\n      pop\n        /* \"#utility.yul\":8317:8326   */\n      div\n      swap1\n        /* \"#utility.yul\":8115:8332   */\n      jump\t// out\n        /* \"#utility.yul\":8639:8884   */\n    tag_273:\n        /* \"#utility.yul\":8706:8712   */\n      0x00\n        /* \"#utility.yul\":8759:8761   */\n      0x20\n        /* \"#utility.yul\":8747:8756   */\n      dup3\n        /* \"#utility.yul\":8738:8745   */\n      dup5\n        /* \"#utility.yul\":8734:8757   */\n      sub\n        /* \"#utility.yul\":8730:8762   */\n      slt\n        /* \"#utility.yul\":8727:8779   */\n      iszero\n      tag_370\n      jumpi\n        /* \"#utility.yul\":8775:8776   */\n      0x00\n        /* \"#utility.yul\":8772:8773   */\n      dup1\n        /* \"#utility.yul\":8765:8777   */\n      revert\n        /* \"#utility.yul\":8727:8779   */\n    tag_370:\n        /* \"#utility.yul\":8807:8816   */\n      dup2\n        /* \"#utility.yul\":8801:8817   */\n      mload\n        /* \"#utility.yul\":8826:8854   */\n      tag_240\n        /* \"#utility.yul\":8848:8853   */\n      dup2\n        /* \"#utility.yul\":8826:8854   */\n      tag_308\n      jump\t// in\n        /* \"#utility.yul\":9707:9965   */\n    tag_311:\n        /* \"#utility.yul\":9779:9780   */\n      0x00\n        /* \"#utility.yul\":9789:9902   */\n    tag_375:\n        /* \"#utility.yul\":9803:9809   */\n      dup4\n        /* \"#utility.yul\":9800:9801   */\n      dup2\n        /* \"#utility.yul\":9797:9810   */\n      lt\n        /* \"#utility.yul\":9789:9902   */\n      iszero\n      tag_377\n      jumpi\n        /* \"#utility.yul\":9879:9890   */\n      dup2\n      dup2\n      add\n        /* \"#utility.yul\":9873:9891   */\n      mload\n        /* \"#utility.yul\":9860:9871   */\n      dup4\n      dup3\n      add\n        /* \"#utility.yul\":9853:9892   */\n      mstore\n        /* \"#utility.yul\":9825:9827   */\n      0x20\n        /* \"#utility.yul\":9818:9828   */\n      add\n        /* \"#utility.yul\":9789:9902   */\n      jump(tag_375)\n    tag_377:\n        /* \"#utility.yul\":9920:9926   */\n      dup4\n        /* \"#utility.yul\":9917:9918   */\n      dup2\n        /* \"#utility.yul\":9914:9927   */\n      gt\n        /* \"#utility.yul\":9911:9959   */\n      iszero\n      tag_378\n      jumpi\n        /* \"#utility.yul\":9955:9956   */\n      0x00\n        /* \"#utility.yul\":9946:9952   */\n      dup5\n        /* \"#utility.yul\":9941:9944   */\n      dup5\n        /* \"#utility.yul\":9937:9953   */\n      add\n        /* \"#utility.yul\":9930:9957   */\n      mstore\n        /* \"#utility.yul\":9911:9959   */\n    tag_378:\n      pop\n        /* \"#utility.yul\":9707:9965   */\n      pop\n      pop\n      pop\n      jump\t// out\n        /* \"#utility.yul\":9970:10244   */\n    tag_285:\n        /* \"#utility.yul\":10099:10102   */\n      0x00\n        /* \"#utility.yul\":10137:10143   */\n      dup3\n        /* \"#utility.yul\":10131:10144   */\n      mload\n        /* \"#utility.yul\":10153:10206   */\n      tag_380\n        /* \"#utility.yul\":10199:10205   */\n      dup2\n        /* \"#utility.yul\":10194:10197   */\n      dup5\n        /* \"#utility.yul\":10187:10191   */\n      0x20\n        /* \"#utility.yul\":10179:10185   */\n      dup8\n        /* \"#utility.yul\":10175:10192   */\n      add\n        /* \"#utility.yul\":10153:10206   */\n      tag_311\n      jump\t// in\n    tag_380:\n        /* \"#utility.yul\":10222:10238   */\n      swap2\n      swap1\n      swap2\n      add\n      swap3\n        /* \"#utility.yul\":9970:10244   */\n      swap2\n      pop\n      pop\n      jump\t// out\n        /* \"#utility.yul\":10607:10990   */\n    tag_307:\n        /* \"#utility.yul\":10756:10758   */\n      0x20\n        /* \"#utility.yul\":10745:10754   */\n      dup2\n        /* \"#utility.yul\":10738:10759   */\n      mstore\n        /* \"#utility.yul\":10719:10723   */\n      0x00\n        /* \"#utility.yul\":10788:10794   */\n      dup3\n        /* \"#utility.yul\":10782:10795   */\n      mload\n        /* \"#utility.yul\":10831:10837   */\n      dup1\n        /* \"#utility.yul\":10826:10828   */\n      0x20\n        /* \"#utility.yul\":10815:10824   */\n      dup5\n        /* \"#utility.yul\":10811:10829   */\n      add\n        /* \"#utility.yul\":10804:10838   */\n      mstore\n        /* \"#utility.yul\":10847:10913   */\n      tag_383\n        /* \"#utility.yul\":10906:10912   */\n      dup2\n        /* \"#utility.yul\":10901:10903   */\n      0x40\n        /* \"#utility.yul\":10890:10899   */\n      dup6\n        /* \"#utility.yul\":10886:10904   */\n      add\n        /* \"#utility.yul\":10881:10883   */\n      0x20\n        /* \"#utility.yul\":10873:10879   */\n      dup8\n        /* \"#utility.yul\":10869:10884   */\n      add\n        /* \"#utility.yul\":10847:10913   */\n      tag_311\n      jump\t// in\n    tag_383:\n        /* \"#utility.yul\":10974:10976   */\n      0x1f\n        /* \"#utility.yul\":10953:10968   */\n      add\n      not(0x1f)\n        /* \"#utility.yul\":10949:10978   */\n      and\n        /* \"#utility.yul\":10934:10979   */\n      swap2\n      swap1\n      swap2\n      add\n        /* \"#utility.yul\":10981:10983   */\n      0x40\n        /* \"#utility.yul\":10930:10984   */\n      add\n      swap3\n        /* \"#utility.yul\":10607:10990   */\n      swap2\n      pop\n      pop\n      jump\t// out\n\n    auxdata: 0xa2646970667358221220c2cbcc6a01118b8d6b4cbb8d275ce09e03b396b0d7e03dd15328b6cb239abb5664736f6c634300080d0033\n}\n",
    "bytecode": {
      "linkReferences": {},
      "object": "60c0604052620186a06004553480156200001857600080fd5b50604051620016e8380380620016e88339810160408190526200003b91620000ce565b60016000556200004b3362000063565b6001600160a01b0391821660a052166080526200010d565b600180546001600160a01b038381166001600160a01b0319831681179093556040519116919082907f8be0079c531659141344cd1fd0a4f28419497f9722a3daafe3b4186f6b6457e090600090a35050565b6001600160a01b0381168114620000cb57600080fd5b50565b60008060408385031215620000e257600080fd5b8251620000ef81620000b5565b60208401519092506200010281620000b5565b809150509250929050565b60805160a0516115996200014f600039600081816101b8015281816106cf01528181610b280152610c0b0152600081816102e4015261084d01526115996000f3fe60806040526004361061010e5760003560e01c80639168ae72116100a5578063dd19171911610074578063f1ad333411610059578063f1ad33341461034e578063f2fde38b14610358578063f854a27f1461037857600080fd5b8063dd19171914610306578063dfab45c61461030e57600080fd5b80639168ae7214610225578063940670451461027c578063a694fc3a146102b2578063d1af0c7d146102d257600080fd5b806363c28db1116100e157806363c28db1146101705780636588103b146101a6578063715018a6146101f25780638da5cb5b1461020757600080fd5b80631829b46c146101135780632e1a7d4d14610128578063372500ab146101485780634a7113f61461015d575b600080fd5b6101266101213660046112fa565b6103a6565b005b34801561013457600080fd5b506101266101433660046112fa565b61045e565b34801561015457600080fd5b50610126610750565b61012661016b366004611321565b61087c565b34801561017c57600080fd5b5061019061018b366004611353565b6108a4565b60405161019d9190611370565b60405180910390f35b3480156101b257600080fd5b506101da7f000000000000000000000000000000000000000000000000000000000000000081565b6040516001600160a01b03909116815260200161019d565b3480156101fe57600080fd5b50610126610a9e565b34801561021357600080fd5b506001546001600160a01b03166101da565b34801561023157600080fd5b50610261610240366004611353565b60056020526000908152604090208054600282015460039092015490919083565b6040805193845260208401929092529082015260600161019d565b34801561028857600080fd5b506101da6102973660046112fa565b6006602052600090815260409020546001600160a01b031681565b3480156102be57600080fd5b506101266102cd3660046112fa565b610ab2565b3480156102de57600080fd5b506101da7f000000000000000000000000000000000000000000000000000000000000000081565b610126610d28565b34801561031a57600080fd5b5061033e610329366004611353565b60036020526000908152604090205460ff1681565b604051901515815260200161019d565b6101266064600255565b34801561036457600080fd5b50610126610373366004611353565b610dd7565b34801561038457600080fd5b50610398610393366004611353565b610e64565b60405190815260200161019d565b6103ae610e9c565b60006103c26001546001600160a01b031690565b6001600160a01b03168260405160006040518083038185875af1925050503d806000811461040c576040519150601f19603f3d011682016040523d82523d6000602084013e610411565b606091505b505090508061045a5760405162461bcd60e51b815260206004820152601060248201526f5472616e73666572206661696c65642160801b60448201526064015b60405180910390fd5b5050565b610466610ef6565b336000908152600560205260409020546104c25760405162461bcd60e51b815260206004820152601960248201527f596f752068617665206e6f20746f6b656e73207374616b6564000000000000006044820152606401610451565b3360009081526005602052604090205461051e5760405162461bcd60e51b815260206004820152601960248201527f596f752068617665206e6f20746f6b656e73207374616b6564000000000000006044820152606401610451565b600061052933610f4f565b336000908152600560205260408120600301805492935083929091906105509084906113de565b9091555060009050805b336000908152600560205260409020600101548110156106155733600090815260056020526040902060010180548591908390811061059b5761059b6113f6565b9060005260206000209060020201600101541480156105f657503360009081526005602052604081206001018054839081106105d9576105d96113f6565b60009182526020909120600290910201546001600160a01b031614155b1561060357809150610615565b8061060d8161140c565b91505061055a565b5033600090815260056020526040812060010180548390811061063a5761063a6113f6565b6000918252602080832060029290920290910180546001600160a01b0319166001600160a01b03949094169390931790925533815260059091526040812080549161068483611425565b90915550506000838152600660205260409081902080546001600160a01b0319169055516323b872dd60e01b8152306004820152336024820152604481018490526001600160a01b037f000000000000000000000000000000000000000000000000000000000000000016906323b872dd90606401600060405180830381600087803b15801561071357600080fd5b505af1158015610727573d6000803e3d6000fd5b5050336000908152600560205260409020426002909101555061074d9250610fa9915050565b50565b3360009081526003602052604090205460ff1615156001146107b45760405162461bcd60e51b815260206004820152601460248201527f596f7520417265204e6f7420456c696769626c650000000000000000000000006044820152606401610451565b3360008181526005602052604081206003015490916107d290610f4f565b6107dc91906113de565b90506000811161082e5760405162461bcd60e51b815260206004820152601c60248201527f596f752068617665206e6f207265776172647320746f20636c61696d000000006044820152606401610451565b3360008181526005602052604081204260028201556003015561074d907f00000000000000000000000000000000000000000000000000000000000000006001600160a01b03169083610fb0565b610884610e9c565b336000908152600360205260409020805460ff1916911515919091179055565b6001600160a01b03811660009081526005602052604090205460609015610a5a576001600160a01b03821660009081526005602052604081205467ffffffffffffffff8111156108f6576108f661143c565b60405190808252806020026020018201604052801561093b57816020015b60408051808201909152600080825260208201528152602001906001900390816109145790505b5090506000805b6001600160a01b038516600090815260056020526040902060010154811015610a51576001600160a01b0385166000908152600560205260408120600101805483908110610992576109926113f6565b60009182526020909120600290910201546001600160a01b031614610a3f576001600160a01b03851660009081526005602052604090206001018054829081106109de576109de6113f6565b60009182526020918290206040805180820190915260029092020180546001600160a01b0316825260010154918101919091528351849084908110610a2557610a256113f6565b60200260200101819052508180610a3b9061140c565b9250505b80610a498161140c565b915050610942565b50909392505050565b6040805160008082526020820190925290610a97565b6040805180820190915260008082526020820152815260200190600190039081610a705790505b5092915050565b610aa6610e9c565b610ab0600061101c565b565b610aba610ef6565b3360009081526005602052604090205415610b08576000610ada33610f4f565b33600090815260056020526040812060030180549293508392909190610b019084906113de565b9091555050505b6040516331a9108f60e11b81526004810182905233906001600160a01b037f00000000000000000000000000000000000000000000000000000000000000001690636352211e90602401602060405180830381865afa158015610b6f573d6000803e3d6000fd5b505050506040513d601f19601f82011682018060405250810190610b939190611452565b6001600160a01b031614610be95760405162461bcd60e51b815260206004820152601960248201527f596f7520646f6e2774206f776e207468697320746f6b656e21000000000000006044820152606401610451565b6040516323b872dd60e01b8152336004820152306024820152604481018290527f00000000000000000000000000000000000000000000000000000000000000006001600160a01b0316906323b872dd90606401600060405180830381600087803b158015610c5757600080fd5b505af1158015610c6b573d6000803e3d6000fd5b5050604080518082018252338082526020808301878152600083815260058352948520600180820180548083018255908852938720865160029095020180546001600160a01b0319166001600160a01b0390951694909417845591519290910191909155908352805491945090925090610ce48361140c565b909155505050600081815260066020908152604080832080546001600160a01b031916339081179091558352600590915290204260029091015561074d6001600055565b610d30610e9c565b6000610d446001546001600160a01b031690565b6001600160a01b03164760405160006040518083038185875af1925050503d8060008114610d8e576040519150601f19603f3d011682016040523d82523d6000602084013e610d93565b606091505b505090508061074d5760405162461bcd60e51b815260206004820152601060248201526f5472616e73666572206661696c65642160801b6044820152606401610451565b610ddf610e9c565b6001600160a01b038116610e5b5760405162461bcd60e51b815260206004820152602660248201527f4f776e61626c653a206e6577206f776e657220697320746865207a65726f206160448201527f64647265737300000000000000000000000000000000000000000000000000006064820152608401610451565b61074d8161101c565b6001600160a01b0381166000908152600560205260408120600301548190610e8b84610f4f565b610e9591906113de565b9392505050565b6001546001600160a01b03163314610ab05760405162461bcd60e51b815260206004820181905260248201527f4f776e61626c653a2063616c6c6572206973206e6f7420746865206f776e65726044820152606401610451565b600260005403610f485760405162461bcd60e51b815260206004820152601f60248201527f5265656e7472616e637947756172643a207265656e7472616e742063616c6c006044820152606401610451565b6002600055565b6004546001600160a01b038216600090815260056020526040812080546002909101549192610e1092909190610f85904261146f565b610f8f9190611486565b610f999190611486565b610fa391906114a5565b92915050565b6001600055565b604080516001600160a01b038416602482015260448082018490528251808303909101815260649091019091526020810180517bffffffffffffffffffffffffffffffffffffffffffffffffffffffff1663a9059cbb60e01b17905261101790849061106e565b505050565b600180546001600160a01b038381166001600160a01b0319831681179093556040519116919082907f8be0079c531659141344cd1fd0a4f28419497f9722a3daafe3b4186f6b6457e090600090a35050565b60006110c3826040518060400160405280602081526020017f5361666545524332303a206c6f772d6c6576656c2063616c6c206661696c6564815250856001600160a01b03166111539092919063ffffffff16565b80519091501561101757808060200190518101906110e191906114c7565b6110175760405162461bcd60e51b815260206004820152602a60248201527f5361666545524332303a204552433230206f7065726174696f6e20646964206e60448201527f6f742073756363656564000000000000000000000000000000000000000000006064820152608401610451565b6060611162848460008561116a565b949350505050565b6060824710156111e25760405162461bcd60e51b815260206004820152602660248201527f416464726573733a20696e73756666696369656e742062616c616e636520666f60448201527f722063616c6c00000000000000000000000000000000000000000000000000006064820152608401610451565b600080866001600160a01b031685876040516111fe9190611514565b60006040518083038185875af1925050503d806000811461123b576040519150601f19603f3d011682016040523d82523d6000602084013e611240565b606091505b50915091506112518783838761125c565b979650505050505050565b606083156112cb5782516000036112c4576001600160a01b0385163b6112c45760405162461bcd60e51b815260206004820152601d60248201527f416464726573733a2063616c6c20746f206e6f6e2d636f6e74726163740000006044820152606401610451565b5081611162565b61116283838151156112e05781518083602001fd5b8060405162461bcd60e51b81526004016104519190611530565b60006020828403121561130c57600080fd5b5035919050565b801515811461074d57600080fd5b60006020828403121561133357600080fd5b8135610e9581611313565b6001600160a01b038116811461074d57600080fd5b60006020828403121561136557600080fd5b8135610e958161133e565b602080825282518282018190526000919060409081850190868401855b828110156113bb57815180516001600160a01b0316855286015186850152928401929085019060010161138d565b5091979650505050505050565b634e487b7160e01b600052601160045260246000fd5b600082198211156113f1576113f16113c8565b500190565b634e487b7160e01b600052603260045260246000fd5b60006001820161141e5761141e6113c8565b5060010190565b600081611434576114346113c8565b506000190190565b634e487b7160e01b600052604160045260246000fd5b60006020828403121561146457600080fd5b8151610e958161133e565b600082821015611481576114816113c8565b500390565b60008160001904831182151516156114a0576114a06113c8565b500290565b6000826114c257634e487b7160e01b600052601260045260246000fd5b500490565b6000602082840312156114d957600080fd5b8151610e9581611313565b60005b838110156114ff5781810151838201526020016114e7565b8381111561150e576000848401525b50505050565b600082516115268184602087016114e4565b9190910192915050565b602081526000825180602084015261154f8160408501602087016114e4565b601f01601f1916919091016040019291505056fea2646970667358221220c2cbcc6a01118b8d6b4cbb8d275ce09e03b396b0d7e03dd15328b6cb239abb5664736f6c634300080d0033",
      "opcodes": "PUSH1 0xC0 PUSH1 0x40 MSTORE PUSH3 0x186A0 PUSH1 0x4 SSTORE CALLVALUE DUP1 ISZERO PUSH3 0x18 JUMPI PUSH1 0x0 DUP1 REVERT JUMPDEST POP PUSH1 0x40 MLOAD PUSH3 0x16E8 CODESIZE SUB DUP1 PUSH3 0x16E8 DUP4 CODECOPY DUP2 ADD PUSH1 0x40 DUP2 SWAP1 MSTORE PUSH3 0x3B SWAP2 PUSH3 0xCE JUMP JUMPDEST PUSH1 0x1 PUSH1 0x0 SSTORE PUSH3 0x4B CALLER PUSH3 0x63 JUMP JUMPDEST PUSH1 0x1 PUSH1 0x1 PUSH1 0xA0 SHL SUB SWAP2 DUP3 AND PUSH1 0xA0 MSTORE AND PUSH1 0x80 MSTORE PUSH3 0x10D JUMP JUMPDEST PUSH1 0x1 DUP1 SLOAD PUSH1 0x1 PUSH1 0x1 PUSH1 0xA0 SHL SUB DUP4 DUP2 AND PUSH1 0x1 PUSH1 0x1 PUSH1 0xA0 SHL SUB NOT DUP4 AND DUP2 OR SWAP1 SWAP4 SSTORE PUSH1 0x40 MLOAD SWAP2 AND SWAP2 SWAP1 DUP3 SWAP1 PUSH32 0x8BE0079C531659141344CD1FD0A4F28419497F9722A3DAAFE3B4186F6B6457E0 SWAP1 PUSH1 0x0 SWAP1 LOG3 POP POP JUMP JUMPDEST PUSH1 0x1 PUSH1 0x1 PUSH1 0xA0 SHL SUB DUP2 AND DUP2 EQ PUSH3 0xCB JUMPI PUSH1 0x0 DUP1 REVERT JUMPDEST POP JUMP JUMPDEST PUSH1 0x0 DUP1 PUSH1 0x40 DUP4 DUP6 SUB SLT ISZERO PUSH3 0xE2 JUMPI PUSH1 0x0 DUP1 REVERT JUMPDEST DUP3 MLOAD PUSH3 0xEF DUP2 PUSH3 0xB5 JUMP JUMPDEST PUSH1 0x20 DUP5 ADD MLOAD SWAP1 SWAP3 POP PUSH3 0x102 DUP2 PUSH3 0xB5 JUMP JUMPDEST DUP1 SWAP2 POP POP SWAP3 POP SWAP3 SWAP1 POP JUMP JUMPDEST PUSH1 0x80 MLOAD PUSH1 0xA0 MLOAD PUSH2 0x1599 PUSH3 0x14F PUSH1 0x0 CODECOPY PUSH1 0x0 DUP2 DUP2 PUSH2 0x1B8 ADD MSTORE DUP2 DUP2 PUSH2 0x6CF ADD MSTORE DUP2 DUP2 PUSH2 0xB28 ADD MSTORE PUSH2 0xC0B ADD MSTORE PUSH1 0x0 DUP2 DUP2 PUSH2 0x2E4 ADD MSTORE PUSH2 0x84D ADD MSTORE PUSH2 0x1599 PUSH1 0x0 RETURN INVALID PUSH1 0x80 PUSH1 0x40 MSTORE PUSH1 0x4 CALLDATASIZE LT PUSH2 0x10E JUMPI PUSH1 0x0 CALLDATALOAD PUSH1 0xE0 SHR DUP1 PUSH4 0x9168AE72 GT PUSH2 0xA5 JUMPI DUP1 PUSH4 0xDD191719 GT PUSH2 0x74 JUMPI DUP1 PUSH4 0xF1AD3334 GT PUSH2 0x59 JUMPI DUP1 PUSH4 0xF1AD3334 EQ PUSH2 0x34E JUMPI DUP1 PUSH4 0xF2FDE38B EQ PUSH2 0x358 JUMPI DUP1 PUSH4 0xF854A27F EQ PUSH2 0x378 JUMPI PUSH1 0x0 DUP1 REVERT JUMPDEST DUP1 PUSH4 0xDD191719 EQ PUSH2 0x306 JUMPI DUP1 PUSH4 0xDFAB45C6 EQ PUSH2 0x30E JUMPI PUSH1 0x0 DUP1 REVERT JUMPDEST DUP1 PUSH4 0x9168AE72 EQ PUSH2 0x225 JUMPI DUP1 PUSH4 0x94067045 EQ PUSH2 0x27C JUMPI DUP1 PUSH4 0xA694FC3A EQ PUSH2 0x2B2 JUMPI DUP1 PUSH4 0xD1AF0C7D EQ PUSH2 0x2D2 JUMPI PUSH1 0x0 DUP1 REVERT JUMPDEST DUP1 PUSH4 0x63C28DB1 GT PUSH2 0xE1 JUMPI DUP1 PUSH4 0x63C28DB1 EQ PUSH2 0x170 JUMPI DUP1 PUSH4 0x6588103B EQ PUSH2 0x1A6 JUMPI DUP1 PUSH4 0x715018A6 EQ PUSH2 0x1F2 JUMPI DUP1 PUSH4 0x8DA5CB5B EQ PUSH2 0x207 JUMPI PUSH1 0x0 DUP1 REVERT JUMPDEST DUP1 PUSH4 0x1829B46C EQ PUSH2 0x113 JUMPI DUP1 PUSH4 0x2E1A7D4D EQ PUSH2 0x128 JUMPI DUP1 PUSH4 0x372500AB EQ PUSH2 0x148 JUMPI DUP1 PUSH4 0x4A7113F6 EQ PUSH2 0x15D JUMPI JUMPDEST PUSH1 0x0 DUP1 REVERT JUMPDEST PUSH2 0x126 PUSH2 0x121 CALLDATASIZE PUSH1 0x4 PUSH2 0x12FA JUMP JUMPDEST PUSH2 0x3A6 JUMP JUMPDEST STOP JUMPDEST CALLVALUE DUP1 ISZERO PUSH2 0x134 JUMPI PUSH1 0x0 DUP1 REVERT JUMPDEST POP PUSH2 0x126 PUSH2 0x143 CALLDATASIZE PUSH1 0x4 PUSH2 0x12FA JUMP JUMPDEST PUSH2 0x45E JUMP JUMPDEST CALLVALUE DUP1 ISZERO PUSH2 0x154 JUMPI PUSH1 0x0 DUP1 REVERT JUMPDEST POP PUSH2 0x126 PUSH2 0x750 JUMP JUMPDEST PUSH2 0x126 PUSH2 0x16B CALLDATASIZE PUSH1 0x4 PUSH2 0x1321 JUMP JUMPDEST PUSH2 0x87C JUMP JUMPDEST CALLVALUE DUP1 ISZERO PUSH2 0x17C JUMPI PUSH1 0x0 DUP1 REVERT JUMPDEST POP PUSH2 0x190 PUSH2 0x18B CALLDATASIZE PUSH1 0x4 PUSH2 0x1353 JUMP JUMPDEST PUSH2 0x8A4 JUMP JUMPDEST PUSH1 0x40 MLOAD PUSH2 0x19D SWAP2 SWAP1 PUSH2 0x1370 JUMP JUMPDEST PUSH1 0x40 MLOAD DUP1 SWAP2 SUB SWAP1 RETURN JUMPDEST CALLVALUE DUP1 ISZERO PUSH2 0x1B2 JUMPI PUSH1 0x0 DUP1 REVERT JUMPDEST POP PUSH2 0x1DA PUSH32 0x0 DUP2 JUMP JUMPDEST PUSH1 0x40 MLOAD PUSH1 0x1 PUSH1 0x1 PUSH1 0xA0 SHL SUB SWAP1 SWAP2 AND DUP2 MSTORE PUSH1 0x20 ADD PUSH2 0x19D JUMP JUMPDEST CALLVALUE DUP1 ISZERO PUSH2 0x1FE JUMPI PUSH1 0x0 DUP1 REVERT JUMPDEST POP PUSH2 0x126 PUSH2 0xA9E JUMP JUMPDEST CALLVALUE DUP1 ISZERO PUSH2 0x213 JUMPI PUSH1 0x0 DUP1 REVERT JUMPDEST POP PUSH1 0x1 SLOAD PUSH1 0x1 PUSH1 0x1 PUSH1 0xA0 SHL SUB AND PUSH2 0x1DA JUMP JUMPDEST CALLVALUE DUP1 ISZERO PUSH2 0x231 JUMPI PUSH1 0x0 DUP1 REVERT JUMPDEST POP PUSH2 0x261 PUSH2 0x240 CALLDATASIZE PUSH1 0x4 PUSH2 0x1353 JUMP JUMPDEST PUSH1 0x5 PUSH1 0x20 MSTORE PUSH1 0x0 SWAP1 DUP2 MSTORE PUSH1 0x40 SWAP1 KECCAK256 DUP1 SLOAD PUSH1 0x2 DUP3 ADD SLOAD PUSH1 0x3 SWAP1 SWAP3 ADD SLOAD SWAP1 SWAP2 SWAP1 DUP4 JUMP JUMPDEST PUSH1 0x40 DUP1 MLOAD SWAP4 DUP5 MSTORE PUSH1 0x20 DUP5 ADD SWAP3 SWAP1 SWAP3 MSTORE SWAP1 DUP3 ADD MSTORE PUSH1 0x60 ADD PUSH2 0x19D JUMP JUMPDEST CALLVALUE DUP1 ISZERO PUSH2 0x288 JUMPI PUSH1 0x0 DUP1 REVERT JUMPDEST POP PUSH2 0x1DA PUSH2 0x297 CALLDATASIZE PUSH1 0x4 PUSH2 0x12FA JUMP JUMPDEST PUSH1 0x6 PUSH1 0x20 MSTORE PUSH1 0x0 SWAP1 DUP2 MSTORE PUSH1 0x40 SWAP1 KECCAK256 SLOAD PUSH1 0x1 PUSH1 0x1 PUSH1 0xA0 SHL SUB AND DUP2 JUMP JUMPDEST CALLVALUE DUP1 ISZERO PUSH2 0x2BE JUMPI PUSH1 0x0 DUP1 REVERT JUMPDEST POP PUSH2 0x126 PUSH2 0x2CD CALLDATASIZE PUSH1 0x4 PUSH2 0x12FA JUMP JUMPDEST PUSH2 0xAB2 JUMP JUMPDEST CALLVALUE DUP1 ISZERO PUSH2 0x2DE JUMPI PUSH1 0x0 DUP1 REVERT JUMPDEST POP PUSH2 0x1DA PUSH32 0x0 DUP2 JUMP JUMPDEST PUSH2 0x126 PUSH2 0xD28 JUMP JUMPDEST CALLVALUE DUP1 ISZERO PUSH2 0x31A JUMPI PUSH1 0x0 DUP1 REVERT JUMPDEST POP PUSH2 0x33E PUSH2 0x329 CALLDATASIZE PUSH1 0x4 PUSH2 0x1353 JUMP JUMPDEST PUSH1 0x3 PUSH1 0x20 MSTORE PUSH1 0x0 SWAP1 DUP2 MSTORE PUSH1 0x40 SWAP1 KECCAK256 SLOAD PUSH1 0xFF AND DUP2 JUMP JUMPDEST PUSH1 0x40 MLOAD SWAP1 ISZERO ISZERO DUP2 MSTORE PUSH1 0x20 ADD PUSH2 0x19D JUMP JUMPDEST PUSH2 0x126 PUSH1 0x64 PUSH1 0x2 SSTORE JUMP JUMPDEST CALLVALUE DUP1 ISZERO PUSH2 0x364 JUMPI PUSH1 0x0 DUP1 REVERT JUMPDEST POP PUSH2 0x126 PUSH2 0x373 CALLDATASIZE PUSH1 0x4 PUSH2 0x1353 JUMP JUMPDEST PUSH2 0xDD7 JUMP JUMPDEST CALLVALUE DUP1 ISZERO PUSH2 0x384 JUMPI PUSH1 0x0 DUP1 REVERT JUMPDEST POP PUSH2 0x398 PUSH2 0x393 CALLDATASIZE PUSH1 0x4 PUSH2 0x1353 JUMP JUMPDEST PUSH2 0xE64 JUMP JUMPDEST PUSH1 0x40 MLOAD SWAP1 DUP2 MSTORE PUSH1 0x20 ADD PUSH2 0x19D JUMP JUMPDEST PUSH2 0x3AE PUSH2 0xE9C JUMP JUMPDEST PUSH1 0x0 PUSH2 0x3C2 PUSH1 0x1 SLOAD PUSH1 0x1 PUSH1 0x1 PUSH1 0xA0 SHL SUB AND SWAP1 JUMP JUMPDEST PUSH1 0x1 PUSH1 0x1 PUSH1 0xA0 SHL SUB AND DUP3 PUSH1 0x40 MLOAD PUSH1 0x0 PUSH1 0x40 MLOAD DUP1 DUP4 SUB DUP2 DUP6 DUP8 GAS CALL SWAP3 POP POP POP RETURNDATASIZE DUP1 PUSH1 0x0 DUP2 EQ PUSH2 0x40C JUMPI PUSH1 0x40 MLOAD SWAP2 POP PUSH1 0x1F NOT PUSH1 0x3F RETURNDATASIZE ADD AND DUP3 ADD PUSH1 0x40 MSTORE RETURNDATASIZE DUP3 MSTORE RETURNDATASIZE PUSH1 0x0 PUSH1 0x20 DUP5 ADD RETURNDATACOPY PUSH2 0x411 JUMP JUMPDEST PUSH1 0x60 SWAP2 POP JUMPDEST POP POP SWAP1 POP DUP1 PUSH2 0x45A JUMPI PUSH1 0x40 MLOAD PUSH3 0x461BCD PUSH1 0xE5 SHL DUP2 MSTORE PUSH1 0x20 PUSH1 0x4 DUP3 ADD MSTORE PUSH1 0x10 PUSH1 0x24 DUP3 ADD MSTORE PUSH16 0x5472616E73666572206661696C656421 PUSH1 0x80 SHL PUSH1 0x44 DUP3 ADD MSTORE PUSH1 0x64 ADD JUMPDEST PUSH1 0x40 MLOAD DUP1 SWAP2 SUB SWAP1 REVERT JUMPDEST POP POP JUMP JUMPDEST PUSH2 0x466 PUSH2 0xEF6 JUMP JUMPDEST CALLER PUSH1 0x0 SWAP1 DUP2 MSTORE PUSH1 0x5 PUSH1 0x20 MSTORE PUSH1 0x40 SWAP1 KECCAK256 SLOAD PUSH2 0x4C2 JUMPI PUSH1 0x40 MLOAD PUSH3 0x461BCD PUSH1 0xE5 SHL DUP2 MSTORE PUSH1 0x20 PUSH1 0x4 DUP3 ADD MSTORE PUSH1 0x19 PUSH1 0x24 DUP3 ADD MSTORE PUSH32 0x596F752068617665206E6F20746F6B656E73207374616B656400000000000000 PUSH1 0x44 DUP3 ADD MSTORE PUSH1 0x64 ADD PUSH2 0x451 JUMP JUMPDEST CALLER PUSH1 0x0 SWAP1 DUP2 MSTORE PUSH1 0x5 PUSH1 0x20 MSTORE PUSH1 0x40 SWAP1 KECCAK256 SLOAD PUSH2 0x51E JUMPI PUSH1 0x40 MLOAD PUSH3 0x461BCD PUSH1 0xE5 SHL DUP2 MSTORE PUSH1 0x20 PUSH1 0x4 DUP3 ADD MSTORE PUSH1 0x19 PUSH1 0x24 DUP3 ADD MSTORE PUSH32 0x596F752068617665206E6F20746F6B656E73207374616B656400000000000000 PUSH1 0x44 DUP3 ADD MSTORE PUSH1 0x64 ADD PUSH2 0x451 JUMP JUMPDEST PUSH1 0x0 PUSH2 0x529 CALLER PUSH2 0xF4F JUMP JUMPDEST CALLER PUSH1 0x0 SWAP1 DUP2 MSTORE PUSH1 0x5 PUSH1 0x20 MSTORE PUSH1 0x40 DUP2 KECCAK256 PUSH1 0x3 ADD DUP1 SLOAD SWAP3 SWAP4 POP DUP4 SWAP3 SWAP1 SWAP2 SWAP1 PUSH2 0x550 SWAP1 DUP5 SWAP1 PUSH2 0x13DE JUMP JUMPDEST SWAP1 SWAP2 SSTORE POP PUSH1 0x0 SWAP1 POP DUP1 JUMPDEST CALLER PUSH1 0x0 SWAP1 DUP2 MSTORE PUSH1 0x5 PUSH1 0x20 MSTORE PUSH1 0x40 SWAP1 KECCAK256 PUSH1 0x1 ADD SLOAD DUP2 LT ISZERO PUSH2 0x615 JUMPI CALLER PUSH1 0x0 SWAP1 DUP2 MSTORE PUSH1 0x5 PUSH1 0x20 MSTORE PUSH1 0x40 SWAP1 KECCAK256 PUSH1 0x1 ADD DUP1 SLOAD DUP6 SWAP2 SWAP1 DUP4 SWAP1 DUP2 LT PUSH2 0x59B JUMPI PUSH2 0x59B PUSH2 0x13F6 JUMP JUMPDEST SWAP1 PUSH1 0x0 MSTORE PUSH1 0x20 PUSH1 0x0 KECCAK256 SWAP1 PUSH1 0x2 MUL ADD PUSH1 0x1 ADD SLOAD EQ DUP1 ISZERO PUSH2 0x5F6 JUMPI POP CALLER PUSH1 0x0 SWAP1 DUP2 MSTORE PUSH1 0x5 PUSH1 0x20 MSTORE PUSH1 0x40 DUP2 KECCAK256 PUSH1 0x1 ADD DUP1 SLOAD DUP4 SWAP1 DUP2 LT PUSH2 0x5D9 JUMPI PUSH2 0x5D9 PUSH2 0x13F6 JUMP JUMPDEST PUSH1 0x0 SWAP2 DUP3 MSTORE PUSH1 0x20 SWAP1 SWAP2 KECCAK256 PUSH1 0x2 SWAP1 SWAP2 MUL ADD SLOAD PUSH1 0x1 PUSH1 0x1 PUSH1 0xA0 SHL SUB AND EQ ISZERO JUMPDEST ISZERO PUSH2 0x603 JUMPI DUP1 SWAP2 POP PUSH2 0x615 JUMP JUMPDEST DUP1 PUSH2 0x60D DUP2 PUSH2 0x140C JUMP JUMPDEST SWAP2 POP POP PUSH2 0x55A JUMP JUMPDEST POP CALLER PUSH1 0x0 SWAP1 DUP2 MSTORE PUSH1 0x5 PUSH1 0x20 MSTORE PUSH1 0x40 DUP2 KECCAK256 PUSH1 0x1 ADD DUP1 SLOAD DUP4 SWAP1 DUP2 LT PUSH2 0x63A JUMPI PUSH2 0x63A PUSH2 0x13F6 JUMP JUMPDEST PUSH1 0x0 SWAP2 DUP3 MSTORE PUSH1 0x20 DUP1 DUP4 KECCAK256 PUSH1 0x2 SWAP3 SWAP1 SWAP3 MUL SWAP1 SWAP2 ADD DUP1 SLOAD PUSH1 0x1 PUSH1 0x1 PUSH1 0xA0 SHL SUB NOT AND PUSH1 0x1 PUSH1 0x1 PUSH1 0xA0 SHL SUB SWAP5 SWAP1 SWAP5 AND SWAP4 SWAP1 SWAP4 OR SWAP1 SWAP3 SSTORE CALLER DUP2 MSTORE PUSH1 0x5 SWAP1 SWAP2 MSTORE PUSH1 0x40 DUP2 KECCAK256 DUP1 SLOAD SWAP2 PUSH2 0x684 DUP4 PUSH2 0x1425 JUMP JUMPDEST SWAP1 SWAP2 SSTORE POP POP PUSH1 0x0 DUP4 DUP2 MSTORE PUSH1 0x6 PUSH1 0x20 MSTORE PUSH1 0x40 SWAP1 DUP2 SWAP1 KECCAK256 DUP1 SLOAD PUSH1 0x1 PUSH1 0x1 PUSH1 0xA0 SHL SUB NOT AND SWAP1 SSTORE MLOAD PUSH4 0x23B872DD PUSH1 0xE0 SHL DUP2 MSTORE ADDRESS PUSH1 0x4 DUP3 ADD MSTORE CALLER PUSH1 0x24 DUP3 ADD MSTORE PUSH1 0x44 DUP2 ADD DUP5 SWAP1 MSTORE PUSH1 0x1 PUSH1 0x1 PUSH1 0xA0 SHL SUB PUSH32 0x0 AND SWAP1 PUSH4 0x23B872DD SWAP1 PUSH1 0x64 ADD PUSH1 0x0 PUSH1 0x40 MLOAD DUP1 DUP4 SUB DUP2 PUSH1 0x0 DUP8 DUP1 EXTCODESIZE ISZERO DUP1 ISZERO PUSH2 0x713 JUMPI PUSH1 0x0 DUP1 REVERT JUMPDEST POP GAS CALL ISZERO DUP1 ISZERO PUSH2 0x727 JUMPI RETURNDATASIZE PUSH1 0x0 DUP1 RETURNDATACOPY RETURNDATASIZE PUSH1 0x0 REVERT JUMPDEST POP POP CALLER PUSH1 0x0 SWAP1 DUP2 MSTORE PUSH1 0x5 PUSH1 0x20 MSTORE PUSH1 0x40 SWAP1 KECCAK256 TIMESTAMP PUSH1 0x2 SWAP1 SWAP2 ADD SSTORE POP PUSH2 0x74D SWAP3 POP PUSH2 0xFA9 SWAP2 POP POP JUMP JUMPDEST POP JUMP JUMPDEST CALLER PUSH1 0x0 SWAP1 DUP2 MSTORE PUSH1 0x3 PUSH1 0x20 MSTORE PUSH1 0x40 SWAP1 KECCAK256 SLOAD PUSH1 0xFF AND ISZERO ISZERO PUSH1 0x1 EQ PUSH2 0x7B4 JUMPI PUSH1 0x40 MLOAD PUSH3 0x461BCD PUSH1 0xE5 SHL DUP2 MSTORE PUSH1 0x20 PUSH1 0x4 DUP3 ADD MSTORE PUSH1 0x14 PUSH1 0x24 DUP3 ADD MSTORE PUSH32 0x596F7520417265204E6F7420456C696769626C65000000000000000000000000 PUSH1 0x44 DUP3 ADD MSTORE PUSH1 0x64 ADD PUSH2 0x451 JUMP JUMPDEST CALLER PUSH1 0x0 DUP2 DUP2 MSTORE PUSH1 0x5 PUSH1 0x20 MSTORE PUSH1 0x40 DUP2 KECCAK256 PUSH1 0x3 ADD SLOAD SWAP1 SWAP2 PUSH2 0x7D2 SWAP1 PUSH2 0xF4F JUMP JUMPDEST PUSH2 0x7DC SWAP2 SWAP1 PUSH2 0x13DE JUMP JUMPDEST SWAP1 POP PUSH1 0x0 DUP2 GT PUSH2 0x82E JUMPI PUSH1 0x40 MLOAD PUSH3 0x461BCD PUSH1 0xE5 SHL DUP2 MSTORE PUSH1 0x20 PUSH1 0x4 DUP3 ADD MSTORE PUSH1 0x1C PUSH1 0x24 DUP3 ADD MSTORE PUSH32 0x596F752068617665206E6F207265776172647320746F20636C61696D00000000 PUSH1 0x44 DUP3 ADD MSTORE PUSH1 0x64 ADD PUSH2 0x451 JUMP JUMPDEST CALLER PUSH1 0x0 DUP2 DUP2 MSTORE PUSH1 0x5 PUSH1 0x20 MSTORE PUSH1 0x40 DUP2 KECCAK256 TIMESTAMP PUSH1 0x2 DUP3 ADD SSTORE PUSH1 0x3 ADD SSTORE PUSH2 0x74D SWAP1 PUSH32 0x0 PUSH1 0x1 PUSH1 0x1 PUSH1 0xA0 SHL SUB AND SWAP1 DUP4 PUSH2 0xFB0 JUMP JUMPDEST PUSH2 0x884 PUSH2 0xE9C JUMP JUMPDEST CALLER PUSH1 0x0 SWAP1 DUP2 MSTORE PUSH1 0x3 PUSH1 0x20 MSTORE PUSH1 0x40 SWAP1 KECCAK256 DUP1 SLOAD PUSH1 0xFF NOT AND SWAP2 ISZERO ISZERO SWAP2 SWAP1 SWAP2 OR SWAP1 SSTORE JUMP JUMPDEST PUSH1 0x1 PUSH1 0x1 PUSH1 0xA0 SHL SUB DUP2 AND PUSH1 0x0 SWAP1 DUP2 MSTORE PUSH1 0x5 PUSH1 0x20 MSTORE PUSH1 0x40 SWAP1 KECCAK256 SLOAD PUSH1 0x60 SWAP1 ISZERO PUSH2 0xA5A JUMPI PUSH1 0x1 PUSH1 0x1 PUSH1 0xA0 SHL SUB DUP3 AND PUSH1 0x0 SWAP1 DUP2 MSTORE PUSH1 0x5 PUSH1 0x20 MSTORE PUSH1 0x40 DUP2 KECCAK256 SLOAD PUSH8 0xFFFFFFFFFFFFFFFF DUP2 GT ISZERO PUSH2 0x8F6 JUMPI PUSH2 0x8F6 PUSH2 0x143C JUMP JUMPDEST PUSH1 0x40 MLOAD SWAP1 DUP1 DUP3 MSTORE DUP1 PUSH1 0x20 MUL PUSH1 0x20 ADD DUP3 ADD PUSH1 0x40 MSTORE DUP1 ISZERO PUSH2 0x93B JUMPI DUP2 PUSH1 0x20 ADD JUMPDEST PUSH1 0x40 DUP1 MLOAD DUP1 DUP3 ADD SWAP1 SWAP2 MSTORE PUSH1 0x0 DUP1 DUP3 MSTORE PUSH1 0x20 DUP3 ADD MSTORE DUP2 MSTORE PUSH1 0x20 ADD SWAP1 PUSH1 0x1 SWAP1 SUB SWAP1 DUP2 PUSH2 0x914 JUMPI SWAP1 POP JUMPDEST POP SWAP1 POP PUSH1 0x0 DUP1 JUMPDEST PUSH1 0x1 PUSH1 0x1 PUSH1 0xA0 SHL SUB DUP6 AND PUSH1 0x0 SWAP1 DUP2 MSTORE PUSH1 0x5 PUSH1 0x20 MSTORE PUSH1 0x40 SWAP1 KECCAK256 PUSH1 0x1 ADD SLOAD DUP2 LT ISZERO PUSH2 0xA51 JUMPI PUSH1 0x1 PUSH1 0x1 PUSH1 0xA0 SHL SUB DUP6 AND PUSH1 0x0 SWAP1 DUP2 MSTORE PUSH1 0x5 PUSH1 0x20 MSTORE PUSH1 0x40 DUP2 KECCAK256 PUSH1 0x1 ADD DUP1 SLOAD DUP4 SWAP1 DUP2 LT PUSH2 0x992 JUMPI PUSH2 0x992 PUSH2 0x13F6 JUMP JUMPDEST PUSH1 0x0 SWAP2 DUP3 MSTORE PUSH1 0x20 SWAP1 SWAP2 KECCAK256 PUSH1 0x2 SWAP1 SWAP2 MUL ADD SLOAD PUSH1 0x1 PUSH1 0x1 PUSH1 0xA0 SHL SUB AND EQ PUSH2 0xA3F JUMPI PUSH1 0x1 PUSH1 0x1 PUSH1 0xA0 SHL SUB DUP6 AND PUSH1 0x0 SWAP1 DUP2 MSTORE PUSH1 0x5 PUSH1 0x20 MSTORE PUSH1 0x40 SWAP1 KECCAK256 PUSH1 0x1 ADD DUP1 SLOAD DUP3 SWAP1 DUP2 LT PUSH2 0x9DE JUMPI PUSH2 0x9DE PUSH2 0x13F6 JUMP JUMPDEST PUSH1 0x0 SWAP2 DUP3 MSTORE PUSH1 0x20 SWAP2 DUP3 SWAP1 KECCAK256 PUSH1 0x40 DUP1 MLOAD DUP1 DUP3 ADD SWAP1 SWAP2 MSTORE PUSH1 0x2 SWAP1 SWAP3 MUL ADD DUP1 SLOAD PUSH1 0x1 PUSH1 0x1 PUSH1 0xA0 SHL SUB AND DUP3 MSTORE PUSH1 0x1 ADD SLOAD SWAP2 DUP2 ADD SWAP2 SWAP1 SWAP2 MSTORE DUP4 MLOAD DUP5 SWAP1 DUP5 SWAP1 DUP2 LT PUSH2 0xA25 JUMPI PUSH2 0xA25 PUSH2 0x13F6 JUMP JUMPDEST PUSH1 0x20 MUL PUSH1 0x20 ADD ADD DUP2 SWAP1 MSTORE POP DUP2 DUP1 PUSH2 0xA3B SWAP1 PUSH2 0x140C JUMP JUMPDEST SWAP3 POP POP JUMPDEST DUP1 PUSH2 0xA49 DUP2 PUSH2 0x140C JUMP JUMPDEST SWAP2 POP POP PUSH2 0x942 JUMP JUMPDEST POP SWAP1 SWAP4 SWAP3 POP POP POP JUMP JUMPDEST PUSH1 0x40 DUP1 MLOAD PUSH1 0x0 DUP1 DUP3 MSTORE PUSH1 0x20 DUP3 ADD SWAP1 SWAP3 MSTORE SWAP1 PUSH2 0xA97 JUMP JUMPDEST PUSH1 0x40 DUP1 MLOAD DUP1 DUP3 ADD SWAP1 SWAP2 MSTORE PUSH1 0x0 DUP1 DUP3 MSTORE PUSH1 0x20 DUP3 ADD MSTORE DUP2 MSTORE PUSH1 0x20 ADD SWAP1 PUSH1 0x1 SWAP1 SUB SWAP1 DUP2 PUSH2 0xA70 JUMPI SWAP1 POP JUMPDEST POP SWAP3 SWAP2 POP POP JUMP JUMPDEST PUSH2 0xAA6 PUSH2 0xE9C JUMP JUMPDEST PUSH2 0xAB0 PUSH1 0x0 PUSH2 0x101C JUMP JUMPDEST JUMP JUMPDEST PUSH2 0xABA PUSH2 0xEF6 JUMP JUMPDEST CALLER PUSH1 0x0 SWAP1 DUP2 MSTORE PUSH1 0x5 PUSH1 0x20 MSTORE PUSH1 0x40 SWAP1 KECCAK256 SLOAD ISZERO PUSH2 0xB08 JUMPI PUSH1 0x0 PUSH2 0xADA CALLER PUSH2 0xF4F JUMP JUMPDEST CALLER PUSH1 0x0 SWAP1 DUP2 MSTORE PUSH1 0x5 PUSH1 0x20 MSTORE PUSH1 0x40 DUP2 KECCAK256 PUSH1 0x3 ADD DUP1 SLOAD SWAP3 SWAP4 POP DUP4 SWAP3 SWAP1 SWAP2 SWAP1 PUSH2 0xB01 SWAP1 DUP5 SWAP1 PUSH2 0x13DE JUMP JUMPDEST SWAP1 SWAP2 SSTORE POP POP POP JUMPDEST PUSH1 0x40 MLOAD PUSH4 0x31A9108F PUSH1 0xE1 SHL DUP2 MSTORE PUSH1 0x4 DUP2 ADD DUP3 SWAP1 MSTORE CALLER SWAP1 PUSH1 0x1 PUSH1 0x1 PUSH1 0xA0 SHL SUB PUSH32 0x0 AND SWAP1 PUSH4 0x6352211E SWAP1 PUSH1 0x24 ADD PUSH1 0x20 PUSH1 0x40 MLOAD DUP1 DUP4 SUB DUP2 DUP7 GAS STATICCALL ISZERO DUP1 ISZERO PUSH2 0xB6F JUMPI RETURNDATASIZE PUSH1 0x0 DUP1 RETURNDATACOPY RETURNDATASIZE PUSH1 0x0 REVERT JUMPDEST POP POP POP POP PUSH1 0x40 MLOAD RETURNDATASIZE PUSH1 0x1F NOT PUSH1 0x1F DUP3 ADD AND DUP3 ADD DUP1 PUSH1 0x40 MSTORE POP DUP2 ADD SWAP1 PUSH2 0xB93 SWAP2 SWAP1 PUSH2 0x1452 JUMP JUMPDEST PUSH1 0x1 PUSH1 0x1 PUSH1 0xA0 SHL SUB AND EQ PUSH2 0xBE9 JUMPI PUSH1 0x40 MLOAD PUSH3 0x461BCD PUSH1 0xE5 SHL DUP2 MSTORE PUSH1 0x20 PUSH1 0x4 DUP3 ADD MSTORE PUSH1 0x19 PUSH1 0x24 DUP3 ADD MSTORE PUSH32 0x596F7520646F6E2774206F776E207468697320746F6B656E2100000000000000 PUSH1 0x44 DUP3 ADD MSTORE PUSH1 0x64 ADD PUSH2 0x451 JUMP JUMPDEST PUSH1 0x40 MLOAD PUSH4 0x23B872DD PUSH1 0xE0 SHL DUP2 MSTORE CALLER PUSH1 0x4 DUP3 ADD MSTORE ADDRESS PUSH1 0x24 DUP3 ADD MSTORE PUSH1 0x44 DUP2 ADD DUP3 SWAP1 MSTORE PUSH32 0x0 PUSH1 0x1 PUSH1 0x1 PUSH1 0xA0 SHL SUB AND SWAP1 PUSH4 0x23B872DD SWAP1 PUSH1 0x64 ADD PUSH1 0x0 PUSH1 0x40 MLOAD DUP1 DUP4 SUB DUP2 PUSH1 0x0 DUP8 DUP1 EXTCODESIZE ISZERO DUP1 ISZERO PUSH2 0xC57 JUMPI PUSH1 0x0 DUP1 REVERT JUMPDEST POP GAS CALL ISZERO DUP1 ISZERO PUSH2 0xC6B JUMPI RETURNDATASIZE PUSH1 0x0 DUP1 RETURNDATACOPY RETURNDATASIZE PUSH1 0x0 REVERT JUMPDEST POP POP PUSH1 0x40 DUP1 MLOAD DUP1 DUP3 ADD DUP3 MSTORE CALLER DUP1 DUP3 MSTORE PUSH1 0x20 DUP1 DUP4 ADD DUP8 DUP2 MSTORE PUSH1 0x0 DUP4 DUP2 MSTORE PUSH1 0x5 DUP4 MSTORE SWAP5 DUP6 KECCAK256 PUSH1 0x1 DUP1 DUP3 ADD DUP1 SLOAD DUP1 DUP4 ADD DUP3 SSTORE SWAP1 DUP9 MSTORE SWAP4 DUP8 KECCAK256 DUP7 MLOAD PUSH1 0x2 SWAP1 SWAP6 MUL ADD DUP1 SLOAD PUSH1 0x1 PUSH1 0x1 PUSH1 0xA0 SHL SUB NOT AND PUSH1 0x1 PUSH1 0x1 PUSH1 0xA0 SHL SUB SWAP1 SWAP6 AND SWAP5 SWAP1 SWAP5 OR DUP5 SSTORE SWAP2 MLOAD SWAP3 SWAP1 SWAP2 ADD SWAP2 SWAP1 SWAP2 SSTORE SWAP1 DUP4 MSTORE DUP1 SLOAD SWAP2 SWAP5 POP SWAP1 SWAP3 POP SWAP1 PUSH2 0xCE4 DUP4 PUSH2 0x140C JUMP JUMPDEST SWAP1 SWAP2 SSTORE POP POP POP PUSH1 0x0 DUP2 DUP2 MSTORE PUSH1 0x6 PUSH1 0x20 SWAP1 DUP2 MSTORE PUSH1 0x40 DUP1 DUP4 KECCAK256 DUP1 SLOAD PUSH1 0x1 PUSH1 0x1 PUSH1 0xA0 SHL SUB NOT AND CALLER SWAP1 DUP2 OR SWAP1 SWAP2 SSTORE DUP4 MSTORE PUSH1 0x5 SWAP1 SWAP2 MSTORE SWAP1 KECCAK256 TIMESTAMP PUSH1 0x2 SWAP1 SWAP2 ADD SSTORE PUSH2 0x74D PUSH1 0x1 PUSH1 0x0 SSTORE JUMP JUMPDEST PUSH2 0xD30 PUSH2 0xE9C JUMP JUMPDEST PUSH1 0x0 PUSH2 0xD44 PUSH1 0x1 SLOAD PUSH1 0x1 PUSH1 0x1 PUSH1 0xA0 SHL SUB AND SWAP1 JUMP JUMPDEST PUSH1 0x1 PUSH1 0x1 PUSH1 0xA0 SHL SUB AND SELFBALANCE PUSH1 0x40 MLOAD PUSH1 0x0 PUSH1 0x40 MLOAD DUP1 DUP4 SUB DUP2 DUP6 DUP8 GAS CALL SWAP3 POP POP POP RETURNDATASIZE DUP1 PUSH1 0x0 DUP2 EQ PUSH2 0xD8E JUMPI PUSH1 0x40 MLOAD SWAP2 POP PUSH1 0x1F NOT PUSH1 0x3F RETURNDATASIZE ADD AND DUP3 ADD PUSH1 0x40 MSTORE RETURNDATASIZE DUP3 MSTORE RETURNDATASIZE PUSH1 0x0 PUSH1 0x20 DUP5 ADD RETURNDATACOPY PUSH2 0xD93 JUMP JUMPDEST PUSH1 0x60 SWAP2 POP JUMPDEST POP POP SWAP1 POP DUP1 PUSH2 0x74D JUMPI PUSH1 0x40 MLOAD PUSH3 0x461BCD PUSH1 0xE5 SHL DUP2 MSTORE PUSH1 0x20 PUSH1 0x4 DUP3 ADD MSTORE PUSH1 0x10 PUSH1 0x24 DUP3 ADD MSTORE PUSH16 0x5472616E73666572206661696C656421 PUSH1 0x80 SHL PUSH1 0x44 DUP3 ADD MSTORE PUSH1 0x64 ADD PUSH2 0x451 JUMP JUMPDEST PUSH2 0xDDF PUSH2 0xE9C JUMP JUMPDEST PUSH1 0x1 PUSH1 0x1 PUSH1 0xA0 SHL SUB DUP2 AND PUSH2 0xE5B JUMPI PUSH1 0x40 MLOAD PUSH3 0x461BCD PUSH1 0xE5 SHL DUP2 MSTORE PUSH1 0x20 PUSH1 0x4 DUP3 ADD MSTORE PUSH1 0x26 PUSH1 0x24 DUP3 ADD MSTORE PUSH32 0x4F776E61626C653A206E6577206F776E657220697320746865207A65726F2061 PUSH1 0x44 DUP3 ADD MSTORE PUSH32 0x6464726573730000000000000000000000000000000000000000000000000000 PUSH1 0x64 DUP3 ADD MSTORE PUSH1 0x84 ADD PUSH2 0x451 JUMP JUMPDEST PUSH2 0x74D DUP2 PUSH2 0x101C JUMP JUMPDEST PUSH1 0x1 PUSH1 0x1 PUSH1 0xA0 SHL SUB DUP2 AND PUSH1 0x0 SWAP1 DUP2 MSTORE PUSH1 0x5 PUSH1 0x20 MSTORE PUSH1 0x40 DUP2 KECCAK256 PUSH1 0x3 ADD SLOAD DUP2 SWAP1 PUSH2 0xE8B DUP5 PUSH2 0xF4F JUMP JUMPDEST PUSH2 0xE95 SWAP2 SWAP1 PUSH2 0x13DE JUMP JUMPDEST SWAP4 SWAP3 POP POP POP JUMP JUMPDEST PUSH1 0x1 SLOAD PUSH1 0x1 PUSH1 0x1 PUSH1 0xA0 SHL SUB AND CALLER EQ PUSH2 0xAB0 JUMPI PUSH1 0x40 MLOAD PUSH3 0x461BCD PUSH1 0xE5 SHL DUP2 MSTORE PUSH1 0x20 PUSH1 0x4 DUP3 ADD DUP2 SWAP1 MSTORE PUSH1 0x24 DUP3 ADD MSTORE PUSH32 0x4F776E61626C653A2063616C6C6572206973206E6F7420746865206F776E6572 PUSH1 0x44 DUP3 ADD MSTORE PUSH1 0x64 ADD PUSH2 0x451 JUMP JUMPDEST PUSH1 0x2 PUSH1 0x0 SLOAD SUB PUSH2 0xF48 JUMPI PUSH1 0x40 MLOAD PUSH3 0x461BCD PUSH1 0xE5 SHL DUP2 MSTORE PUSH1 0x20 PUSH1 0x4 DUP3 ADD MSTORE PUSH1 0x1F PUSH1 0x24 DUP3 ADD MSTORE PUSH32 0x5265656E7472616E637947756172643A207265656E7472616E742063616C6C00 PUSH1 0x44 DUP3 ADD MSTORE PUSH1 0x64 ADD PUSH2 0x451 JUMP JUMPDEST PUSH1 0x2 PUSH1 0x0 SSTORE JUMP JUMPDEST PUSH1 0x4 SLOAD PUSH1 0x1 PUSH1 0x1 PUSH1 0xA0 SHL SUB DUP3 AND PUSH1 0x0 SWAP1 DUP2 MSTORE PUSH1 0x5 PUSH1 0x20 MSTORE PUSH1 0x40 DUP2 KECCAK256 DUP1 SLOAD PUSH1 0x2 SWAP1 SWAP2 ADD SLOAD SWAP2 SWAP3 PUSH2 0xE10 SWAP3 SWAP1 SWAP2 SWAP1 PUSH2 0xF85 SWAP1 TIMESTAMP PUSH2 0x146F JUMP JUMPDEST PUSH2 0xF8F SWAP2 SWAP1 PUSH2 0x1486 JUMP JUMPDEST PUSH2 0xF99 SWAP2 SWAP1 PUSH2 0x1486 JUMP JUMPDEST PUSH2 0xFA3 SWAP2 SWAP1 PUSH2 0x14A5 JUMP JUMPDEST SWAP3 SWAP2 POP POP JUMP JUMPDEST PUSH1 0x1 PUSH1 0x0 SSTORE JUMP JUMPDEST PUSH1 0x40 DUP1 MLOAD PUSH1 0x1 PUSH1 0x1 PUSH1 0xA0 SHL SUB DUP5 AND PUSH1 0x24 DUP3 ADD MSTORE PUSH1 0x44 DUP1 DUP3 ADD DUP5 SWAP1 MSTORE DUP3 MLOAD DUP1 DUP4 SUB SWAP1 SWAP2 ADD DUP2 MSTORE PUSH1 0x64 SWAP1 SWAP2 ADD SWAP1 SWAP2 MSTORE PUSH1 0x20 DUP2 ADD DUP1 MLOAD PUSH28 0xFFFFFFFFFFFFFFFFFFFFFFFFFFFFFFFFFFFFFFFFFFFFFFFFFFFFFFFF AND PUSH4 0xA9059CBB PUSH1 0xE0 SHL OR SWAP1 MSTORE PUSH2 0x1017 SWAP1 DUP5 SWAP1 PUSH2 0x106E JUMP JUMPDEST POP POP POP JUMP JUMPDEST PUSH1 0x1 DUP1 SLOAD PUSH1 0x1 PUSH1 0x1 PUSH1 0xA0 SHL SUB DUP4 DUP2 AND PUSH1 0x1 PUSH1 0x1 PUSH1 0xA0 SHL SUB NOT DUP4 AND DUP2 OR SWAP1 SWAP4 SSTORE PUSH1 0x40 MLOAD SWAP2 AND SWAP2 SWAP1 DUP3 SWAP1 PUSH32 0x8BE0079C531659141344CD1FD0A4F28419497F9722A3DAAFE3B4186F6B6457E0 SWAP1 PUSH1 0x0 SWAP1 LOG3 POP POP JUMP JUMPDEST PUSH1 0x0 PUSH2 0x10C3 DUP3 PUSH1 0x40 MLOAD DUP1 PUSH1 0x40 ADD PUSH1 0x40 MSTORE DUP1 PUSH1 0x20 DUP2 MSTORE PUSH1 0x20 ADD PUSH32 0x5361666545524332303A206C6F772D6C6576656C2063616C6C206661696C6564 DUP2 MSTORE POP DUP6 PUSH1 0x1 PUSH1 0x1 PUSH1 0xA0 SHL SUB AND PUSH2 0x1153 SWAP1 SWAP3 SWAP2 SWAP1 PUSH4 0xFFFFFFFF AND JUMP JUMPDEST DUP1 MLOAD SWAP1 SWAP2 POP ISZERO PUSH2 0x1017 JUMPI DUP1 DUP1 PUSH1 0x20 ADD SWAP1 MLOAD DUP2 ADD SWAP1 PUSH2 0x10E1 SWAP2 SWAP1 PUSH2 0x14C7 JUMP JUMPDEST PUSH2 0x1017 JUMPI PUSH1 0x40 MLOAD PUSH3 0x461BCD PUSH1 0xE5 SHL DUP2 MSTORE PUSH1 0x20 PUSH1 0x4 DUP3 ADD MSTORE PUSH1 0x2A PUSH1 0x24 DUP3 ADD MSTORE PUSH32 0x5361666545524332303A204552433230206F7065726174696F6E20646964206E PUSH1 0x44 DUP3 ADD MSTORE PUSH32 0x6F74207375636365656400000000000000000000000000000000000000000000 PUSH1 0x64 DUP3 ADD MSTORE PUSH1 0x84 ADD PUSH2 0x451 JUMP JUMPDEST PUSH1 0x60 PUSH2 0x1162 DUP5 DUP5 PUSH1 0x0 DUP6 PUSH2 0x116A JUMP JUMPDEST SWAP5 SWAP4 POP POP POP POP JUMP JUMPDEST PUSH1 0x60 DUP3 SELFBALANCE LT ISZERO PUSH2 0x11E2 JUMPI PUSH1 0x40 MLOAD PUSH3 0x461BCD PUSH1 0xE5 SHL DUP2 MSTORE PUSH1 0x20 PUSH1 0x4 DUP3 ADD MSTORE PUSH1 0x26 PUSH1 0x24 DUP3 ADD MSTORE PUSH32 0x416464726573733A20696E73756666696369656E742062616C616E636520666F PUSH1 0x44 DUP3 ADD MSTORE PUSH32 0x722063616C6C0000000000000000000000000000000000000000000000000000 PUSH1 0x64 DUP3 ADD MSTORE PUSH1 0x84 ADD PUSH2 0x451 JUMP JUMPDEST PUSH1 0x0 DUP1 DUP7 PUSH1 0x1 PUSH1 0x1 PUSH1 0xA0 SHL SUB AND DUP6 DUP8 PUSH1 0x40 MLOAD PUSH2 0x11FE SWAP2 SWAP1 PUSH2 0x1514 JUMP JUMPDEST PUSH1 0x0 PUSH1 0x40 MLOAD DUP1 DUP4 SUB DUP2 DUP6 DUP8 GAS CALL SWAP3 POP POP POP RETURNDATASIZE DUP1 PUSH1 0x0 DUP2 EQ PUSH2 0x123B JUMPI PUSH1 0x40 MLOAD SWAP2 POP PUSH1 0x1F NOT PUSH1 0x3F RETURNDATASIZE ADD AND DUP3 ADD PUSH1 0x40 MSTORE RETURNDATASIZE DUP3 MSTORE RETURNDATASIZE PUSH1 0x0 PUSH1 0x20 DUP5 ADD RETURNDATACOPY PUSH2 0x1240 JUMP JUMPDEST PUSH1 0x60 SWAP2 POP JUMPDEST POP SWAP2 POP SWAP2 POP PUSH2 0x1251 DUP8 DUP4 DUP4 DUP8 PUSH2 0x125C JUMP JUMPDEST SWAP8 SWAP7 POP POP POP POP POP POP POP JUMP JUMPDEST PUSH1 0x60 DUP4 ISZERO PUSH2 0x12CB JUMPI DUP3 MLOAD PUSH1 0x0 SUB PUSH2 0x12C4 JUMPI PUSH1 0x1 PUSH1 0x1 PUSH1 0xA0 SHL SUB DUP6 AND EXTCODESIZE PUSH2 0x12C4 JUMPI PUSH1 0x40 MLOAD PUSH3 0x461BCD PUSH1 0xE5 SHL DUP2 MSTORE PUSH1 0x20 PUSH1 0x4 DUP3 ADD MSTORE PUSH1 0x1D PUSH1 0x24 DUP3 ADD MSTORE PUSH32 0x416464726573733A2063616C6C20746F206E6F6E2D636F6E7472616374000000 PUSH1 0x44 DUP3 ADD MSTORE PUSH1 0x64 ADD PUSH2 0x451 JUMP JUMPDEST POP DUP2 PUSH2 0x1162 JUMP JUMPDEST PUSH2 0x1162 DUP4 DUP4 DUP2 MLOAD ISZERO PUSH2 0x12E0 JUMPI DUP2 MLOAD DUP1 DUP4 PUSH1 0x20 ADD REVERT JUMPDEST DUP1 PUSH1 0x40 MLOAD PUSH3 0x461BCD PUSH1 0xE5 SHL DUP2 MSTORE PUSH1 0x4 ADD PUSH2 0x451 SWAP2 SWAP1 PUSH2 0x1530 JUMP JUMPDEST PUSH1 0x0 PUSH1 0x20 DUP3 DUP5 SUB SLT ISZERO PUSH2 0x130C JUMPI PUSH1 0x0 DUP1 REVERT JUMPDEST POP CALLDATALOAD SWAP2 SWAP1 POP JUMP JUMPDEST DUP1 ISZERO ISZERO DUP2 EQ PUSH2 0x74D JUMPI PUSH1 0x0 DUP1 REVERT JUMPDEST PUSH1 0x0 PUSH1 0x20 DUP3 DUP5 SUB SLT ISZERO PUSH2 0x1333 JUMPI PUSH1 0x0 DUP1 REVERT JUMPDEST DUP2 CALLDATALOAD PUSH2 0xE95 DUP2 PUSH2 0x1313 JUMP JUMPDEST PUSH1 0x1 PUSH1 0x1 PUSH1 0xA0 SHL SUB DUP2 AND DUP2 EQ PUSH2 0x74D JUMPI PUSH1 0x0 DUP1 REVERT JUMPDEST PUSH1 0x0 PUSH1 0x20 DUP3 DUP5 SUB SLT ISZERO PUSH2 0x1365 JUMPI PUSH1 0x0 DUP1 REVERT JUMPDEST DUP2 CALLDATALOAD PUSH2 0xE95 DUP2 PUSH2 0x133E JUMP JUMPDEST PUSH1 0x20 DUP1 DUP3 MSTORE DUP3 MLOAD DUP3 DUP3 ADD DUP2 SWAP1 MSTORE PUSH1 0x0 SWAP2 SWAP1 PUSH1 0x40 SWAP1 DUP2 DUP6 ADD SWAP1 DUP7 DUP5 ADD DUP6 JUMPDEST DUP3 DUP2 LT ISZERO PUSH2 0x13BB JUMPI DUP2 MLOAD DUP1 MLOAD PUSH1 0x1 PUSH1 0x1 PUSH1 0xA0 SHL SUB AND DUP6 MSTORE DUP7 ADD MLOAD DUP7 DUP6 ADD MSTORE SWAP3 DUP5 ADD SWAP3 SWAP1 DUP6 ADD SWAP1 PUSH1 0x1 ADD PUSH2 0x138D JUMP JUMPDEST POP SWAP2 SWAP8 SWAP7 POP POP POP POP POP POP POP JUMP JUMPDEST PUSH4 0x4E487B71 PUSH1 0xE0 SHL PUSH1 0x0 MSTORE PUSH1 0x11 PUSH1 0x4 MSTORE PUSH1 0x24 PUSH1 0x0 REVERT JUMPDEST PUSH1 0x0 DUP3 NOT DUP3 GT ISZERO PUSH2 0x13F1 JUMPI PUSH2 0x13F1 PUSH2 0x13C8 JUMP JUMPDEST POP ADD SWAP1 JUMP JUMPDEST PUSH4 0x4E487B71 PUSH1 0xE0 SHL PUSH1 0x0 MSTORE PUSH1 0x32 PUSH1 0x4 MSTORE PUSH1 0x24 PUSH1 0x0 REVERT JUMPDEST PUSH1 0x0 PUSH1 0x1 DUP3 ADD PUSH2 0x141E JUMPI PUSH2 0x141E PUSH2 0x13C8 JUMP JUMPDEST POP PUSH1 0x1 ADD SWAP1 JUMP JUMPDEST PUSH1 0x0 DUP2 PUSH2 0x1434 JUMPI PUSH2 0x1434 PUSH2 0x13C8 JUMP JUMPDEST POP PUSH1 0x0 NOT ADD SWAP1 JUMP JUMPDEST PUSH4 0x4E487B71 PUSH1 0xE0 SHL PUSH1 0x0 MSTORE PUSH1 0x41 PUSH1 0x4 MSTORE PUSH1 0x24 PUSH1 0x0 REVERT JUMPDEST PUSH1 0x0 PUSH1 0x20 DUP3 DUP5 SUB SLT ISZERO PUSH2 0x1464 JUMPI PUSH1 0x0 DUP1 REVERT JUMPDEST DUP2 MLOAD PUSH2 0xE95 DUP2 PUSH2 0x133E JUMP JUMPDEST PUSH1 0x0 DUP3 DUP3 LT ISZERO PUSH2 0x1481 JUMPI PUSH2 0x1481 PUSH2 0x13C8 JUMP JUMPDEST POP SUB SWAP1 JUMP JUMPDEST PUSH1 0x0 DUP2 PUSH1 0x0 NOT DIV DUP4 GT DUP3 ISZERO ISZERO AND ISZERO PUSH2 0x14A0 JUMPI PUSH2 0x14A0 PUSH2 0x13C8 JUMP JUMPDEST POP MUL SWAP1 JUMP JUMPDEST PUSH1 0x0 DUP3 PUSH2 0x14C2 JUMPI PUSH4 0x4E487B71 PUSH1 0xE0 SHL PUSH1 0x0 MSTORE PUSH1 0x12 PUSH1 0x4 MSTORE PUSH1 0x24 PUSH1 0x0 REVERT JUMPDEST POP DIV SWAP1 JUMP JUMPDEST PUSH1 0x0 PUSH1 0x20 DUP3 DUP5 SUB SLT ISZERO PUSH2 0x14D9 JUMPI PUSH1 0x0 DUP1 REVERT JUMPDEST DUP2 MLOAD PUSH2 0xE95 DUP2 PUSH2 0x1313 JUMP JUMPDEST PUSH1 0x0 JUMPDEST DUP4 DUP2 LT ISZERO PUSH2 0x14FF JUMPI DUP2 DUP2 ADD MLOAD DUP4 DUP3 ADD MSTORE PUSH1 0x20 ADD PUSH2 0x14E7 JUMP JUMPDEST DUP4 DUP2 GT ISZERO PUSH2 0x150E JUMPI PUSH1 0x0 DUP5 DUP5 ADD MSTORE JUMPDEST POP POP POP POP JUMP JUMPDEST PUSH1 0x0 DUP3 MLOAD PUSH2 0x1526 DUP2 DUP5 PUSH1 0x20 DUP8 ADD PUSH2 0x14E4 JUMP JUMPDEST SWAP2 SWAP1 SWAP2 ADD SWAP3 SWAP2 POP POP JUMP JUMPDEST PUSH1 0x20 DUP2 MSTORE PUSH1 0x0 DUP3 MLOAD DUP1 PUSH1 0x20 DUP5 ADD MSTORE PUSH2 0x154F DUP2 PUSH1 0x40 DUP6 ADD PUSH1 0x20 DUP8 ADD PUSH2 0x14E4 JUMP JUMPDEST PUSH1 0x1F ADD PUSH1 0x1F NOT AND SWAP2 SWAP1 SWAP2 ADD PUSH1 0x40 ADD SWAP3 SWAP2 POP POP JUMP INVALID LOG2 PUSH5 0x6970667358 0x22 SLT KECCAK256 0xC2 0xCB 0xCC PUSH11 0x1118B8D6B4CBB8D275CE0 SWAP15 SUB 0xB3 SWAP7 0xB0 0xD7 0xE0 RETURNDATASIZE 0xD1 MSTORE8 0x28 0xB6 0xCB 0x23 SWAP11 0xBB JUMP PUSH5 0x736F6C6343 STOP ADDMOD 0xD STOP CALLER "
    },
    "gasEstimates": {
      "creation": {
        "codeDepositCost": "1105800",
        "executionCost": "infinite",
        "totalCost": "infinite"
      },
      "external": {
        "availableRewards(address)": "infinite",
        "claimRewards()": "infinite",
        "emergencyWithdrawAll()": "infinite",
        "getStakedTokens(address)": "infinite",
        "iseligible(address)": "2592",
        "nftCollection()": "infinite",
        "owner()": "2420",
        "renounceOwnership()": "infinite",
        "rewardsToken()": "infinite",
        "seteligible(bool)": "26821",
        "stake(uint256)": "infinite",
        "stakerAddress(uint256)": "2522",
        "stakers(address)": "6811",
        "storeETH()": "22258",
        "transferOwnership(address)": "infinite",
        "withdraw(uint256)": "infinite",
        "withdrawadmin(uint256)": "infinite"
      },
      "internal": {
        "calculateRewards(address)": "infinite"
      }
    },
    "methodIdentifiers": {
      "availableRewards(address)": "f854a27f",
      "claimRewards()": "372500ab",
      "emergencyWithdrawAll()": "dd191719",
      "getStakedTokens(address)": "63c28db1",
      "iseligible(address)": "dfab45c6",
      "nftCollection()": "6588103b",
      "owner()": "8da5cb5b",
      "renounceOwnership()": "715018a6",
      "rewardsToken()": "d1af0c7d",
      "seteligible(bool)": "4a7113f6",
      "stake(uint256)": "a694fc3a",
      "stakerAddress(uint256)": "94067045",
      "stakers(address)": "9168ae72",
      "storeETH()": "f1ad3334",
      "transferOwnership(address)": "f2fde38b",
      "withdraw(uint256)": "2e1a7d4d",
      "withdrawadmin(uint256)": "1829b46c"
    }
  },
  "storageLayout": {
    "storage": [
      {
        "astId": 720,
        "contract": "StakingContract.sol:ERC721Staking",
        "label": "_status",
        "offset": 0,
        "slot": "0",
        "type": "t_uint256"
      },
      {
        "astId": 604,
        "contract": "StakingContract.sol:ERC721Staking",
        "label": "_owner",
        "offset": 0,
        "slot": "1",
        "type": "t_address"
      },
      {
        "astId": 22,
        "contract": "StakingContract.sol:ERC721Staking",
        "label": "imna",
        "offset": 0,
        "slot": "2",
        "type": "t_uint256"
      },
      {
        "astId": 26,
        "contract": "StakingContract.sol:ERC721Staking",
        "label": "iseligible",
        "offset": 0,
        "slot": "3",
        "type": "t_mapping(t_address,t_bool)"
      },
      {
        "astId": 63,
        "contract": "StakingContract.sol:ERC721Staking",
        "label": "rewardsPerHour",
        "offset": 0,
        "slot": "4",
        "type": "t_uint256"
      },
      {
        "astId": 68,
        "contract": "StakingContract.sol:ERC721Staking",
        "label": "stakers",
        "offset": 0,
        "slot": "5",
        "type": "t_mapping(t_address,t_struct(Staker)60_storage)"
      },
      {
        "astId": 72,
        "contract": "StakingContract.sol:ERC721Staking",
        "label": "stakerAddress",
        "offset": 0,
        "slot": "6",
        "type": "t_mapping(t_uint256,t_address)"
      }
    ],
    "types": {
      "t_address": {
        "encoding": "inplace",
        "label": "address",
        "numberOfBytes": "20"
      },
      "t_array(t_struct(StakedToken)49_storage)dyn_storage": {
        "base": "t_struct(StakedToken)49_storage",
        "encoding": "dynamic_array",
        "label": "struct ERC721Staking.StakedToken[]",
        "numberOfBytes": "32"
      },
      "t_bool": {
        "encoding": "inplace",
        "label": "bool",
        "numberOfBytes": "1"
      },
      "t_mapping(t_address,t_bool)": {
        "encoding": "mapping",
        "key": "t_address",
        "label": "mapping(address => bool)",
        "numberOfBytes": "32",
        "value": "t_bool"
      },
      "t_mapping(t_address,t_struct(Staker)60_storage)": {
        "encoding": "mapping",
        "key": "t_address",
        "label": "mapping(address => struct ERC721Staking.Staker)",
        "numberOfBytes": "32",
        "value": "t_struct(Staker)60_storage"
      },
      "t_mapping(t_uint256,t_address)": {
        "encoding": "mapping",
        "key": "t_uint256",
        "label": "mapping(uint256 => address)",
        "numberOfBytes": "32",
        "value": "t_address"
      },
      "t_struct(StakedToken)49_storage": {
        "encoding": "inplace",
        "label": "struct ERC721Staking.StakedToken",
        "members": [
          {
            "astId": 46,
            "contract": "StakingContract.sol:ERC721Staking",
            "label": "staker",
            "offset": 0,
            "slot": "0",
            "type": "t_address"
          },
          {
            "astId": 48,
            "contract": "StakingContract.sol:ERC721Staking",
            "label": "tokenId",
            "offset": 0,
            "slot": "1",
            "type": "t_uint256"
          }
        ],
        "numberOfBytes": "64"
      },
      "t_struct(Staker)60_storage": {
        "encoding": "inplace",
        "label": "struct ERC721Staking.Staker",
        "members": [
          {
            "astId": 51,
            "contract": "StakingContract.sol:ERC721Staking",
            "label": "amountStaked",
            "offset": 0,
            "slot": "0",
            "type": "t_uint256"
          },
          {
            "astId": 55,
            "contract": "StakingContract.sol:ERC721Staking",
            "label": "stakedTokens",
            "offset": 0,
            "slot": "1",
            "type": "t_array(t_struct(StakedToken)49_storage)dyn_storage"
          },
          {
            "astId": 57,
            "contract": "StakingContract.sol:ERC721Staking",
            "label": "timeOfLastUpdate",
            "offset": 0,
            "slot": "2",
            "type": "t_uint256"
          },
          {
            "astId": 59,
            "contract": "StakingContract.sol:ERC721Staking",
            "label": "unclaimedRewards",
            "offset": 0,
            "slot": "3",
            "type": "t_uint256"
          }
        ],
        "numberOfBytes": "128"
      },
      "t_uint256": {
        "encoding": "inplace",
        "label": "uint256",
        "numberOfBytes": "32"
      }
    }
  },
  "userdoc": {
    "kind": "user",
    "methods": {},
    "version": 1
  }
}